{
  "contractName": "GlqStakingContract",
  "abi": [
    {
      "inputs": [
        {
          "internalType": "address",
          "name": "manager",
          "type": "address"
        }
      ],
      "stateMutability": "nonpayable",
      "type": "constructor"
    },
    {
      "anonymous": false,
      "inputs": [
        {
          "indexed": false,
          "internalType": "address",
          "name": "staker_address",
          "type": "address"
        },
        {
          "indexed": false,
          "internalType": "uint256",
          "name": "at_block",
          "type": "uint256"
        },
        {
          "indexed": false,
          "internalType": "uint256",
          "name": "amount_registered",
          "type": "uint256"
        }
      ],
      "name": "NewStakerRegistered",
      "type": "event"
    },
    {
      "anonymous": false,
      "inputs": [
        {
          "indexed": false,
          "internalType": "uint256",
          "name": "amount",
          "type": "uint256"
        }
      ],
      "name": "ReceivedFunds",
      "type": "event"
    },
    {
      "stateMutability": "payable",
      "type": "receive",
      "payable": true
    },
    {
      "inputs": [
        {
          "internalType": "address[]",
          "name": "addresses",
          "type": "address[]"
        },
        {
          "internalType": "uint256[]",
          "name": "amounts",
          "type": "uint256[]"
        },
        {
          "internalType": "uint256",
          "name": "len",
          "type": "uint256"
        }
      ],
      "name": "setClaimMigration",
      "outputs": [],
      "stateMutability": "nonpayable",
      "type": "function"
    },
    {
      "inputs": [],
      "name": "claimFromMigration",
      "outputs": [],
      "stateMutability": "nonpayable",
      "type": "function"
    },
    {
      "inputs": [
        {
          "internalType": "address",
          "name": "wallet",
          "type": "address"
        }
      ],
      "name": "getClaimFromMigration",
      "outputs": [
        {
          "internalType": "uint256",
          "name": "",
          "type": "uint256"
        }
      ],
      "stateMutability": "view",
      "type": "function",
      "constant": true
    },
    {
      "inputs": [
        {
          "internalType": "address",
          "name": "wallet",
          "type": "address"
        }
      ],
      "name": "getWalletCurrentTier",
      "outputs": [
        {
          "internalType": "uint256",
          "name": "",
          "type": "uint256"
        }
      ],
      "stateMutability": "view",
      "type": "function",
      "constant": true
    },
    {
      "inputs": [
        {
          "internalType": "address",
          "name": "wallet",
          "type": "address"
        }
      ],
      "name": "getPosition",
      "outputs": [
        {
          "internalType": "uint256",
          "name": "",
          "type": "uint256"
        }
      ],
      "stateMutability": "view",
      "type": "function",
      "constant": true
    },
    {
      "inputs": [
        {
          "internalType": "address",
          "name": "wallet",
          "type": "address"
        }
      ],
      "name": "getGlqToClaim",
      "outputs": [
        {
          "internalType": "uint256",
          "name": "",
          "type": "uint256"
        }
      ],
      "stateMutability": "view",
      "type": "function",
      "constant": true
    },
    {
      "inputs": [
        {
          "internalType": "address",
          "name": "wallet",
          "type": "address"
        }
      ],
      "name": "getWaitingPercentAPR",
      "outputs": [
        {
          "internalType": "uint256",
          "name": "",
          "type": "uint256"
        }
      ],
      "stateMutability": "view",
      "type": "function",
      "constant": true
    },
    {
      "inputs": [],
      "name": "getTotalIncentive",
      "outputs": [
        {
          "internalType": "uint256",
          "name": "",
          "type": "uint256"
        }
      ],
      "stateMutability": "view",
      "type": "function",
      "constant": true
    },
    {
      "inputs": [
        {
          "internalType": "address",
          "name": "wallet",
          "type": "address"
        }
      ],
      "name": "getDepositedGLQ",
      "outputs": [
        {
          "internalType": "uint256",
          "name": "",
          "type": "uint256"
        }
      ],
      "stateMutability": "view",
      "type": "function",
      "constant": true
    },
    {
      "inputs": [],
      "name": "getTotalStakers",
      "outputs": [
        {
          "internalType": "uint256",
          "name": "",
          "type": "uint256"
        }
      ],
      "stateMutability": "view",
      "type": "function",
      "constant": true
    },
    {
      "inputs": [],
      "name": "getTiersAPY",
      "outputs": [
        {
          "internalType": "uint256",
          "name": "",
          "type": "uint256"
        },
        {
          "internalType": "uint256",
          "name": "",
          "type": "uint256"
        },
        {
          "internalType": "uint256",
          "name": "",
          "type": "uint256"
        }
      ],
      "stateMutability": "view",
      "type": "function",
      "constant": true
    },
    {
      "inputs": [],
      "name": "getTotalStaked",
      "outputs": [
        {
          "internalType": "uint256",
          "name": "",
          "type": "uint256"
        }
      ],
      "stateMutability": "view",
      "type": "function",
      "constant": true
    },
    {
      "inputs": [],
      "name": "getTopStakers",
      "outputs": [
        {
          "internalType": "address[]",
          "name": "",
          "type": "address[]"
        },
        {
          "internalType": "uint256[]",
          "name": "",
          "type": "uint256[]"
        }
      ],
      "stateMutability": "view",
      "type": "function",
      "constant": true
    },
    {
      "inputs": [
        {
          "internalType": "uint256",
          "name": "tier",
          "type": "uint256"
        }
      ],
      "name": "getTierTotalStaked",
      "outputs": [
        {
          "internalType": "uint256",
          "name": "",
          "type": "uint256"
        }
      ],
      "stateMutability": "view",
      "type": "function",
      "constant": true
    },
    {
      "inputs": [
        {
          "internalType": "uint256",
          "name": "blocks",
          "type": "uint256"
        }
      ],
      "name": "setBlocksPerYear",
      "outputs": [],
      "stateMutability": "nonpayable",
      "type": "function"
    },
    {
      "inputs": [
        {
          "internalType": "uint256",
          "name": "t1",
          "type": "uint256"
        },
        {
          "internalType": "uint256",
          "name": "t2",
          "type": "uint256"
        },
        {
          "internalType": "uint256",
          "name": "t3",
          "type": "uint256"
        }
      ],
      "name": "setApyPercentRewards",
      "outputs": [],
      "stateMutability": "nonpayable",
      "type": "function"
    },
    {
      "inputs": [
        {
          "internalType": "uint256",
          "name": "glqAmount",
          "type": "uint256"
        }
      ],
      "name": "removeIncentive",
      "outputs": [],
      "stateMutability": "nonpayable",
      "type": "function"
    },
    {
      "inputs": [],
      "name": "depositGlq",
      "outputs": [],
      "stateMutability": "payable",
      "type": "function",
      "payable": true
    },
    {
      "inputs": [],
      "name": "withdrawGlq",
      "outputs": [],
      "stateMutability": "nonpayable",
      "type": "function"
    },
    {
      "inputs": [],
      "name": "claimGlq",
      "outputs": [
        {
          "internalType": "uint256",
          "name": "",
          "type": "uint256"
        }
      ],
      "stateMutability": "nonpayable",
      "type": "function"
    }
  ],
  "bytecode": "0x60806040523480156200001157600080fd5b506040516200313538038062003135833981810160405281019062000037919062000106565b806000806101000a81548173ffffffffffffffffffffffffffffffffffffffff021916908373ffffffffffffffffffffffffffffffffffffffff160217905550600060048190555060016003819055506220148060078190555060405180606001604052806801e5b8fa8fe2ac0000815260200167d02ab486cedc00008152602001676f05b59d3b20000081525060086000820151816000015560208201518160010155604082015181600201559050505062000180565b600081519050620001008162000166565b92915050565b6000602082840312156200011957600080fd5b60006200012984828501620000ef565b91505092915050565b60006200013f8262000146565b9050919050565b600073ffffffffffffffffffffffffffffffffffffffff82169050919050565b620001718162000132565b81146200017d57600080fd5b50565b612fa580620001906000396000f3fe6080604052600436106101235760003560e01c806379e59170116100a0578063d48e85b411610064578063d48e85b414610426578063d7ba276b14610463578063e050b2e21461048e578063e5fa2b70146104a5578063f2190dce146104ce5761017a565b806379e5917014610360578063b2f183a614610389578063c88f4a95146103c6578063ceeada95146103f3578063d28cef3f146103fd5761017a565b806319962aea116100e757806319962aea1461028a578063220e0726146102c757806331ed0db4146102f257806344a24f991461031d57806370bb9a25146103345761017a565b806304e217621461017f5780630917e776146101bc57806310ae4e99146101e757806312362cab1461021057806316c197391461024d5761017a565b3661017a577f5e7b5f7f93e42781a9409de40a40b733d65d7a883d83e26ae6bbb925cfede8bb3460405161015791906129ef565b60405180910390a134600160008282546101719190612b58565b92505081905550005b600080fd5b34801561018b57600080fd5b506101a660048036038101906101a19190612168565b61050b565b6040516101b391906129ef565b60405180910390f35b3480156101c857600080fd5b506101d16106db565b6040516101de91906129ef565b60405180910390f35b3480156101f357600080fd5b5061020e60048036038101906102099190612239565b6106e5565b005b34801561021c57600080fd5b5061023760048036038101906102329190612168565b6107bc565b60405161024491906129ef565b60405180910390f35b34801561025957600080fd5b50610274600480360381019061026f9190612168565b610805565b60405161028191906129ef565b60405180910390f35b34801561029657600080fd5b506102b160048036038101906102ac9190612210565b6108b4565b6040516102be91906129ef565b60405180910390f35b3480156102d357600080fd5b506102dc610a75565b6040516102e991906129ef565b60405180910390f35b3480156102fe57600080fd5b50610307610bd8565b60405161031491906129ef565b60405180910390f35b34801561032957600080fd5b50610332610be5565b005b34801561034057600080fd5b50610349610d40565b604051610357929190612836565b60405180910390f35b34801561036c57600080fd5b5061038760048036038101906103829190612210565b611042565b005b34801561039557600080fd5b506103b060048036038101906103ab9190612168565b611141565b6040516103bd91906129ef565b60405180910390f35b3480156103d257600080fd5b506103db6111fa565b6040516103ea93929190612a0a565b60405180910390f35b6103fb61121c565b005b34801561040957600080fd5b50610424600480360381019061041f9190612191565b61157a565b005b34801561043257600080fd5b5061044d60048036038101906104489190612168565b6116f0565b60405161045a91906129ef565b60405180910390f35b34801561046f57600080fd5b506104786118c9565b60405161048591906129ef565b60405180910390f35b34801561049a57600080fd5b506104a36118d3565b005b3480156104b157600080fd5b506104cc60048036038101906104c79190612210565b611bae565b005b3480156104da57600080fd5b506104f560048036038101906104f09190612168565b611c46565b60405161050291906129ef565b60405180910390f35b600080600390506000600660008573ffffffffffffffffffffffffffffffffffffffff1673ffffffffffffffffffffffffffffffffffffffff168152602001908152602001600020549050600081141561059a576040517f08c379a0000000000000000000000000000000000000000000000000000000008152600401610591906129cf565b60405180910390fd5b600d60008573ffffffffffffffffffffffffffffffffffffffff1673ffffffffffffffffffffffffffffffffffffffff16815260200190815260200160002060009054906101000a900460ff16156105f65781925050506106d6565b6000610613670de0b6b3a764000083611d8190919063ffffffff16565b90506000600e5460028054905061062a9190612daa565b90506000610649670de0b6b3a764000083611d8190919063ffffffff16565b90506000610674600f610666606485611dfc90919063ffffffff16565b611d8190919063ffffffff16565b9050600061069f6037610691606486611dfc90919063ffffffff16565b611d8190919063ffffffff16565b90508185116106b157600196506106cb565b81851180156106c05750808511155b156106ca57600296505b5b869750505050505050505b919050565b6000600454905090565b60008054906101000a900473ffffffffffffffffffffffffffffffffffffffff1673ffffffffffffffffffffffffffffffffffffffff163373ffffffffffffffffffffffffffffffffffffffff1614610773576040517f08c379a000000000000000000000000000000000000000000000000000000000815260040161076a906128af565b60405180910390fd5b6000604051806060016040528085815260200184815260200183815250905080600860008201518160000155602082015181600101556040820151816002015590505050505050565b6000600c60008373ffffffffffffffffffffffffffffffffffffffff1673ffffffffffffffffffffffffffffffffffffffff168152602001908152602001600020549050919050565b600080600660008473ffffffffffffffffffffffffffffffffffffffff1673ffffffffffffffffffffffffffffffffffffffff168152602001908152602001600020549050600d60008473ffffffffffffffffffffffffffffffffffffffff1673ffffffffffffffffffffffffffffffffffffffff16815260200190815260200160002060009054906101000a900460ff16156108aa576002805490509150506108af565b809150505b919050565b6000806000905060006108dd670de0b6b3a7640000600280549050611d8190919063ffffffff16565b90506000610908600f6108fa606485611dfc90919063ffffffff16565b611d8190919063ffffffff16565b905060006109336037610925606486611dfc90919063ffffffff16565b611d8190919063ffffffff16565b905060006001871461095f5761095a670de0b6b3a764000084611dfc90919063ffffffff16565b610962565b60005b905060006001881461098e57610989670de0b6b3a764000084611dfc90919063ffffffff16565b6109aa565b6109a9670de0b6b3a764000085611dfc90919063ffffffff16565b5b905060038814156109db576109d0670de0b6b3a764000084611dfc90919063ffffffff16565b915060028054905090505b60008290505b8181111580156109f5575060028054905081105b15610a665760028181548110610a34577f4e487b7100000000000000000000000000000000000000000000000000000000600052603260045260246000fd5b90600052602060002090600402016002015487610a519190612b58565b96508080610a5e90612e4d565b9150506109e1565b50859650505050505050919050565b600080600660003373ffffffffffffffffffffffffffffffffffffffff1673ffffffffffffffffffffffffffffffffffffffff16815260200190815260200160002054905060006002600183610acb9190612daa565b81548110610b02577f4e487b7100000000000000000000000000000000000000000000000000000000600052603260045260246000fd5b90600052602060002090600402019050600033905060008311610b5a576040517f08c379a0000000000000000000000000000000000000000000000000000000008152600401610b519061290f565b60405180910390fd5b6000610b6533611c46565b90506000811415610b7d576000945050505050610bd5565b4383600101819055508173ffffffffffffffffffffffffffffffffffffffff166108fc829081150290604051600060405180830381858888f19350505050158015610bcc573d6000803e3d6000fd5b50809450505050505b90565b6000600280549050905090565b60003390506000600c60008373ffffffffffffffffffffffffffffffffffffffff1673ffffffffffffffffffffffffffffffffffffffff1681526020019081526020016000205411610c6c576040517f08c379a0000000000000000000000000000000000000000000000000000000008152600401610c63906128cf565b60405180910390fd5b6000600c60008373ffffffffffffffffffffffffffffffffffffffff1673ffffffffffffffffffffffffffffffffffffffff1681526020019081526020016000205490506000600c60008473ffffffffffffffffffffffffffffffffffffffff1673ffffffffffffffffffffffffffffffffffffffff168152602001908152602001600020819055508173ffffffffffffffffffffffffffffffffffffffff166108fc829081150290604051600060405180830381858888f19350505050158015610d3b573d6000803e3d6000fd5b505050565b606080600060028054905090506000600367ffffffffffffffff811115610d90577f4e487b7100000000000000000000000000000000000000000000000000000000600052604160045260246000fd5b604051908082528060200260200182016040528015610dbe5781602001602082028036833780820191505090505b5090506000600367ffffffffffffffff811115610e04577f4e487b7100000000000000000000000000000000000000000000000000000000600052604160045260246000fd5b604051908082528060200260200182016040528015610e325781602001602082028036833780820191505090505b5090506000805b8481108015610e49575060028211155b1561103357600060028281548110610e8a577f4e487b7100000000000000000000000000000000000000000000000000000000600052603260045260246000fd5b906000526020600020906004020160020154146110205760028181548110610edb577f4e487b7100000000000000000000000000000000000000000000000000000000600052603260045260246000fd5b906000526020600020906004020160000160009054906101000a900473ffffffffffffffffffffffffffffffffffffffff16848281518110610f46577f4e487b7100000000000000000000000000000000000000000000000000000000600052603260045260246000fd5b602002602001019073ffffffffffffffffffffffffffffffffffffffff16908173ffffffffffffffffffffffffffffffffffffffff168152505060028181548110610fba577f4e487b7100000000000000000000000000000000000000000000000000000000600052603260045260246000fd5b906000526020600020906004020160020154838281518110611005577f4e487b7100000000000000000000000000000000000000000000000000000000600052603260045260246000fd5b602002602001018181525050818061101c90612e4d565b9250505b808061102b90612e4d565b915050610e39565b50828295509550505050509091565b60008060009054906101000a900473ffffffffffffffffffffffffffffffffffffffff16905060008054906101000a900473ffffffffffffffffffffffffffffffffffffffff1673ffffffffffffffffffffffffffffffffffffffff163373ffffffffffffffffffffffffffffffffffffffff16146110f6576040517f08c379a00000000000000000000000000000000000000000000000000000000081526004016110ed9061292f565b60405180910390fd5b8073ffffffffffffffffffffffffffffffffffffffff166108fc839081150290604051600060405180830381858888f1935050505015801561113c573d6000803e3d6000fd5b505050565b600080600660008473ffffffffffffffffffffffffffffffffffffffff1673ffffffffffffffffffffffffffffffffffffffff16815260200190815260200160002054905060008114156111995760009150506111f5565b60026001826111a89190612daa565b815481106111df577f4e487b7100000000000000000000000000000000000000000000000000000000600052603260045260246000fd5b9060005260206000209060040201600201549150505b919050565b6000806000600860000154600860010154600860020154925092509250909192565b69021e19e0c9bab2400000341015611269576040517f08c379a00000000000000000000000000000000000000000000000000000000081526004016112609061296f565b60405180910390fd5b6000600660003373ffffffffffffffffffffffffffffffffffffffff1673ffffffffffffffffffffffffffffffffffffffff16815260200190815260200160002054905034600460008282546112bf9190612b58565b92505081905550600081141561144257600060405180608001604052803373ffffffffffffffffffffffffffffffffffffffff1681526020014381526020013481526020016003548152509050600281908060018154018082558091505060019003906000526020600020906004020160009091909190915060008201518160000160006101000a81548173ffffffffffffffffffffffffffffffffffffffff021916908373ffffffffffffffffffffffffffffffffffffffff1602179055506020820151816001015560408201518160020155606082015181600301555050600354600660003373ffffffffffffffffffffffffffffffffffffffff1673ffffffffffffffffffffffffffffffffffffffff168152602001908152602001600020819055507fc47ed82c58c2e577a99ebba100d4a14c287e3b453c8d46113417f41f9f283d11334334604051611418939291906127ff565b60405180910390a16114366001600354611e4690919063ffffffff16565b60038190555050611577565b600060026001836114539190612daa565b8154811061148a577f4e487b7100000000000000000000000000000000000000000000000000000000600052603260045260246000fd5b90600052602060002090600402016002015411156114ac576114aa610a75565b505b4360026001836114bc9190612daa565b815481106114f3577f4e487b7100000000000000000000000000000000000000000000000000000000600052603260045260246000fd5b9060005260206000209060040201600101819055503460026001836115189190612daa565b8154811061154f577f4e487b7100000000000000000000000000000000000000000000000000000000600052603260045260246000fd5b9060005260206000209060040201600201600082825461156f9190612b58565b925050819055505b50565b60008054906101000a900473ffffffffffffffffffffffffffffffffffffffff1673ffffffffffffffffffffffffffffffffffffffff163373ffffffffffffffffffffffffffffffffffffffff1614611608576040517f08c379a00000000000000000000000000000000000000000000000000000000081526004016115ff906129af565b60405180910390fd5b60005b818110156116ea5782818151811061164c577f4e487b7100000000000000000000000000000000000000000000000000000000600052603260045260246000fd5b6020026020010151600c6000868481518110611691577f4e487b7100000000000000000000000000000000000000000000000000000000600052603260045260246000fd5b602002602001015173ffffffffffffffffffffffffffffffffffffffff1673ffffffffffffffffffffffffffffffffffffffff1681526020019081526020016000208190555080806116e290612e4d565b91505061160b565b50505050565b600080600660008473ffffffffffffffffffffffffffffffffffffffff1673ffffffffffffffffffffffffffffffffffffffff16815260200190815260200160002054905060008111611778576040517f08c379a000000000000000000000000000000000000000000000000000000000815260040161176f9061290f565b60405180910390fd5b600060026001836117899190612daa565b815481106117c0577f4e487b7100000000000000000000000000000000000000000000000000000000600052603260045260246000fd5b9060005260206000209060040201905060006117db8561050b565b905060006117f6836001015443611ea490919063ffffffff16565b9050600081141561180e5760009450505050506118c4565b600061184661182861271084611d8190919063ffffffff16565b61183f612710600754611d8190919063ffffffff16565b6014611eee565b905060006008600201549050600184141561186857600860000154905061187b565b600284141561187a5760086001015490505b5b6118bb670de0b6b3a76400006118ad606461189f8686611d8190919063ffffffff16565b611dfc90919063ffffffff16565b611dfc90919063ffffffff16565b96505050505050505b919050565b6000600154905090565b6000600660003373ffffffffffffffffffffffffffffffffffffffff1673ffffffffffffffffffffffffffffffffffffffff16815260200190815260200160002054905060003390506000821161195f576040517f08c379a00000000000000000000000000000000000000000000000000000000081526004016119569061290f565b60405180910390fd5b600060026001846119709190612daa565b815481106119a7577f4e487b7100000000000000000000000000000000000000000000000000000000600052603260045260246000fd5b9060005260206000209060040201905060008160020154116119fe576040517f08c379a00000000000000000000000000000000000000000000000000000000081526004016119f59061288f565b60405180910390fd5b611a06610a75565b50436002600185611a179190612daa565b81548110611a4e577f4e487b7100000000000000000000000000000000000000000000000000000000600052603260045260246000fd5b906000526020600020906004020160010181905550806002015460046000828254611a799190612daa565b9250508190555060008160020154905060008260020181905550600082600301819055508273ffffffffffffffffffffffffffffffffffffffff166108fc829081150290604051600060405180830381858888f19350505050158015611ae3573d6000803e3d6000fd5b50600d60003373ffffffffffffffffffffffffffffffffffffffff1673ffffffffffffffffffffffffffffffffffffffff16815260200190815260200160002060009054906101000a900460ff16611ba8576001600d60003373ffffffffffffffffffffffffffffffffffffffff1673ffffffffffffffffffffffffffffffffffffffff16815260200190815260200160002060006101000a81548160ff0219169083151502179055506001600e6000828254611ba09190612b58565b925050819055505b50505050565b60008054906101000a900473ffffffffffffffffffffffffffffffffffffffff1673ffffffffffffffffffffffffffffffffffffffff163373ffffffffffffffffffffffffffffffffffffffff1614611c3c576040517f08c379a0000000000000000000000000000000000000000000000000000000008152600401611c339061294f565b60405180910390fd5b8060078190555050565b600080600660008473ffffffffffffffffffffffffffffffffffffffff1673ffffffffffffffffffffffffffffffffffffffff16815260200190815260200160002054905060008111611cce576040517f08c379a0000000000000000000000000000000000000000000000000000000008152600401611cc59061290f565b60405180910390fd5b60006002600183611cdf9190612daa565b81548110611d16577f4e487b7100000000000000000000000000000000000000000000000000000000600052603260045260246000fd5b906000526020600020906004020190506000611d31856116f0565b9050611d77670de0b6b3a7640000611d696064611d5b858760020154611d8190919063ffffffff16565b611dfc90919063ffffffff16565b611dfc90919063ffffffff16565b9350505050919050565b600080831415611d945760009050611df6565b60008284611da29190612d50565b9050828482611db19190612bae565b14611df1576040517f08c379a0000000000000000000000000000000000000000000000000000000008152600401611de89061298f565b60405180910390fd5b809150505b92915050565b6000611e3e83836040518060400160405280601a81526020017f536166654d6174683a206469766973696f6e206279207a65726f000000000000815250611f4b565b905092915050565b6000808284611e559190612b58565b905083811015611e9a576040517f08c379a0000000000000000000000000000000000000000000000000000000008152600401611e91906128ef565b60405180910390fd5b8091505092915050565b6000611ee683836040518060400160405280601e81526020017f536166654d6174683a207375627472616374696f6e206f766572666c6f770000815250611fae565b905092915050565b600080600183611efe9190612b58565b600a611f0a9190612c32565b85611f159190612d50565b90506000600a60058684611f299190612bae565b611f339190612b58565b611f3d9190612bae565b905080925050509392505050565b60008083118290611f92576040517f08c379a0000000000000000000000000000000000000000000000000000000008152600401611f89919061286d565b60405180910390fd5b5060008385611fa19190612bae565b9050809150509392505050565b6000838311158290611ff6576040517f08c379a0000000000000000000000000000000000000000000000000000000008152600401611fed919061286d565b60405180910390fd5b50600083856120059190612daa565b9050809150509392505050565b600061202561202084612a72565b612a41565b9050808382526020820190508285602086028201111561204457600080fd5b60005b85811015612074578161205a88826120ea565b845260208401935060208301925050600181019050612047565b5050509392505050565b600061209161208c84612a9e565b612a41565b905080838252602082019050828560208602820111156120b057600080fd5b60005b858110156120e057816120c68882612153565b8452602084019350602083019250506001810190506120b3565b5050509392505050565b6000813590506120f981612f41565b92915050565b600082601f83011261211057600080fd5b8135612120848260208601612012565b91505092915050565b600082601f83011261213a57600080fd5b813561214a84826020860161207e565b91505092915050565b60008135905061216281612f58565b92915050565b60006020828403121561217a57600080fd5b6000612188848285016120ea565b91505092915050565b6000806000606084860312156121a657600080fd5b600084013567ffffffffffffffff8111156121c057600080fd5b6121cc868287016120ff565b935050602084013567ffffffffffffffff8111156121e957600080fd5b6121f586828701612129565b925050604061220686828701612153565b9150509250925092565b60006020828403121561222257600080fd5b600061223084828501612153565b91505092915050565b60008060006060848603121561224e57600080fd5b600061225c86828701612153565b935050602061226d86828701612153565b925050604061227e86828701612153565b9150509250925092565b600061229483836122b8565b60208301905092915050565b60006122ac83836127e1565b60208301905092915050565b6122c181612dde565b82525050565b6122d081612dde565b82525050565b60006122e182612aea565b6122eb8185612b25565b93506122f683612aca565b8060005b8381101561232757815161230e8882612288565b975061231983612b0b565b9250506001810190506122fa565b5085935050505092915050565b600061233f82612af5565b6123498185612b36565b935061235483612ada565b8060005b8381101561238557815161236c88826122a0565b975061237783612b18565b925050600181019050612358565b5085935050505092915050565b600061239d82612b00565b6123a78185612b47565b93506123b7818560208601612e1a565b6123c081612f23565b840191505092915050565b60006123d8602b83612b47565b91507f4e6f742066756e6473206465706f736974656420696e20746865207374616b6960008301527f6e6720636f6e74726163740000000000000000000000000000000000000000006020830152604082019050919050565b600061243e602583612b47565b91507f4f6e6c792074686520476c71204465706c6f7965722063616e2041505920726560008301527f77617264730000000000000000000000000000000000000000000000000000006020830152604082019050919050565b60006124a4603183612b47565b91507f4e6f7468696e6720746f20636c61696d2066726f6d207468652045746865726560008301527f756d206e6574776f726b207374616b652e0000000000000000000000000000006020830152604082019050919050565b600061250a601b83612b47565b91507f536166654d6174683a206164646974696f6e206f766572666c6f7700000000006000830152602082019050919050565b600061254a601583612b47565b91507f496e76616c6964207374616b696e6720696e64657800000000000000000000006000830152602082019050919050565b600061258a604283612b47565b91507f4f6e6c792074686520476c71204465706c6f7965722063616e2072656d6f766560008301527f20696e63656e746976652066726f6d2074686520736d6172742d636f6e74726160208301527f63740000000000000000000000000000000000000000000000000000000000006040830152606082019050919050565b6000612616603683612b47565b91507f4f6e6c792074686520476c71204465706c6f7965722063616e206368616e676560008301527f20626c6f636b73207370656e74207065722079656172000000000000000000006020830152604082019050919050565b600061267c602283612b47565b91507f596f75206e65656420746f207374616b65206174206c656173742031304b204760008301527f4c510000000000000000000000000000000000000000000000000000000000006020830152604082019050919050565b60006126e2602183612b47565b91507f536166654d6174683a206d756c7469706c69636174696f6e206f766572666c6f60008301527f77000000000000000000000000000000000000000000000000000000000000006020830152604082019050919050565b6000612748601383612b47565b91507f756e617574686f72697a656420616363657373000000000000000000000000006000830152602082019050919050565b6000612788603e83612b47565b91507f596f7520646f6e74206861766520616e7920746965722072616e6b206375727260008301527f656e746c7920696e20746865205374616b696e6720636f6e74726163742e00006020830152604082019050919050565b6127ea81612e10565b82525050565b6127f981612e10565b82525050565b600060608201905061281460008301866122c7565b61282160208301856127f0565b61282e60408301846127f0565b949350505050565b6000604082019050818103600083015261285081856122d6565b905081810360208301526128648184612334565b90509392505050565b600060208201905081810360008301526128878184612392565b905092915050565b600060208201905081810360008301526128a8816123cb565b9050919050565b600060208201905081810360008301526128c881612431565b9050919050565b600060208201905081810360008301526128e881612497565b9050919050565b60006020820190508181036000830152612908816124fd565b9050919050565b600060208201905081810360008301526129288161253d565b9050919050565b600060208201905081810360008301526129488161257d565b9050919050565b6000602082019050818103600083015261296881612609565b9050919050565b600060208201905081810360008301526129888161266f565b9050919050565b600060208201905081810360008301526129a8816126d5565b9050919050565b600060208201905081810360008301526129c88161273b565b9050919050565b600060208201905081810360008301526129e88161277b565b9050919050565b6000602082019050612a0460008301846127f0565b92915050565b6000606082019050612a1f60008301866127f0565b612a2c60208301856127f0565b612a3960408301846127f0565b949350505050565b6000604051905081810181811067ffffffffffffffff82111715612a6857612a67612ef4565b5b8060405250919050565b600067ffffffffffffffff821115612a8d57612a8c612ef4565b5b602082029050602081019050919050565b600067ffffffffffffffff821115612ab957612ab8612ef4565b5b602082029050602081019050919050565b6000819050602082019050919050565b6000819050602082019050919050565b600081519050919050565b600081519050919050565b600081519050919050565b6000602082019050919050565b6000602082019050919050565b600082825260208201905092915050565b600082825260208201905092915050565b600082825260208201905092915050565b6000612b6382612e10565b9150612b6e83612e10565b9250827fffffffffffffffffffffffffffffffffffffffffffffffffffffffffffffffff03821115612ba357612ba2612e96565b5b828201905092915050565b6000612bb982612e10565b9150612bc483612e10565b925082612bd457612bd3612ec5565b5b828204905092915050565b6000808291508390505b6001851115612c2957808604811115612c0557612c04612e96565b5b6001851615612c145780820291505b8081029050612c2285612f34565b9450612be9565b94509492505050565b6000612c3d82612e10565b9150612c4883612e10565b9250612c757fffffffffffffffffffffffffffffffffffffffffffffffffffffffffffffffff8484612c7d565b905092915050565b600082612c8d5760019050612d49565b81612c9b5760009050612d49565b8160018114612cb15760028114612cbb57612cea565b6001915050612d49565b60ff841115612ccd57612ccc612e96565b5b8360020a915084821115612ce457612ce3612e96565b5b50612d49565b5060208310610133831016604e8410600b8410161715612d1f5782820a905083811115612d1a57612d19612e96565b5b612d49565b612d2c8484846001612bdf565b92509050818404811115612d4357612d42612e96565b5b81810290505b9392505050565b6000612d5b82612e10565b9150612d6683612e10565b9250817fffffffffffffffffffffffffffffffffffffffffffffffffffffffffffffffff0483118215151615612d9f57612d9e612e96565b5b828202905092915050565b6000612db582612e10565b9150612dc083612e10565b925082821015612dd357612dd2612e96565b5b828203905092915050565b6000612de982612df0565b9050919050565b600073ffffffffffffffffffffffffffffffffffffffff82169050919050565b6000819050919050565b60005b83811015612e38578082015181840152602081019050612e1d565b83811115612e47576000848401525b50505050565b6000612e5882612e10565b91507fffffffffffffffffffffffffffffffffffffffffffffffffffffffffffffffff821415612e8b57612e8a612e96565b5b600182019050919050565b7f4e487b7100000000000000000000000000000000000000000000000000000000600052601160045260246000fd5b7f4e487b7100000000000000000000000000000000000000000000000000000000600052601260045260246000fd5b7f4e487b7100000000000000000000000000000000000000000000000000000000600052604160045260246000fd5b6000601f19601f8301169050919050565b60008160011c9050919050565b612f4a81612dde565b8114612f5557600080fd5b50565b612f6181612e10565b8114612f6c57600080fd5b5056fea2646970667358221220c6235282baa7c6dab80303ea1d9e0bbc22d03acad51991fe030d200c5ab00f1964736f6c63430008000033",
  "immutableReferences": {},
  "source": "// SPDX-License-Identifier: MIT\r\n\r\npragma solidity ^0.8.0;\r\n\r\nimport \"./libs/maths/SafeMath.sol\";\r\nimport \"./libs/string.sol\";\r\nimport \"./interfaces/IERC20.sol\";\r\nimport \"./libs/sort.sol\";\r\n\r\nstruct GlqStaker {\r\n    address wallet;\r\n    uint256 block_number;\r\n    uint256 amount;\r\n    uint256 index_at;\r\n}\r\n\r\nstruct GraphLinqApyStruct {\r\n    uint256 tier1Apy;\r\n    uint256 tier2Apy;\r\n    uint256 tier3Apy;      \r\n}\r\n\r\ncontract GlqStakingContract {\r\n\r\n    using SafeMath for uint256;\r\n    using strings for *;\r\n    using QuickSorter for *;\r\n\r\n    event NewStakerRegistered (\r\n        address staker_address,\r\n        uint256 at_block,\r\n        uint256 amount_registered\r\n    );\r\n\r\n    event ReceivedFunds(uint256 amount);\r\n\r\n    /*\r\n    ** Manager of the contract to add/remove APYs bonuses into the staking contract\r\n    */\r\n    address private _glqDeployerManager;\r\n\r\n    /*\r\n    ** Current amount of GLQ available in the pool as rewards\r\n    */\r\n    uint256 private _totalGlqIncentive;\r\n\r\n    GlqStaker[]                     private _stakers;\r\n    uint256                         private _stakersIndex;\r\n    uint256                         private _totalStaked;\r\n    bool                            private _emergencyWithdraw;\r\n\r\n    mapping(address => uint256)     private _indexStaker;\r\n    uint256                         private _blocksPerYear;\r\n    GraphLinqApyStruct              private _apyStruct;\r\n    uint256                         private _removed_elems;\r\n    mapping(address => uint256)     private _migrationClaim;\r\n    mapping(address => bool)        private _withdrawed;\r\n    uint256                         private _indexWithdrawed;\r\n\r\n\r\n    constructor(address manager) {\r\n        _glqDeployerManager = manager;\r\n\r\n        _totalStaked = 0;\r\n        _stakersIndex = 1;\r\n        \r\n        _blocksPerYear = 2102400;\r\n        \r\n        // default t1: 30%, t2: 15%, t3: 7.5%\r\n        _apyStruct = GraphLinqApyStruct(35*1e18, 15*1e18, 8*1e18);\r\n    }\r\n \r\n    // new add incentive\r\n    receive() external payable {\r\n        emit ReceivedFunds(msg.value);\r\n        _totalGlqIncentive += msg.value;\r\n    }\r\n\r\n    /*\r\n    ** Setting GLQ claimable from ETH side\r\n    */\r\n    function setClaimMigration(address[] memory addresses, uint256[] memory amounts, uint256 len) public {\r\n        require(address(msg.sender) == _glqDeployerManager, \"unauthorized access\");\r\n         for (uint i = 0; i < len; i++) {\r\n            _migrationClaim[addresses[i]] = amounts[i];\r\n         }\r\n    }\r\n\r\n    /*\r\n    ** Claim your GLQ from the chain migration\r\n    */\r\n    function claimFromMigration() public {\r\n        address payable sender = payable(msg.sender);\r\n        require(_migrationClaim[sender] > 0, \"Nothing to claim from the Ethereum network stake.\");\r\n\r\n        uint256 amount = _migrationClaim[sender];\r\n        _migrationClaim[sender] = 0;\r\n        sender.transfer(amount);\r\n    }   \r\n\r\n    /*\r\n    ** Return how much is claimable from the ETH Migration\r\n    */\r\n    function getClaimFromMigration(address wallet) public view returns(uint256) {\r\n        return _migrationClaim[wallet];\r\n    }\r\n\r\n    /* Getter ---- Read-Only */\r\n\r\n    /*\r\n    ** Return the sender wallet position from the tier system\r\n    */\r\n    function getWalletCurrentTier(address wallet) public view returns (uint256) {\r\n        uint256 currentTier = 3;\r\n        uint256 index = _indexStaker[wallet];\r\n        require(\r\n            index != 0,\r\n            \"You dont have any tier rank currently in the Staking contract.\"\r\n        );\r\n        if (_withdrawed[wallet]) {\r\n            return currentTier;\r\n        }\r\n\r\n        uint256 walletAggregatedIndex = (index).mul(1e18);\r\n        uint256 len = _stakers.length - _indexWithdrawed;\r\n\r\n        // Total length of stakers\r\n        uint256 totalIndex = len.mul(1e18);\r\n        // 15% of hodlers in T1 \r\n        uint256 t1MaxIndex = totalIndex.div(100).mul(15);\r\n        // 55% of hodlers in T2\r\n        uint256 t2MaxIndex = totalIndex.div(100).mul(55);\r\n\r\n        if (walletAggregatedIndex <= t1MaxIndex) {\r\n            currentTier = 1;\r\n        } else if (walletAggregatedIndex > t1MaxIndex && walletAggregatedIndex <= t2MaxIndex) {\r\n            currentTier = 2;\r\n        }\r\n\r\n        return currentTier;\r\n    }\r\n\r\n    /*\r\n    ** Return rank position of a wallet\r\n    */\r\n    function getPosition(address wallet) public view returns (uint256) {\r\n         uint256 index = _indexStaker[wallet];\r\n         if (_withdrawed[wallet]) { \r\n            return _stakers.length;\r\n         }\r\n         return index;\r\n    }\r\n\r\n    /*\r\n    ** Return the amount of GLQ that a wallet can currently claim from the staking contract\r\n    */\r\n    function getGlqToClaim(address wallet) public view returns(uint256) {\r\n        uint256 index = _indexStaker[wallet];\r\n        require (index > 0, \"Invalid staking index\");\r\n        GlqStaker storage staker = _stakers[index - 1];\r\n\r\n        uint256 calculatedApr = getWaitingPercentAPR(wallet);\r\n        return staker.amount.mul(calculatedApr).div(100).div(1e18);\r\n    }\r\n\r\n    /*\r\n    ** Return the current percent winnable for a staker wallet\r\n    */\r\n    function getWaitingPercentAPR(address wallet) public view returns(uint256) {\r\n        uint256 index = _indexStaker[wallet];\r\n        require (index > 0, \"Invalid staking index\");\r\n        GlqStaker storage staker = _stakers[index - 1];\r\n\r\n        uint256 walletTier = getWalletCurrentTier(wallet);\r\n        uint256 blocksSpent = block.number.sub(staker.block_number);\r\n        if (blocksSpent == 0) { return 0; }\r\n        uint256 percentYearSpent = percent(blocksSpent.mul(10000), _blocksPerYear.mul(10000), 20);\r\n\r\n        uint256 percentAprGlq = _apyStruct.tier3Apy;\r\n        if (walletTier == 1) {\r\n            percentAprGlq = _apyStruct.tier1Apy;\r\n        } else if (walletTier == 2) {\r\n            percentAprGlq = _apyStruct.tier2Apy;\r\n        }\r\n\r\n        return percentAprGlq.mul(percentYearSpent).div(100).div(1e18);\r\n    }\r\n\r\n    /*\r\n    ** Return the total amount of GLQ as incentive rewards in the contract\r\n    */\r\n    function getTotalIncentive() public view returns (uint256) {\r\n        return _totalGlqIncentive;\r\n    }\r\n\r\n    /*\r\n    ** Return the total amount in staking for an hodler.\r\n    */\r\n    function getDepositedGLQ(address wallet) public view returns (uint256) {\r\n        uint256 index = _indexStaker[wallet];\r\n        if (index == 0) { return 0; }\r\n        return _stakers[index-1].amount;\r\n    }\r\n\r\n    /*\r\n    ** Count the total numbers of stakers in the contract\r\n    */\r\n    function getTotalStakers() public view returns(uint256) {\r\n        return _stakers.length;\r\n    }\r\n\r\n    /*\r\n    ** Return all APY per different Tier\r\n    */\r\n    function getTiersAPY() public view returns(uint256, uint256, uint256) {\r\n        return (_apyStruct.tier1Apy, _apyStruct.tier2Apy, _apyStruct.tier3Apy);\r\n    }\r\n\r\n    /*\r\n    ** Return the Total staked amount\r\n    */\r\n    function getTotalStaked() public view returns(uint256) {\r\n        return _totalStaked;\r\n    }\r\n\r\n    /*\r\n    ** Return the top 3 of stakers (by age)\r\n    */\r\n    function getTopStakers() public view returns(address[] memory, uint256[] memory) {\r\n        uint256 len = _stakers.length;\r\n        address[] memory addresses = new address[](3);\r\n        uint256[] memory amounts = new uint256[](3);\r\n        uint256 found = 0;\r\n\r\n        for (uint i = 0; i < len && found <= 2; i++) {\r\n            if (_stakers[i].amount != 0) {\r\n                addresses[i] = _stakers[i].wallet;\r\n                amounts[i] = _stakers[i].amount;\r\n                found++;\r\n            }\r\n        }\r\n\r\n        return (addresses, amounts);\r\n    }\r\n\r\n    /*\r\n    ** Return the total amount deposited on a rank tier\r\n    */\r\n    function getTierTotalStaked(uint tier) public view returns (uint256) {\r\n        uint256 totalAmount = 0;\r\n\r\n        // Total length of stakers\r\n        uint256 totalIndex = _stakers.length.mul(1e18);\r\n        // 15% of hodlers in T1 \r\n        uint256 t1MaxIndex = totalIndex.div(100).mul(15);\r\n        // 55% of hodlers in T2\r\n        uint256 t2MaxIndex = totalIndex.div(100).mul(55);\r\n\r\n        uint startIndex = (tier == 1) ? 0 : t1MaxIndex.div(1e18);\r\n        uint endIndex = (tier == 1) ? t1MaxIndex.div(1e18) : t2MaxIndex.div(1e18);\r\n        \r\n        if (tier == 3) {\r\n            startIndex = t2MaxIndex.div(1e18);\r\n            endIndex = _stakers.length;\r\n        }\r\n\r\n        for (uint i = startIndex; i <= endIndex && i < _stakers.length; i++) {\r\n            totalAmount +=  _stakers[i].amount;\r\n        }\r\n      \r\n        return totalAmount;\r\n    }\r\n\r\n    /* Getter ---- Read-Only */\r\n\r\n\r\n    /* Setter - Read & Modifications */\r\n\r\n\r\n    /*\r\n    ** Set numbers of blocks spent per year to calculate claim rewards\r\n    */\r\n    function setBlocksPerYear(uint256 blocks) public {\r\n        require(\r\n            msg.sender == _glqDeployerManager,\r\n            \"Only the Glq Deployer can change blocks spent per year\");\r\n        _blocksPerYear = blocks;\r\n    }\r\n\r\n    /*\r\n    ** Update the APY rewards for each tier in percent per year\r\n    */\r\n    function setApyPercentRewards(uint256 t1, uint256 t2, uint256 t3) public {\r\n        require(\r\n            msg.sender == _glqDeployerManager,\r\n            \"Only the Glq Deployer can APY rewards\");\r\n        GraphLinqApyStruct memory newApy = GraphLinqApyStruct(t1, t2, t3);\r\n        _apyStruct = newApy;\r\n    }\r\n\r\n\r\n    /*\r\n    ** Remove GLQ liquidity from the staking contract for stakers rewards \r\n    */\r\n    function removeIncentive(uint256 glqAmount) public {\r\n        address payable deployer = payable(_glqDeployerManager);\r\n        require(\r\n            msg.sender == _glqDeployerManager,\r\n            \"Only the Glq Deployer can remove incentive from the smart-contract\");\r\n        deployer.transfer(glqAmount);\r\n    }\r\n\r\n    /*\r\n    ** Deposit GLQ in the staking contract to stake & earn\r\n    */\r\n    function depositGlq() public payable {\r\n        require (msg.value >= 10000*1e18, \"You need to stake at least 10K GLQ\");\r\n        uint256 index = _indexStaker[msg.sender];\r\n        _totalStaked += msg.value;\r\n\r\n        if (index == 0) {\r\n            GlqStaker memory staker = GlqStaker(msg.sender, block.number, msg.value, _stakersIndex);\r\n            _stakers.push(staker);\r\n            _indexStaker[msg.sender] = _stakersIndex;\r\n\r\n            // emit event of a new staker registered at current block position\r\n            emit NewStakerRegistered(msg.sender, block.number, msg.value);\r\n            _stakersIndex = _stakersIndex.add(1);\r\n            \r\n        }\r\n        else {\r\n            // claim rewards before adding new staking amount\r\n            if (_stakers[index-1].amount > 0) {\r\n                claimGlq();\r\n            }\r\n\r\n            _stakers[index-1].block_number = block.number;\r\n            _stakers[index-1].amount += msg.value;\r\n        }\r\n    }\r\n\r\n    /*\r\n    ** Withdraw Glq from the staking contract\r\n    */\r\n    function withdrawGlq() public {\r\n        uint256 index = _indexStaker[msg.sender];\r\n        address payable src = payable(msg.sender);\r\n        require (index > 0, \"Invalid staking index\");\r\n        GlqStaker storage staker = _stakers[index - 1];\r\n        require(\r\n            staker.amount > 0,\r\n         \"Not funds deposited in the staking contract\");\r\n    \r\n        //auto claim when withdraw\r\n        claimGlq();\r\n        \r\n        _stakers[index-1].block_number = block.number;\r\n        _totalStaked -= staker.amount;\r\n\r\n        uint256 amount = staker.amount;\r\n        \r\n        staker.amount = 0;\r\n        staker.index_at = 0;\r\n        src.transfer(amount);\r\n        \r\n        if (!_withdrawed[msg.sender]) {\r\n            _withdrawed[msg.sender] = true;\r\n            _indexWithdrawed += 1;\r\n        }\r\n    }\r\n\r\n    function percent(uint256 numerator, uint256 denominator, uint256 precision) private pure returns(uint256) {\r\n        uint256 _numerator  = numerator * 10 ** (precision+1);\r\n        // with rounding of last digit\r\n        uint256 _quotient =  ((_numerator / denominator) + 5) / 10;\r\n        return ( _quotient);\r\n    }\r\n\r\n    /*\r\n    ** Claim waiting rewards from the staking contract\r\n    */\r\n    function claimGlq() public returns(uint256) {\r\n        uint256 index = _indexStaker[msg.sender];\r\n        GlqStaker storage staker = _stakers[index - 1];\r\n        address payable sender = payable(msg.sender);\r\n        require (index > 0, \"Invalid staking index\");\r\n\r\n        uint256 glqToClaim = getGlqToClaim(msg.sender);\r\n        if (glqToClaim == 0) { return 0; }\r\n\r\n        staker.block_number = block.number;\r\n        sender.transfer(glqToClaim);\r\n        return (glqToClaim);\r\n    }\r\n\r\n    /* Setter - Read & Modifications */\r\n\r\n}",
  "sourcePath": "E:\\eth\\graphlinq\\GraphLinq.Engine\\GraphLinq.StakingContract\\contracts\\GlqStakingContract.sol",
  "compiler": {
    "name": "solc",
    "version": "0.8.0+commit.c7dfd78e.Emscripten.clang"
  },
  "schemaVersion": "3.4.11",
  "updatedAt": "2023-02-17T02:11:57.444Z",
  "networkType": "ethereum",
  "devdoc": {
    "kind": "dev",
    "methods": {},
    "version": 1
  },
  "userdoc": {
    "kind": "user",
    "methods": {},
    "version": 1
  }
}