{
  "contractName": "GlqStakingContract",
  "abi": [
    {
      "inputs": [
        {
          "internalType": "address",
          "name": "manager",
          "type": "address"
        }
      ],
      "stateMutability": "nonpayable",
      "type": "constructor"
    },
    {
      "anonymous": false,
      "inputs": [
        {
          "indexed": false,
          "internalType": "address",
          "name": "staker_address",
          "type": "address"
        },
        {
          "indexed": false,
          "internalType": "uint256",
          "name": "at_block",
          "type": "uint256"
        },
        {
          "indexed": false,
          "internalType": "uint256",
          "name": "amount_registered",
          "type": "uint256"
        }
      ],
      "name": "NewStakerRegistered",
      "type": "event"
    },
    {
      "anonymous": false,
      "inputs": [
        {
          "indexed": false,
          "internalType": "uint256",
          "name": "amount",
          "type": "uint256"
        }
      ],
      "name": "ReceivedFunds",
      "type": "event"
    },
    {
      "inputs": [],
      "name": "_indexWithdrawed",
      "outputs": [
        {
          "internalType": "uint256",
          "name": "",
          "type": "uint256"
        }
      ],
      "stateMutability": "view",
      "type": "function",
      "constant": true
    },
    {
      "inputs": [
        {
          "internalType": "uint256",
          "name": "",
          "type": "uint256"
        }
      ],
      "name": "_stakers",
      "outputs": [
        {
          "internalType": "address",
          "name": "wallet",
          "type": "address"
        },
        {
          "internalType": "uint256",
          "name": "block_number",
          "type": "uint256"
        },
        {
          "internalType": "uint256",
          "name": "amount",
          "type": "uint256"
        },
        {
          "internalType": "uint256",
          "name": "index_at",
          "type": "uint256"
        }
      ],
      "stateMutability": "view",
      "type": "function",
      "constant": true
    },
    {
      "stateMutability": "payable",
      "type": "receive",
      "payable": true
    },
    {
      "inputs": [
        {
          "internalType": "uint256",
          "name": "indexWithdrawed",
          "type": "uint256"
        }
      ],
      "name": "setIndexWithdrawed",
      "outputs": [],
      "stateMutability": "nonpayable",
      "type": "function"
    },
    {
      "inputs": [
        {
          "components": [
            {
              "internalType": "address",
              "name": "wallet",
              "type": "address"
            },
            {
              "internalType": "uint256",
              "name": "block_number",
              "type": "uint256"
            },
            {
              "internalType": "uint256",
              "name": "amount",
              "type": "uint256"
            },
            {
              "internalType": "uint256",
              "name": "index_at",
              "type": "uint256"
            }
          ],
          "internalType": "struct GlqStaker[]",
          "name": "stakers",
          "type": "tuple[]"
        },
        {
          "internalType": "uint256",
          "name": "offset",
          "type": "uint256"
        }
      ],
      "name": "setMigrationStaker",
      "outputs": [],
      "stateMutability": "nonpayable",
      "type": "function"
    },
    {
      "inputs": [
        {
          "internalType": "address[]",
          "name": "addresses",
          "type": "address[]"
        },
        {
          "internalType": "uint256[]",
          "name": "amounts",
          "type": "uint256[]"
        },
        {
          "internalType": "uint256",
          "name": "len",
          "type": "uint256"
        }
      ],
      "name": "setClaimMigration",
      "outputs": [],
      "stateMutability": "nonpayable",
      "type": "function"
    },
    {
      "inputs": [],
      "name": "claimFromMigration",
      "outputs": [],
      "stateMutability": "nonpayable",
      "type": "function"
    },
    {
      "inputs": [
        {
          "internalType": "address",
          "name": "wallet",
          "type": "address"
        }
      ],
      "name": "getClaimFromMigration",
      "outputs": [
        {
          "internalType": "uint256",
          "name": "",
          "type": "uint256"
        }
      ],
      "stateMutability": "view",
      "type": "function",
      "constant": true
    },
    {
      "inputs": [
        {
          "internalType": "address",
          "name": "wallet",
          "type": "address"
        }
      ],
      "name": "getStaker",
      "outputs": [
        {
          "components": [
            {
              "internalType": "address",
              "name": "wallet",
              "type": "address"
            },
            {
              "internalType": "uint256",
              "name": "block_number",
              "type": "uint256"
            },
            {
              "internalType": "uint256",
              "name": "amount",
              "type": "uint256"
            },
            {
              "internalType": "uint256",
              "name": "index_at",
              "type": "uint256"
            }
          ],
          "internalType": "struct GlqStaker",
          "name": "",
          "type": "tuple"
        }
      ],
      "stateMutability": "view",
      "type": "function",
      "constant": true
    },
    {
      "inputs": [
        {
          "internalType": "address",
          "name": "wallet",
          "type": "address"
        }
      ],
      "name": "getWalletCurrentTier",
      "outputs": [
        {
          "internalType": "uint256",
          "name": "",
          "type": "uint256"
        }
      ],
      "stateMutability": "view",
      "type": "function",
      "constant": true
    },
    {
      "inputs": [
        {
          "internalType": "address",
          "name": "wallet",
          "type": "address"
        }
      ],
      "name": "getPosition",
      "outputs": [
        {
          "internalType": "uint256",
          "name": "",
          "type": "uint256"
        }
      ],
      "stateMutability": "view",
      "type": "function",
      "constant": true
    },
    {
      "inputs": [
        {
          "internalType": "address",
          "name": "wallet",
          "type": "address"
        }
      ],
      "name": "getGlqToClaim",
      "outputs": [
        {
          "internalType": "uint256",
          "name": "",
          "type": "uint256"
        }
      ],
      "stateMutability": "view",
      "type": "function",
      "constant": true
    },
    {
      "inputs": [
        {
          "internalType": "address",
          "name": "wallet",
          "type": "address"
        }
      ],
      "name": "getWaitingPercentAPR",
      "outputs": [
        {
          "internalType": "uint256",
          "name": "",
          "type": "uint256"
        }
      ],
      "stateMutability": "view",
      "type": "function",
      "constant": true
    },
    {
      "inputs": [],
      "name": "getTotalIncentive",
      "outputs": [
        {
          "internalType": "uint256",
          "name": "",
          "type": "uint256"
        }
      ],
      "stateMutability": "view",
      "type": "function",
      "constant": true
    },
    {
      "inputs": [
        {
          "internalType": "address",
          "name": "wallet",
          "type": "address"
        }
      ],
      "name": "getDepositedGLQ",
      "outputs": [
        {
          "internalType": "uint256",
          "name": "",
          "type": "uint256"
        }
      ],
      "stateMutability": "view",
      "type": "function",
      "constant": true
    },
    {
      "inputs": [],
      "name": "getTotalStakers",
      "outputs": [
        {
          "internalType": "uint256",
          "name": "",
          "type": "uint256"
        }
      ],
      "stateMutability": "view",
      "type": "function",
      "constant": true
    },
    {
      "inputs": [],
      "name": "getTiersAPY",
      "outputs": [
        {
          "internalType": "uint256",
          "name": "",
          "type": "uint256"
        },
        {
          "internalType": "uint256",
          "name": "",
          "type": "uint256"
        },
        {
          "internalType": "uint256",
          "name": "",
          "type": "uint256"
        }
      ],
      "stateMutability": "view",
      "type": "function",
      "constant": true
    },
    {
      "inputs": [],
      "name": "getTotalStaked",
      "outputs": [
        {
          "internalType": "uint256",
          "name": "",
          "type": "uint256"
        }
      ],
      "stateMutability": "view",
      "type": "function",
      "constant": true
    },
    {
      "inputs": [],
      "name": "getTopStakers",
      "outputs": [
        {
          "internalType": "address[]",
          "name": "",
          "type": "address[]"
        },
        {
          "internalType": "uint256[]",
          "name": "",
          "type": "uint256[]"
        }
      ],
      "stateMutability": "view",
      "type": "function",
      "constant": true
    },
    {
      "inputs": [
        {
          "internalType": "uint256",
          "name": "tier",
          "type": "uint256"
        }
      ],
      "name": "getTierTotalStaked",
      "outputs": [
        {
          "internalType": "uint256",
          "name": "",
          "type": "uint256"
        }
      ],
      "stateMutability": "view",
      "type": "function",
      "constant": true
    },
    {
      "inputs": [
        {
          "internalType": "uint256",
          "name": "blocks",
          "type": "uint256"
        }
      ],
      "name": "setBlocksPerYear",
      "outputs": [],
      "stateMutability": "nonpayable",
      "type": "function"
    },
    {
      "inputs": [
        {
          "internalType": "uint256",
          "name": "t1",
          "type": "uint256"
        },
        {
          "internalType": "uint256",
          "name": "t2",
          "type": "uint256"
        },
        {
          "internalType": "uint256",
          "name": "t3",
          "type": "uint256"
        }
      ],
      "name": "setApyPercentRewards",
      "outputs": [],
      "stateMutability": "nonpayable",
      "type": "function"
    },
    {
      "inputs": [
        {
          "internalType": "uint256",
          "name": "glqAmount",
          "type": "uint256"
        }
      ],
      "name": "removeIncentive",
      "outputs": [],
      "stateMutability": "nonpayable",
      "type": "function"
    },
    {
      "inputs": [],
      "name": "depositGlq",
      "outputs": [],
      "stateMutability": "payable",
      "type": "function",
      "payable": true
    },
    {
      "inputs": [],
      "name": "withdrawGlq",
      "outputs": [],
      "stateMutability": "nonpayable",
      "type": "function"
    },
    {
      "inputs": [],
      "name": "claimGlq",
      "outputs": [
        {
          "internalType": "uint256",
          "name": "",
          "type": "uint256"
        }
      ],
      "stateMutability": "nonpayable",
      "type": "function"
    }
  ],
  "bytecode": "0x60806040523480156200001157600080fd5b50604051620039ad380380620039ad833981810160405281019062000037919062000106565b806000806101000a81548173ffffffffffffffffffffffffffffffffffffffff021916908373ffffffffffffffffffffffffffffffffffffffff160217905550600060048190555060016003819055506220148060068190555060405180606001604052806801e5b8fa8fe2ac0000815260200167d02ab486cedc00008152602001676f05b59d3b20000081525060076000820151816000015560208201518160010155604082015181600201559050505062000180565b600081519050620001008162000166565b92915050565b6000602082840312156200011957600080fd5b60006200012984828501620000ef565b91505092915050565b60006200013f8262000146565b9050919050565b600073ffffffffffffffffffffffffffffffffffffffff82169050919050565b620001718162000132565b81146200017d57600080fd5b50565b61381d80620001906000396000f3fe6080604052600436106101695760003560e01c806344a24f99116100d1578063ceeada951161008a578063d7ba276b11610064578063d7ba276b146105a3578063e050b2e2146105ce578063e5fa2b70146105e5578063f2190dce1461060e576101c0565b8063ceeada9514610533578063d28cef3f1461053d578063d48e85b414610566576101c0565b806344a24f991461042057806370bb9a251461043757806379e5917014610463578063a23c44b11461048c578063b2f183a6146104c9578063c88f4a9514610506576101c0565b806319962aea1161012357806319962aea146102f9578063220e07261461033657806326a5d14d1461036157806331ed0db41461038c5780633afac6b8146103b75780633e556494146103e0576101c0565b80625c9399146101c557806304e21762146101ee5780630917e7761461022b57806310ae4e991461025657806312362cab1461027f57806316c19739146102bc576101c0565b366101c0577f5e7b5f7f93e42781a9409de40a40b733d65d7a883d83e26ae6bbb925cfede8bb3460405161019d919061323b565b60405180910390a134600160008282546101b791906133d0565b92505081905550005b600080fd5b3480156101d157600080fd5b506101ec60048036038101906101e791906129a7565b61064b565b005b3480156101fa57600080fd5b50610215600480360381019061021091906128ab565b6106e3565b604051610222919061323b565b60405180910390f35b34801561023757600080fd5b50610240610947565b60405161024d919061323b565b60405180910390f35b34801561026257600080fd5b5061027d600480360381019061027891906129d0565b610951565b005b34801561028b57600080fd5b506102a660048036038101906102a191906128ab565b610a28565b6040516102b3919061323b565b60405180910390f35b3480156102c857600080fd5b506102e360048036038101906102de91906128ab565b610a71565b6040516102f0919061323b565b60405180910390f35b34801561030557600080fd5b50610320600480360381019061031b91906129a7565b610bb4565b60405161032d919061323b565b60405180910390f35b34801561034257600080fd5b5061034b610d75565b604051610358919061323b565b60405180910390f35b34801561036d57600080fd5b50610376610ed8565b604051610383919061323b565b60405180910390f35b34801561039857600080fd5b506103a1610ede565b6040516103ae919061323b565b60405180910390f35b3480156103c357600080fd5b506103de60048036038101906103d99190612953565b610eeb565b005b3480156103ec57600080fd5b50610407600480360381019061040291906129a7565b6110f6565b6040516104179493929190613022565b60405180910390f35b34801561042c57600080fd5b50610435611156565b005b34801561044357600080fd5b5061044c6112b1565b60405161045a929190613067565b60405180910390f35b34801561046f57600080fd5b5061048a600480360381019061048591906129a7565b6115b3565b005b34801561049857600080fd5b506104b360048036038101906104ae91906128ab565b6116b2565b6040516104c09190613220565b60405180910390f35b3480156104d557600080fd5b506104f060048036038101906104eb91906128ab565b6117d9565b6040516104fd919061323b565b60405180910390f35b34801561051257600080fd5b5061051b611892565b60405161052a93929190613256565b60405180910390f35b61053b6118b4565b005b34801561054957600080fd5b50610564600480360381019061055f91906128d4565b611c12565b005b34801561057257600080fd5b5061058d600480360381019061058891906128ab565b611d88565b60405161059a919061323b565b60405180910390f35b3480156105af57600080fd5b506105b8611f61565b6040516105c5919061323b565b60405180910390f35b3480156105da57600080fd5b506105e3611f6b565b005b3480156105f157600080fd5b5061060c600480360381019061060791906129a7565b6121a9565b005b34801561061a57600080fd5b50610635600480360381019061063091906128ab565b612241565b604051610642919061323b565b60405180910390f35b60008054906101000a900473ffffffffffffffffffffffffffffffffffffffff1673ffffffffffffffffffffffffffffffffffffffff163373ffffffffffffffffffffffffffffffffffffffff16146106d9576040517f08c379a00000000000000000000000000000000000000000000000000000000081526004016106d0906131e0565b60405180910390fd5b80600b8190555050565b600080600390506000600560008573ffffffffffffffffffffffffffffffffffffffff1673ffffffffffffffffffffffffffffffffffffffff1681526020019081526020016000205490506000811415610772576040517f08c379a000000000000000000000000000000000000000000000000000000000815260040161076990613200565b60405180910390fd5b600060026001836107839190613622565b815481106107ba577f4e487b7100000000000000000000000000000000000000000000000000000000600052603260045260246000fd5b90600052602060002090600402016040518060800160405290816000820160009054906101000a900473ffffffffffffffffffffffffffffffffffffffff1673ffffffffffffffffffffffffffffffffffffffff1673ffffffffffffffffffffffffffffffffffffffff1681526020016001820154815260200160028201548152602001600382015481525050905060008160600151141561086157829350505050610942565b600061087e670de0b6b3a76400008461237c90919063ffffffff16565b90506000600b5460028054905061089591906133d0565b905060006108b4670de0b6b3a76400008361237c90919063ffffffff16565b905060006108df600f6108d16064856123f790919063ffffffff16565b61237c90919063ffffffff16565b9050600061090a60376108fc6064866123f790919063ffffffff16565b61237c90919063ffffffff16565b905081851161091c5760019750610936565b818511801561092b5750808511155b1561093557600297505b5b87985050505050505050505b919050565b6000600454905090565b60008054906101000a900473ffffffffffffffffffffffffffffffffffffffff1673ffffffffffffffffffffffffffffffffffffffff163373ffffffffffffffffffffffffffffffffffffffff16146109df576040517f08c379a00000000000000000000000000000000000000000000000000000000081526004016109d6906130e0565b60405180910390fd5b6000604051806060016040528085815260200184815260200183815250905080600760008201518160000155602082015181600101556040820151816002015590505050505050565b6000600a60008373ffffffffffffffffffffffffffffffffffffffff1673ffffffffffffffffffffffffffffffffffffffff168152602001908152602001600020549050919050565b600080600560008473ffffffffffffffffffffffffffffffffffffffff1673ffffffffffffffffffffffffffffffffffffffff16815260200190815260200160002054905060006002600183610ac79190613622565b81548110610afe577f4e487b7100000000000000000000000000000000000000000000000000000000600052603260045260246000fd5b90600052602060002090600402016040518060800160405290816000820160009054906101000a900473ffffffffffffffffffffffffffffffffffffffff1673ffffffffffffffffffffffffffffffffffffffff1673ffffffffffffffffffffffffffffffffffffffff16815260200160018201548152602001600282015481526020016003820154815250509050600081606001511415610ba95760028054905092505050610baf565b81925050505b919050565b600080600090506000610bdd670de0b6b3a764000060028054905061237c90919063ffffffff16565b90506000610c08600f610bfa6064856123f790919063ffffffff16565b61237c90919063ffffffff16565b90506000610c336037610c256064866123f790919063ffffffff16565b61237c90919063ffffffff16565b9050600060018714610c5f57610c5a670de0b6b3a7640000846123f790919063ffffffff16565b610c62565b60005b9050600060018814610c8e57610c89670de0b6b3a7640000846123f790919063ffffffff16565b610caa565b610ca9670de0b6b3a7640000856123f790919063ffffffff16565b5b90506003881415610cdb57610cd0670de0b6b3a7640000846123f790919063ffffffff16565b915060028054905090505b60008290505b818111158015610cf5575060028054905081105b15610d665760028181548110610d34577f4e487b7100000000000000000000000000000000000000000000000000000000600052603260045260246000fd5b90600052602060002090600402016002015487610d5191906133d0565b96508080610d5e906136c5565b915050610ce1565b50859650505050505050919050565b600080600560003373ffffffffffffffffffffffffffffffffffffffff1673ffffffffffffffffffffffffffffffffffffffff16815260200190815260200160002054905060006002600183610dcb9190613622565b81548110610e02577f4e487b7100000000000000000000000000000000000000000000000000000000600052603260045260246000fd5b90600052602060002090600402019050600033905060008311610e5a576040517f08c379a0000000000000000000000000000000000000000000000000000000008152600401610e5190613140565b60405180910390fd5b6000610e6533612241565b90506000811415610e7d576000945050505050610ed5565b4383600101819055508173ffffffffffffffffffffffffffffffffffffffff166108fc829081150290604051600060405180830381858888f19350505050158015610ecc573d6000803e3d6000fd5b50809450505050505b90565b600b5481565b6000600280549050905090565b60005b82518110156110de576002838281518110610f32577f4e487b7100000000000000000000000000000000000000000000000000000000600052603260045260246000fd5b6020026020010151908060018154018082558091505060019003906000526020600020906004020160009091909190915060008201518160000160006101000a81548173ffffffffffffffffffffffffffffffffffffffff021916908373ffffffffffffffffffffffffffffffffffffffff1602179055506020820151816001015560408201518160020155606082015181600301555050600182610fd791906133d0565b60056000858481518110611014577f4e487b7100000000000000000000000000000000000000000000000000000000600052603260045260246000fd5b60200260200101516000015173ffffffffffffffffffffffffffffffffffffffff1673ffffffffffffffffffffffffffffffffffffffff168152602001908152602001600020819055506110b783828151811061109a577f4e487b7100000000000000000000000000000000000000000000000000000000600052603260045260246000fd5b60200260200101516040015160045461244190919063ffffffff16565b60048190555081806110c8906136c5565b92505080806110d6906136c5565b915050610eee565b506001816110ec91906133d0565b6003819055505050565b6002818154811061110657600080fd5b90600052602060002090600402016000915090508060000160009054906101000a900473ffffffffffffffffffffffffffffffffffffffff16908060010154908060020154908060030154905084565b60003390506000600a60008373ffffffffffffffffffffffffffffffffffffffff1673ffffffffffffffffffffffffffffffffffffffff16815260200190815260200160002054116111dd576040517f08c379a00000000000000000000000000000000000000000000000000000000081526004016111d490613100565b60405180910390fd5b6000600a60008373ffffffffffffffffffffffffffffffffffffffff1673ffffffffffffffffffffffffffffffffffffffff1681526020019081526020016000205490506000600a60008473ffffffffffffffffffffffffffffffffffffffff1673ffffffffffffffffffffffffffffffffffffffff168152602001908152602001600020819055508173ffffffffffffffffffffffffffffffffffffffff166108fc829081150290604051600060405180830381858888f193505050501580156112ac573d6000803e3d6000fd5b505050565b606080600060028054905090506000600367ffffffffffffffff811115611301577f4e487b7100000000000000000000000000000000000000000000000000000000600052604160045260246000fd5b60405190808252806020026020018201604052801561132f5781602001602082028036833780820191505090505b5090506000600367ffffffffffffffff811115611375577f4e487b7100000000000000000000000000000000000000000000000000000000600052604160045260246000fd5b6040519080825280602002602001820160405280156113a35781602001602082028036833780820191505090505b5090506000805b84811080156113ba575060028211155b156115a4576000600282815481106113fb577f4e487b7100000000000000000000000000000000000000000000000000000000600052603260045260246000fd5b90600052602060002090600402016002015414611591576002818154811061144c577f4e487b7100000000000000000000000000000000000000000000000000000000600052603260045260246000fd5b906000526020600020906004020160000160009054906101000a900473ffffffffffffffffffffffffffffffffffffffff168482815181106114b7577f4e487b7100000000000000000000000000000000000000000000000000000000600052603260045260246000fd5b602002602001019073ffffffffffffffffffffffffffffffffffffffff16908173ffffffffffffffffffffffffffffffffffffffff16815250506002818154811061152b577f4e487b7100000000000000000000000000000000000000000000000000000000600052603260045260246000fd5b906000526020600020906004020160020154838281518110611576577f4e487b7100000000000000000000000000000000000000000000000000000000600052603260045260246000fd5b602002602001018181525050818061158d906136c5565b9250505b808061159c906136c5565b9150506113aa565b50828295509550505050509091565b60008060009054906101000a900473ffffffffffffffffffffffffffffffffffffffff16905060008054906101000a900473ffffffffffffffffffffffffffffffffffffffff1673ffffffffffffffffffffffffffffffffffffffff163373ffffffffffffffffffffffffffffffffffffffff1614611667576040517f08c379a000000000000000000000000000000000000000000000000000000000815260040161165e90613160565b60405180910390fd5b8073ffffffffffffffffffffffffffffffffffffffff166108fc839081150290604051600060405180830381858888f193505050501580156116ad573d6000803e3d6000fd5b505050565b6116ba61260d565b6000600560008473ffffffffffffffffffffffffffffffffffffffff1673ffffffffffffffffffffffffffffffffffffffff168152602001908152602001600020549050600260018261170d9190613622565b81548110611744577f4e487b7100000000000000000000000000000000000000000000000000000000600052603260045260246000fd5b90600052602060002090600402016040518060800160405290816000820160009054906101000a900473ffffffffffffffffffffffffffffffffffffffff1673ffffffffffffffffffffffffffffffffffffffff1673ffffffffffffffffffffffffffffffffffffffff1681526020016001820154815260200160028201548152602001600382015481525050915050919050565b600080600560008473ffffffffffffffffffffffffffffffffffffffff1673ffffffffffffffffffffffffffffffffffffffff168152602001908152602001600020549050600081141561183157600091505061188d565b60026001826118409190613622565b81548110611877577f4e487b7100000000000000000000000000000000000000000000000000000000600052603260045260246000fd5b9060005260206000209060040201600201549150505b919050565b6000806000600760000154600760010154600760020154925092509250909192565b69021e19e0c9bab2400000341015611901576040517f08c379a00000000000000000000000000000000000000000000000000000000081526004016118f8906131a0565b60405180910390fd5b6000600560003373ffffffffffffffffffffffffffffffffffffffff1673ffffffffffffffffffffffffffffffffffffffff168152602001908152602001600020549050346004600082825461195791906133d0565b925050819055506000811415611ada57600060405180608001604052803373ffffffffffffffffffffffffffffffffffffffff1681526020014381526020013481526020016003548152509050600281908060018154018082558091505060019003906000526020600020906004020160009091909190915060008201518160000160006101000a81548173ffffffffffffffffffffffffffffffffffffffff021916908373ffffffffffffffffffffffffffffffffffffffff1602179055506020820151816001015560408201518160020155606082015181600301555050600354600560003373ffffffffffffffffffffffffffffffffffffffff1673ffffffffffffffffffffffffffffffffffffffff168152602001908152602001600020819055507fc47ed82c58c2e577a99ebba100d4a14c287e3b453c8d46113417f41f9f283d11334334604051611ab093929190612feb565b60405180910390a1611ace600160035461244190919063ffffffff16565b60038190555050611c0f565b60006002600183611aeb9190613622565b81548110611b22577f4e487b7100000000000000000000000000000000000000000000000000000000600052603260045260246000fd5b9060005260206000209060040201600201541115611b4457611b42610d75565b505b436002600183611b549190613622565b81548110611b8b577f4e487b7100000000000000000000000000000000000000000000000000000000600052603260045260246000fd5b906000526020600020906004020160010181905550346002600183611bb09190613622565b81548110611be7577f4e487b7100000000000000000000000000000000000000000000000000000000600052603260045260246000fd5b90600052602060002090600402016002016000828254611c0791906133d0565b925050819055505b50565b60008054906101000a900473ffffffffffffffffffffffffffffffffffffffff1673ffffffffffffffffffffffffffffffffffffffff163373ffffffffffffffffffffffffffffffffffffffff1614611ca0576040517f08c379a0000000000000000000000000000000000000000000000000000000008152600401611c97906131e0565b60405180910390fd5b60005b81811015611d8257828181518110611ce4577f4e487b7100000000000000000000000000000000000000000000000000000000600052603260045260246000fd5b6020026020010151600a6000868481518110611d29577f4e487b7100000000000000000000000000000000000000000000000000000000600052603260045260246000fd5b602002602001015173ffffffffffffffffffffffffffffffffffffffff1673ffffffffffffffffffffffffffffffffffffffff168152602001908152602001600020819055508080611d7a906136c5565b915050611ca3565b50505050565b600080600560008473ffffffffffffffffffffffffffffffffffffffff1673ffffffffffffffffffffffffffffffffffffffff16815260200190815260200160002054905060008111611e10576040517f08c379a0000000000000000000000000000000000000000000000000000000008152600401611e0790613140565b60405180910390fd5b60006002600183611e219190613622565b81548110611e58577f4e487b7100000000000000000000000000000000000000000000000000000000600052603260045260246000fd5b906000526020600020906004020190506000611e73856106e3565b90506000611e8e83600101544361249f90919063ffffffff16565b90506000811415611ea6576000945050505050611f5c565b6000611ede611ec06127108461237c90919063ffffffff16565b611ed761271060065461237c90919063ffffffff16565b60146124e9565b9050600060076002015490506001841415611f00576007600001549050611f13565b6002841415611f125760076001015490505b5b611f53670de0b6b3a7640000611f456064611f37868661237c90919063ffffffff16565b6123f790919063ffffffff16565b6123f790919063ffffffff16565b96505050505050505b919050565b6000600154905090565b6000600560003373ffffffffffffffffffffffffffffffffffffffff1673ffffffffffffffffffffffffffffffffffffffff168152602001908152602001600020549050600033905060008211611ff7576040517f08c379a0000000000000000000000000000000000000000000000000000000008152600401611fee90613140565b60405180910390fd5b600060026001846120089190613622565b8154811061203f577f4e487b7100000000000000000000000000000000000000000000000000000000600052603260045260246000fd5b906000526020600020906004020190506000816002015411612096576040517f08c379a000000000000000000000000000000000000000000000000000000000815260040161208d906130c0565b60405180910390fd5b61209e610d75565b504360026001856120af9190613622565b815481106120e6577f4e487b7100000000000000000000000000000000000000000000000000000000600052603260045260246000fd5b9060005260206000209060040201600101819055508060020154600460008282546121119190613622565b92505081905550600081600201549050600082600201819055508273ffffffffffffffffffffffffffffffffffffffff166108fc829081150290604051600060405180830381858888f19350505050158015612171573d6000803e3d6000fd5b5060008260030154146121a357600082600301819055506001600b600082825461219b91906133d0565b925050819055505b50505050565b60008054906101000a900473ffffffffffffffffffffffffffffffffffffffff1673ffffffffffffffffffffffffffffffffffffffff163373ffffffffffffffffffffffffffffffffffffffff1614612237576040517f08c379a000000000000000000000000000000000000000000000000000000000815260040161222e90613180565b60405180910390fd5b8060068190555050565b600080600560008473ffffffffffffffffffffffffffffffffffffffff1673ffffffffffffffffffffffffffffffffffffffff168152602001908152602001600020549050600081116122c9576040517f08c379a00000000000000000000000000000000000000000000000000000000081526004016122c090613140565b60405180910390fd5b600060026001836122da9190613622565b81548110612311577f4e487b7100000000000000000000000000000000000000000000000000000000600052603260045260246000fd5b90600052602060002090600402019050600061232c85611d88565b9050612372670de0b6b3a7640000612364606461235685876002015461237c90919063ffffffff16565b6123f790919063ffffffff16565b6123f790919063ffffffff16565b9350505050919050565b60008083141561238f57600090506123f1565b6000828461239d91906135c8565b90508284826123ac9190613426565b146123ec576040517f08c379a00000000000000000000000000000000000000000000000000000000081526004016123e3906131c0565b60405180910390fd5b809150505b92915050565b600061243983836040518060400160405280601a81526020017f536166654d6174683a206469766973696f6e206279207a65726f000000000000815250612546565b905092915050565b600080828461245091906133d0565b905083811015612495576040517f08c379a000000000000000000000000000000000000000000000000000000000815260040161248c90613120565b60405180910390fd5b8091505092915050565b60006124e183836040518060400160405280601e81526020017f536166654d6174683a207375627472616374696f6e206f766572666c6f7700008152506125a9565b905092915050565b6000806001836124f991906133d0565b600a61250591906134aa565b8561251091906135c8565b90506000600a600586846125249190613426565b61252e91906133d0565b6125389190613426565b905080925050509392505050565b6000808311829061258d576040517f08c379a0000000000000000000000000000000000000000000000000000000008152600401612584919061309e565b60405180910390fd5b506000838561259c9190613426565b9050809150509392505050565b60008383111582906125f1576040517f08c379a00000000000000000000000000000000000000000000000000000000081526004016125e8919061309e565b60405180910390fd5b50600083856126009190613622565b9050809150509392505050565b6040518060800160405280600073ffffffffffffffffffffffffffffffffffffffff1681526020016000815260200160008152602001600081525090565b600061265e612659846132be565b61328d565b9050808382526020820190508285602086028201111561267d57600080fd5b60005b858110156126ad5781612693888261278f565b845260208401935060208301925050600181019050612680565b5050509392505050565b60006126ca6126c5846132ea565b61328d565b905080838252602082019050828560808602820111156126e957600080fd5b60005b8581101561271957816126ff8882612822565b8452602084019350608083019250506001810190506126ec565b5050509392505050565b600061273661273184613316565b61328d565b9050808382526020820190508285602086028201111561275557600080fd5b60005b85811015612785578161276b8882612896565b845260208401935060208301925050600181019050612758565b5050509392505050565b60008135905061279e816137b9565b92915050565b600082601f8301126127b557600080fd5b81356127c584826020860161264b565b91505092915050565b600082601f8301126127df57600080fd5b81356127ef8482602086016126b7565b91505092915050565b600082601f83011261280957600080fd5b8135612819848260208601612723565b91505092915050565b60006080828403121561283457600080fd5b61283e608061328d565b9050600061284e8482850161278f565b600083015250602061286284828501612896565b602083015250604061287684828501612896565b604083015250606061288a84828501612896565b60608301525092915050565b6000813590506128a5816137d0565b92915050565b6000602082840312156128bd57600080fd5b60006128cb8482850161278f565b91505092915050565b6000806000606084860312156128e957600080fd5b600084013567ffffffffffffffff81111561290357600080fd5b61290f868287016127a4565b935050602084013567ffffffffffffffff81111561292c57600080fd5b612938868287016127f8565b925050604061294986828701612896565b9150509250925092565b6000806040838503121561296657600080fd5b600083013567ffffffffffffffff81111561298057600080fd5b61298c858286016127ce565b925050602061299d85828601612896565b9150509250929050565b6000602082840312156129b957600080fd5b60006129c784828501612896565b91505092915050565b6000806000606084860312156129e557600080fd5b60006129f386828701612896565b9350506020612a0486828701612896565b9250506040612a1586828701612896565b9150509250925092565b6000612a2b8383612a4f565b60208301905092915050565b6000612a438383612fcd565b60208301905092915050565b612a5881613656565b82525050565b612a6781613656565b82525050565b6000612a7882613362565b612a82818561339d565b9350612a8d83613342565b8060005b83811015612abe578151612aa58882612a1f565b9750612ab083613383565b925050600181019050612a91565b5085935050505092915050565b6000612ad68261336d565b612ae081856133ae565b9350612aeb83613352565b8060005b83811015612b1c578151612b038882612a37565b9750612b0e83613390565b925050600181019050612aef565b5085935050505092915050565b6000612b3482613378565b612b3e81856133bf565b9350612b4e818560208601613692565b612b578161379b565b840191505092915050565b6000612b6f602b836133bf565b91507f4e6f742066756e6473206465706f736974656420696e20746865207374616b6960008301527f6e6720636f6e74726163740000000000000000000000000000000000000000006020830152604082019050919050565b6000612bd56025836133bf565b91507f4f6e6c792074686520476c71204465706c6f7965722063616e2041505920726560008301527f77617264730000000000000000000000000000000000000000000000000000006020830152604082019050919050565b6000612c3b6031836133bf565b91507f4e6f7468696e6720746f20636c61696d2066726f6d207468652045746865726560008301527f756d206e6574776f726b207374616b652e0000000000000000000000000000006020830152604082019050919050565b6000612ca1601b836133bf565b91507f536166654d6174683a206164646974696f6e206f766572666c6f7700000000006000830152602082019050919050565b6000612ce16015836133bf565b91507f496e76616c6964207374616b696e6720696e64657800000000000000000000006000830152602082019050919050565b6000612d216042836133bf565b91507f4f6e6c792074686520476c71204465706c6f7965722063616e2072656d6f766560008301527f20696e63656e746976652066726f6d2074686520736d6172742d636f6e74726160208301527f63740000000000000000000000000000000000000000000000000000000000006040830152606082019050919050565b6000612dad6036836133bf565b91507f4f6e6c792074686520476c71204465706c6f7965722063616e206368616e676560008301527f20626c6f636b73207370656e74207065722079656172000000000000000000006020830152604082019050919050565b6000612e136022836133bf565b91507f596f75206e65656420746f207374616b65206174206c656173742031304b204760008301527f4c510000000000000000000000000000000000000000000000000000000000006020830152604082019050919050565b6000612e796021836133bf565b91507f536166654d6174683a206d756c7469706c69636174696f6e206f766572666c6f60008301527f77000000000000000000000000000000000000000000000000000000000000006020830152604082019050919050565b6000612edf6013836133bf565b91507f756e617574686f72697a656420616363657373000000000000000000000000006000830152602082019050919050565b6000612f1f603e836133bf565b91507f596f7520646f6e74206861766520616e7920746965722072616e6b206375727260008301527f656e746c7920696e20746865205374616b696e6720636f6e74726163742e00006020830152604082019050919050565b608082016000820151612f8e6000850182612a4f565b506020820151612fa16020850182612fcd565b506040820151612fb46040850182612fcd565b506060820151612fc76060850182612fcd565b50505050565b612fd681613688565b82525050565b612fe581613688565b82525050565b60006060820190506130006000830186612a5e565b61300d6020830185612fdc565b61301a6040830184612fdc565b949350505050565b60006080820190506130376000830187612a5e565b6130446020830186612fdc565b6130516040830185612fdc565b61305e6060830184612fdc565b95945050505050565b600060408201905081810360008301526130818185612a6d565b905081810360208301526130958184612acb565b90509392505050565b600060208201905081810360008301526130b88184612b29565b905092915050565b600060208201905081810360008301526130d981612b62565b9050919050565b600060208201905081810360008301526130f981612bc8565b9050919050565b6000602082019050818103600083015261311981612c2e565b9050919050565b6000602082019050818103600083015261313981612c94565b9050919050565b6000602082019050818103600083015261315981612cd4565b9050919050565b6000602082019050818103600083015261317981612d14565b9050919050565b6000602082019050818103600083015261319981612da0565b9050919050565b600060208201905081810360008301526131b981612e06565b9050919050565b600060208201905081810360008301526131d981612e6c565b9050919050565b600060208201905081810360008301526131f981612ed2565b9050919050565b6000602082019050818103600083015261321981612f12565b9050919050565b60006080820190506132356000830184612f78565b92915050565b60006020820190506132506000830184612fdc565b92915050565b600060608201905061326b6000830186612fdc565b6132786020830185612fdc565b6132856040830184612fdc565b949350505050565b6000604051905081810181811067ffffffffffffffff821117156132b4576132b361376c565b5b8060405250919050565b600067ffffffffffffffff8211156132d9576132d861376c565b5b602082029050602081019050919050565b600067ffffffffffffffff8211156133055761330461376c565b5b602082029050602081019050919050565b600067ffffffffffffffff8211156133315761333061376c565b5b602082029050602081019050919050565b6000819050602082019050919050565b6000819050602082019050919050565b600081519050919050565b600081519050919050565b600081519050919050565b6000602082019050919050565b6000602082019050919050565b600082825260208201905092915050565b600082825260208201905092915050565b600082825260208201905092915050565b60006133db82613688565b91506133e683613688565b9250827fffffffffffffffffffffffffffffffffffffffffffffffffffffffffffffffff0382111561341b5761341a61370e565b5b828201905092915050565b600061343182613688565b915061343c83613688565b92508261344c5761344b61373d565b5b828204905092915050565b6000808291508390505b60018511156134a15780860481111561347d5761347c61370e565b5b600185161561348c5780820291505b808102905061349a856137ac565b9450613461565b94509492505050565b60006134b582613688565b91506134c083613688565b92506134ed7fffffffffffffffffffffffffffffffffffffffffffffffffffffffffffffffff84846134f5565b905092915050565b60008261350557600190506135c1565b8161351357600090506135c1565b8160018114613529576002811461353357613562565b60019150506135c1565b60ff8411156135455761354461370e565b5b8360020a91508482111561355c5761355b61370e565b5b506135c1565b5060208310610133831016604e8410600b84101617156135975782820a9050838111156135925761359161370e565b5b6135c1565b6135a48484846001613457565b925090508184048111156135bb576135ba61370e565b5b81810290505b9392505050565b60006135d382613688565b91506135de83613688565b9250817fffffffffffffffffffffffffffffffffffffffffffffffffffffffffffffffff04831182151516156136175761361661370e565b5b828202905092915050565b600061362d82613688565b915061363883613688565b92508282101561364b5761364a61370e565b5b828203905092915050565b600061366182613668565b9050919050565b600073ffffffffffffffffffffffffffffffffffffffff82169050919050565b6000819050919050565b60005b838110156136b0578082015181840152602081019050613695565b838111156136bf576000848401525b50505050565b60006136d082613688565b91507fffffffffffffffffffffffffffffffffffffffffffffffffffffffffffffffff8214156137035761370261370e565b5b600182019050919050565b7f4e487b7100000000000000000000000000000000000000000000000000000000600052601160045260246000fd5b7f4e487b7100000000000000000000000000000000000000000000000000000000600052601260045260246000fd5b7f4e487b7100000000000000000000000000000000000000000000000000000000600052604160045260246000fd5b6000601f19601f8301169050919050565b60008160011c9050919050565b6137c281613656565b81146137cd57600080fd5b50565b6137d981613688565b81146137e457600080fd5b5056fea264697066735822122087656aab92f519fdc8efd9699b4b128c1b0c2690b7dc28ef2769e3a08470cd5a64736f6c63430008000033",
  "immutableReferences": {},
  "source": "// SPDX-License-Identifier: MIT\r\n\r\npragma solidity ^0.8.0;\r\n\r\nimport \"./libs/maths/SafeMath.sol\";\r\nimport \"./libs/string.sol\";\r\nimport \"./interfaces/IERC20.sol\";\r\nimport \"./libs/sort.sol\";\r\n\r\nstruct GlqStaker {\r\n    address wallet;\r\n    uint256 block_number;\r\n    uint256 amount;\r\n    uint256 index_at;\r\n}\r\n\r\nstruct GraphLinqApyStruct {\r\n    uint256 tier1Apy;\r\n    uint256 tier2Apy;\r\n    uint256 tier3Apy;      \r\n}\r\n\r\ncontract GlqStakingContract {\r\n\r\n    using SafeMath for uint256;\r\n    using strings for *;\r\n    using QuickSorter for *;\r\n\r\n    event NewStakerRegistered (\r\n        address staker_address,\r\n        uint256 at_block,\r\n        uint256 amount_registered\r\n    );\r\n\r\n    event ReceivedFunds(uint256 amount);\r\n\r\n    /*\r\n    ** Manager of the contract to add/remove APYs bonuses into the staking contract\r\n    */\r\n    address private _glqDeployerManager;\r\n\r\n    /*\r\n    ** Current amount of GLQ available in the pool as rewards\r\n    */\r\n    uint256 private _totalGlqIncentive;\r\n\r\n    GlqStaker[]                     public _stakers;\r\n    uint256                         private _stakersIndex;\r\n    uint256                         private _totalStaked;\r\n\r\n    mapping(address => uint256)     private _indexStaker;\r\n    uint256                         private _blocksPerYear;\r\n    GraphLinqApyStruct              private _apyStruct;\r\n    mapping(address => uint256)     private _migrationClaim;\r\n    uint256                         public _indexWithdrawed;\r\n\r\n\r\n    constructor(address manager) {\r\n        _glqDeployerManager = manager;\r\n\r\n        _totalStaked = 0;\r\n        _stakersIndex = 1;\r\n        \r\n        _blocksPerYear = 2102400;\r\n        \r\n        // default t1: 30%, t2: 15%, t3: 7.5%\r\n        _apyStruct = GraphLinqApyStruct(35*1e18, 15*1e18, 8*1e18);\r\n    }\r\n \r\n    // new add incentive\r\n    receive() external payable {\r\n        emit ReceivedFunds(msg.value);\r\n        _totalGlqIncentive += msg.value;\r\n    }\r\n\r\n    function setIndexWithdrawed(uint256 indexWithdrawed) public {\r\n         require(address(msg.sender) == _glqDeployerManager, \"unauthorized access\");\r\n        _indexWithdrawed = indexWithdrawed;\r\n    }\r\n\r\n    function setMigrationStaker(GlqStaker[] memory stakers, uint256 offset) external {\r\n        for (uint i = 0; i < stakers.length; i++)\r\n        {\r\n            _stakers.push(stakers[i]);\r\n            _indexStaker[stakers[i].wallet] = offset+1;\r\n            _totalStaked = _totalStaked.add(stakers[i].amount);\r\n            offset++;\r\n        }\r\n        _stakersIndex = offset+1;\r\n    }\r\n\r\n    /*\r\n    ** Setting GLQ claimable from ETH side\r\n    */\r\n    function setClaimMigration(address[] memory addresses, uint256[] memory amounts, uint256 len) public {\r\n        require(address(msg.sender) == _glqDeployerManager, \"unauthorized access\");\r\n         for (uint i = 0; i < len; i++) {\r\n            _migrationClaim[addresses[i]] = amounts[i];\r\n         }\r\n    }\r\n\r\n    /*\r\n    ** Claim your GLQ from the chain migration\r\n    */\r\n    function claimFromMigration() public {\r\n        address payable sender = payable(msg.sender);\r\n        require(_migrationClaim[sender] > 0, \"Nothing to claim from the Ethereum network stake.\");\r\n\r\n        uint256 amount = _migrationClaim[sender];\r\n        _migrationClaim[sender] = 0;\r\n        sender.transfer(amount);\r\n    }   \r\n\r\n    /*\r\n    ** Return how much is claimable from the ETH Migration\r\n    */\r\n    function getClaimFromMigration(address wallet) public view returns(uint256) {\r\n        return _migrationClaim[wallet];\r\n    }\r\n\r\n    /* Getter ---- Read-Only */\r\n\r\n\r\n    /*\r\n    ** Return the staker info from wallet index\r\n    */\r\n    function getStaker(address wallet) public view returns (GlqStaker memory) {\r\n         uint256 index = _indexStaker[wallet];\r\n         return _stakers[index-1];\r\n    }\r\n\r\n    /*\r\n    ** Return the sender wallet position from the tier system\r\n    */\r\n    function getWalletCurrentTier(address wallet) public view returns (uint256) {\r\n        uint256 currentTier = 3;\r\n        uint256 index = _indexStaker[wallet];\r\n        require(\r\n            index != 0,\r\n            \"You dont have any tier rank currently in the Staking contract.\"\r\n        );\r\n        GlqStaker memory staker = _stakers[index-1];\r\n\r\n        if (staker.index_at == 0) {\r\n            return currentTier;\r\n        }\r\n\r\n        uint256 walletAggregatedIndex = (index).mul(1e18);\r\n        uint256 len = _stakers.length + _indexWithdrawed;\r\n\r\n        // Total length of stakers\r\n        uint256 totalIndex = len.mul(1e18);\r\n        // 15% of hodlers in T1 \r\n        uint256 t1MaxIndex = totalIndex.div(100).mul(15);\r\n        // 55% of hodlers in T2\r\n        uint256 t2MaxIndex = totalIndex.div(100).mul(55);\r\n\r\n        if (walletAggregatedIndex <= t1MaxIndex) {\r\n            currentTier = 1;\r\n        } else if (walletAggregatedIndex > t1MaxIndex && walletAggregatedIndex <= t2MaxIndex) {\r\n            currentTier = 2;\r\n        }\r\n\r\n        return currentTier;\r\n    }\r\n\r\n    /*\r\n    ** Return rank position of a wallet\r\n    */\r\n    function getPosition(address wallet) public view returns (uint256) {\r\n         uint256 index = _indexStaker[wallet];\r\n         GlqStaker memory staker = _stakers[index-1];\r\n         if (staker.index_at == 0) { \r\n            return _stakers.length;\r\n         }\r\n         return index;\r\n    }\r\n\r\n    /*\r\n    ** Return the amount of GLQ that a wallet can currently claim from the staking contract\r\n    */\r\n    function getGlqToClaim(address wallet) public view returns(uint256) {\r\n        uint256 index = _indexStaker[wallet];\r\n        require (index > 0, \"Invalid staking index\");\r\n        GlqStaker storage staker = _stakers[index-1];\r\n\r\n        uint256 calculatedApr = getWaitingPercentAPR(wallet);\r\n        return staker.amount.mul(calculatedApr).div(100).div(1e18);\r\n    }\r\n\r\n    /*\r\n    ** Return the current percent winnable for a staker wallet\r\n    */\r\n    function getWaitingPercentAPR(address wallet) public view returns(uint256) {\r\n        uint256 index = _indexStaker[wallet];\r\n        require (index > 0, \"Invalid staking index\");\r\n        GlqStaker storage staker = _stakers[index - 1];\r\n\r\n        uint256 walletTier = getWalletCurrentTier(wallet);\r\n        uint256 blocksSpent = block.number.sub(staker.block_number);\r\n        if (blocksSpent == 0) { return 0; }\r\n        uint256 percentYearSpent = percent(blocksSpent.mul(10000), _blocksPerYear.mul(10000), 20);\r\n\r\n        uint256 percentAprGlq = _apyStruct.tier3Apy;\r\n        if (walletTier == 1) {\r\n            percentAprGlq = _apyStruct.tier1Apy;\r\n        } else if (walletTier == 2) {\r\n            percentAprGlq = _apyStruct.tier2Apy;\r\n        }\r\n\r\n        return percentAprGlq.mul(percentYearSpent).div(100).div(1e18);\r\n    }\r\n\r\n    /*\r\n    ** Return the total amount of GLQ as incentive rewards in the contract\r\n    */\r\n    function getTotalIncentive() public view returns (uint256) {\r\n        return _totalGlqIncentive;\r\n    }\r\n\r\n    /*\r\n    ** Return the total amount in staking for an hodler.\r\n    */\r\n    function getDepositedGLQ(address wallet) public view returns (uint256) {\r\n        uint256 index = _indexStaker[wallet];\r\n        if (index == 0) { return 0; }\r\n        return _stakers[index-1].amount;\r\n    }\r\n\r\n    /*\r\n    ** Count the total numbers of stakers in the contract\r\n    */\r\n    function getTotalStakers() public view returns(uint256) {\r\n        return _stakers.length;\r\n    }\r\n\r\n    /*\r\n    ** Return all APY per different Tier\r\n    */\r\n    function getTiersAPY() public view returns(uint256, uint256, uint256) {\r\n        return (_apyStruct.tier1Apy, _apyStruct.tier2Apy, _apyStruct.tier3Apy);\r\n    }\r\n\r\n    /*\r\n    ** Return the Total staked amount\r\n    */\r\n    function getTotalStaked() public view returns(uint256) {\r\n        return _totalStaked;\r\n    }\r\n\r\n    /*\r\n    ** Return the top 3 of stakers (by age)\r\n    */\r\n    function getTopStakers() public view returns(address[] memory, uint256[] memory) {\r\n        uint256 len = _stakers.length;\r\n        address[] memory addresses = new address[](3);\r\n        uint256[] memory amounts = new uint256[](3);\r\n        uint256 found = 0;\r\n\r\n        for (uint i = 0; i < len && found <= 2; i++) {\r\n            if (_stakers[i].amount != 0) {\r\n                addresses[i] = _stakers[i].wallet;\r\n                amounts[i] = _stakers[i].amount;\r\n                found++;\r\n            }\r\n        }\r\n\r\n        return (addresses, amounts);\r\n    }\r\n\r\n    /*\r\n    ** Return the total amount deposited on a rank tier\r\n    */\r\n    function getTierTotalStaked(uint tier) public view returns (uint256) {\r\n        uint256 totalAmount = 0;\r\n\r\n        // Total length of stakers\r\n        uint256 totalIndex = _stakers.length.mul(1e18);\r\n        // 15% of hodlers in T1 \r\n        uint256 t1MaxIndex = totalIndex.div(100).mul(15);\r\n        // 55% of hodlers in T2\r\n        uint256 t2MaxIndex = totalIndex.div(100).mul(55);\r\n\r\n        uint startIndex = (tier == 1) ? 0 : t1MaxIndex.div(1e18);\r\n        uint endIndex = (tier == 1) ? t1MaxIndex.div(1e18) : t2MaxIndex.div(1e18);\r\n        \r\n        if (tier == 3) {\r\n            startIndex = t2MaxIndex.div(1e18);\r\n            endIndex = _stakers.length;\r\n        }\r\n\r\n        for (uint i = startIndex; i <= endIndex && i < _stakers.length; i++) {\r\n            totalAmount +=  _stakers[i].amount;\r\n        }\r\n      \r\n        return totalAmount;\r\n    }\r\n\r\n    /* Getter ---- Read-Only */\r\n\r\n\r\n    /* Setter - Read & Modifications */\r\n\r\n\r\n    /*\r\n    ** Set numbers of blocks spent per year to calculate claim rewards\r\n    */\r\n    function setBlocksPerYear(uint256 blocks) public {\r\n        require(\r\n            msg.sender == _glqDeployerManager,\r\n            \"Only the Glq Deployer can change blocks spent per year\");\r\n        _blocksPerYear = blocks;\r\n    }\r\n\r\n    /*\r\n    ** Update the APY rewards for each tier in percent per year\r\n    */\r\n    function setApyPercentRewards(uint256 t1, uint256 t2, uint256 t3) public {\r\n        require(\r\n            msg.sender == _glqDeployerManager,\r\n            \"Only the Glq Deployer can APY rewards\");\r\n        GraphLinqApyStruct memory newApy = GraphLinqApyStruct(t1, t2, t3);\r\n        _apyStruct = newApy;\r\n    }\r\n\r\n\r\n    /*\r\n    ** Remove GLQ liquidity from the staking contract for stakers rewards \r\n    */\r\n    function removeIncentive(uint256 glqAmount) public {\r\n        address payable deployer = payable(_glqDeployerManager);\r\n        require(\r\n            msg.sender == _glqDeployerManager,\r\n            \"Only the Glq Deployer can remove incentive from the smart-contract\");\r\n        deployer.transfer(glqAmount);\r\n    }\r\n\r\n    /*\r\n    ** Deposit GLQ in the staking contract to stake & earn\r\n    */\r\n    function depositGlq() public payable {\r\n        require (msg.value >= 10000*1e18, \"You need to stake at least 10K GLQ\");\r\n        uint256 index = _indexStaker[msg.sender];\r\n        _totalStaked += msg.value;\r\n\r\n        if (index == 0) {\r\n            GlqStaker memory staker = GlqStaker(msg.sender, block.number, msg.value, _stakersIndex);\r\n            _stakers.push(staker);\r\n            _indexStaker[msg.sender] = _stakersIndex;\r\n\r\n            // emit event of a new staker registered at current block position\r\n            emit NewStakerRegistered(msg.sender, block.number, msg.value);\r\n            _stakersIndex = _stakersIndex.add(1);\r\n            \r\n        }\r\n        else {\r\n            // claim rewards before adding new staking amount\r\n            if (_stakers[index-1].amount > 0) {\r\n                claimGlq();\r\n            }\r\n\r\n            _stakers[index-1].block_number = block.number;\r\n            _stakers[index-1].amount += msg.value;\r\n        }\r\n    }\r\n\r\n    /*\r\n    ** Withdraw Glq from the staking contract\r\n    */\r\n    function withdrawGlq() public {\r\n        uint256 index = _indexStaker[msg.sender];\r\n        address payable src = payable(msg.sender);\r\n        require (index > 0, \"Invalid staking index\");\r\n        GlqStaker storage staker = _stakers[index - 1];\r\n        require(\r\n            staker.amount > 0,\r\n         \"Not funds deposited in the staking contract\");\r\n    \r\n        //auto claim when withdraw\r\n        claimGlq();\r\n        \r\n        _stakers[index-1].block_number = block.number;\r\n        _totalStaked -= staker.amount;\r\n\r\n        uint256 amount = staker.amount;\r\n        \r\n        staker.amount = 0;\r\n        src.transfer(amount);\r\n        \r\n        if (staker.index_at != 0) {\r\n            staker.index_at = 0;\r\n            _indexWithdrawed += 1;\r\n        }\r\n\r\n    }\r\n\r\n    function percent(uint256 numerator, uint256 denominator, uint256 precision) private pure returns(uint256) {\r\n        uint256 _numerator  = numerator * 10 ** (precision+1);\r\n        // with rounding of last digit\r\n        uint256 _quotient =  ((_numerator / denominator) + 5) / 10;\r\n        return ( _quotient);\r\n    }\r\n\r\n    /*\r\n    ** Claim waiting rewards from the staking contract\r\n    */\r\n    function claimGlq() public returns(uint256) {\r\n        uint256 index = _indexStaker[msg.sender];\r\n        GlqStaker storage staker = _stakers[index - 1];\r\n        address payable sender = payable(msg.sender);\r\n        require (index > 0, \"Invalid staking index\");\r\n\r\n        uint256 glqToClaim = getGlqToClaim(msg.sender);\r\n        if (glqToClaim == 0) { return 0; }\r\n\r\n        staker.block_number = block.number;\r\n        sender.transfer(glqToClaim);\r\n        return (glqToClaim);\r\n    }\r\n\r\n    /* Setter - Read & Modifications */\r\n\r\n}",
  "sourcePath": "E:\\eth\\graphlinq\\GraphLinq.Engine\\GraphLinq.StakingContract\\contracts\\GlqStakingContract.sol",
  "compiler": {
    "name": "solc",
    "version": "0.8.0+commit.c7dfd78e.Emscripten.clang"
  },
  "schemaVersion": "3.4.11",
  "updatedAt": "2023-04-20T14:16:28.478Z",
  "networkType": "ethereum",
  "devdoc": {
    "kind": "dev",
    "methods": {},
    "version": 1
  },
  "userdoc": {
    "kind": "user",
    "methods": {},
    "version": 1
  }
}