{
  "contractName": "GlqStakingContract",
  "abi": [
    {
      "inputs": [
        {
          "internalType": "address",
          "name": "glqAddr",
          "type": "address"
        },
        {
          "internalType": "address",
          "name": "manager",
          "type": "address"
        }
      ],
      "stateMutability": "nonpayable",
      "type": "constructor"
    },
    {
      "anonymous": false,
      "inputs": [
        {
          "indexed": false,
          "internalType": "address",
          "name": "staker_address",
          "type": "address"
        },
        {
          "indexed": false,
          "internalType": "uint256",
          "name": "at_block",
          "type": "uint256"
        },
        {
          "indexed": false,
          "internalType": "uint256",
          "name": "amount_registered",
          "type": "uint256"
        }
      ],
      "name": "NewStakerRegistered",
      "type": "event"
    },
    {
      "inputs": [
        {
          "internalType": "address",
          "name": "wallet",
          "type": "address"
        }
      ],
      "name": "getWalletCurrentTier",
      "outputs": [
        {
          "internalType": "uint256",
          "name": "",
          "type": "uint256"
        }
      ],
      "stateMutability": "view",
      "type": "function",
      "constant": true
    },
    {
      "inputs": [
        {
          "internalType": "address",
          "name": "wallet",
          "type": "address"
        }
      ],
      "name": "getPosition",
      "outputs": [
        {
          "internalType": "uint256",
          "name": "",
          "type": "uint256"
        }
      ],
      "stateMutability": "view",
      "type": "function",
      "constant": true
    },
    {
      "inputs": [
        {
          "internalType": "address",
          "name": "wallet",
          "type": "address"
        }
      ],
      "name": "getGlqToClaim",
      "outputs": [
        {
          "internalType": "uint256",
          "name": "",
          "type": "uint256"
        }
      ],
      "stateMutability": "view",
      "type": "function",
      "constant": true
    },
    {
      "inputs": [
        {
          "internalType": "address",
          "name": "wallet",
          "type": "address"
        }
      ],
      "name": "getWaitingPercentAPR",
      "outputs": [
        {
          "internalType": "uint256",
          "name": "",
          "type": "uint256"
        }
      ],
      "stateMutability": "view",
      "type": "function",
      "constant": true
    },
    {
      "inputs": [],
      "name": "getTotalIncentive",
      "outputs": [
        {
          "internalType": "uint256",
          "name": "",
          "type": "uint256"
        }
      ],
      "stateMutability": "view",
      "type": "function",
      "constant": true
    },
    {
      "inputs": [
        {
          "internalType": "address",
          "name": "wallet",
          "type": "address"
        }
      ],
      "name": "getDepositedGLQ",
      "outputs": [
        {
          "internalType": "uint256",
          "name": "",
          "type": "uint256"
        }
      ],
      "stateMutability": "view",
      "type": "function",
      "constant": true
    },
    {
      "inputs": [],
      "name": "getTotalStakers",
      "outputs": [
        {
          "internalType": "uint256",
          "name": "",
          "type": "uint256"
        }
      ],
      "stateMutability": "view",
      "type": "function",
      "constant": true
    },
    {
      "inputs": [],
      "name": "getTiersAPY",
      "outputs": [
        {
          "internalType": "uint256",
          "name": "",
          "type": "uint256"
        },
        {
          "internalType": "uint256",
          "name": "",
          "type": "uint256"
        },
        {
          "internalType": "uint256",
          "name": "",
          "type": "uint256"
        }
      ],
      "stateMutability": "view",
      "type": "function",
      "constant": true
    },
    {
      "inputs": [],
      "name": "getTotalStaked",
      "outputs": [
        {
          "internalType": "uint256",
          "name": "",
          "type": "uint256"
        }
      ],
      "stateMutability": "view",
      "type": "function",
      "constant": true
    },
    {
      "inputs": [
        {
          "internalType": "bool",
          "name": "state",
          "type": "bool"
        }
      ],
      "name": "setEmergencyWithdraw",
      "outputs": [],
      "stateMutability": "nonpayable",
      "type": "function"
    },
    {
      "inputs": [
        {
          "internalType": "uint256",
          "name": "blocks",
          "type": "uint256"
        }
      ],
      "name": "setBlocksPerYear",
      "outputs": [],
      "stateMutability": "nonpayable",
      "type": "function"
    },
    {
      "inputs": [
        {
          "internalType": "uint256",
          "name": "t1",
          "type": "uint256"
        },
        {
          "internalType": "uint256",
          "name": "t2",
          "type": "uint256"
        },
        {
          "internalType": "uint256",
          "name": "t3",
          "type": "uint256"
        }
      ],
      "name": "setApyPercentRewards",
      "outputs": [],
      "stateMutability": "nonpayable",
      "type": "function"
    },
    {
      "inputs": [
        {
          "internalType": "uint256",
          "name": "glqAmount",
          "type": "uint256"
        }
      ],
      "name": "addIncentive",
      "outputs": [],
      "stateMutability": "nonpayable",
      "type": "function"
    },
    {
      "inputs": [
        {
          "internalType": "uint256",
          "name": "glqAmount",
          "type": "uint256"
        }
      ],
      "name": "removeIncentive",
      "outputs": [],
      "stateMutability": "nonpayable",
      "type": "function"
    },
    {
      "inputs": [
        {
          "internalType": "uint256",
          "name": "glqAmount",
          "type": "uint256"
        }
      ],
      "name": "depositGlq",
      "outputs": [],
      "stateMutability": "nonpayable",
      "type": "function"
    },
    {
      "inputs": [],
      "name": "emergencyWithdraw",
      "outputs": [],
      "stateMutability": "nonpayable",
      "type": "function"
    },
    {
      "inputs": [],
      "name": "withdrawGlq",
      "outputs": [],
      "stateMutability": "nonpayable",
      "type": "function"
    },
    {
      "inputs": [],
      "name": "claimGlq",
      "outputs": [
        {
          "internalType": "uint256",
          "name": "",
          "type": "uint256"
        }
      ],
      "stateMutability": "nonpayable",
      "type": "function"
    }
  ],
  "bytecode": "0x60806040523480156200001157600080fd5b50604051620036c3380380620036c3833981810160405281019062000037919062000146565b816000806101000a81548173ffffffffffffffffffffffffffffffffffffffff021916908373ffffffffffffffffffffffffffffffffffffffff16021790555080600160006101000a81548173ffffffffffffffffffffffffffffffffffffffff021916908373ffffffffffffffffffffffffffffffffffffffff16021790555060006005819055506001600481905550600a600881905550604051806060016040528068015af1d78b58c40000815260200167ad78ebc5ac6200008152602001675a34a38fc00a000081525060096000820151816000015560208201518160010155604082015181600201559050505050620001d5565b6000815190506200014081620001bb565b92915050565b600080604083850312156200015a57600080fd5b60006200016a858286016200012f565b92505060206200017d858286016200012f565b9150509250929050565b600062000194826200019b565b9050919050565b600073ffffffffffffffffffffffffffffffffffffffff82169050919050565b620001c68162000187565b8114620001d257600080fd5b50565b6134de80620001e56000396000f3fe608060405234801561001057600080fd5b50600436106101165760003560e01c8063c88f4a95116100a2578063db2e21bc11610071578063db2e21bc146102e3578063e050b2e2146102ed578063e5fa2b70146102f7578063ea26b02c14610313578063f2190dce1461032f57610116565b8063c88f4a9514610259578063d48e85b414610279578063d6ed106f146102a9578063d7ba276b146102c557610116565b8063220e0726116100e9578063220e0726146101b557806331ed0db4146101d357806379e59170146101f1578063b2f183a61461020d578063c7dd6f071461023d57610116565b806304e217621461011b5780630917e7761461014b57806310ae4e991461016957806316c1973914610185575b600080fd5b6101356004803603810190610130919061254e565b61035f565b604051610142919061302f565b60405180910390f35b6101536104bf565b604051610160919061302f565b60405180910390f35b610183600480360381019061017e919061261b565b6104c9565b005b61019f600480360381019061019a919061254e565b6105a2565b6040516101ac919061302f565b60405180910390f35b6101bd6105f0565b6040516101ca919061302f565b60405180910390f35b6101db6108f6565b6040516101e8919061302f565b60405180910390f35b61020b600480360381019061020691906125c9565b610903565b005b6102276004803603810190610222919061254e565b610b74565b604051610234919061302f565b60405180910390f35b61025760048036038101906102529190612577565b610c2d565b005b610261610cda565b6040516102709392919061304a565b60405180910390f35b610293600480360381019061028e919061254e565b610cfc565b6040516102a0919061302f565b60405180910390f35b6102c360048036038101906102be91906125c9565b610e93565b005b6102cd611106565b6040516102da919061302f565b60405180910390f35b6102eb611110565b005b6102f561138e565b005b610311600480360381019061030c91906125c9565b6116f8565b005b61032d600480360381019061032891906125c9565b611792565b005b6103496004803603810190610344919061254e565b611c38565b604051610356919061302f565b60405180910390f35b600080600390506000600760008573ffffffffffffffffffffffffffffffffffffffff1673ffffffffffffffffffffffffffffffffffffffff16815260200190815260200160002054905060008114156103ee576040517f08c379a00000000000000000000000000000000000000000000000000000000081526004016103e59061300f565b60405180910390fd5b600061040b670de0b6b3a764000083611d7390919063ffffffff16565b9050600061042f670de0b6b3a7640000600380549050611d7390919063ffffffff16565b9050600061045a600f61044c606485611dee90919063ffffffff16565b611d7390919063ffffffff16565b905060006104856037610477606486611dee90919063ffffffff16565b611d7390919063ffffffff16565b905081841161049757600195506104b1565b81841180156104a65750808411155b156104b057600295505b5b859650505050505050919050565b6000600554905090565b600160009054906101000a900473ffffffffffffffffffffffffffffffffffffffff1673ffffffffffffffffffffffffffffffffffffffff163373ffffffffffffffffffffffffffffffffffffffff1614610559576040517f08c379a000000000000000000000000000000000000000000000000000000000815260040161055090612e4f565b60405180910390fd5b6000604051806060016040528085815260200184815260200183815250905080600960008201518160000155602082015181600101556040820151816002015590505050505050565b600080600760008473ffffffffffffffffffffffffffffffffffffffff1673ffffffffffffffffffffffffffffffffffffffff16815260200190815260200160002054905080915050919050565b600080600760003373ffffffffffffffffffffffffffffffffffffffff1673ffffffffffffffffffffffffffffffffffffffff16815260200190815260200160002054905060008111610678576040517f08c379a000000000000000000000000000000000000000000000000000000000815260040161066f90612ecf565b60405180910390fd5b6000600360018361068991906132ef565b815481106106c0577f4e487b7100000000000000000000000000000000000000000000000000000000600052603260045260246000fd5b9060005260206000209060050201905060006106db33611c38565b905060008060009054906101000a900473ffffffffffffffffffffffffffffffffffffffff16905060008211610746576040517f08c379a000000000000000000000000000000000000000000000000000000000815260040161073d90612f6f565b60405180910390fd5b818173ffffffffffffffffffffffffffffffffffffffff166370a08231306040518263ffffffff1660e01b81526004016107809190612d3b565b60206040518083038186803b15801561079857600080fd5b505afa1580156107ac573d6000803e3d6000fd5b505050506040513d601f19601f820116820180604052508101906107d091906125f2565b11610810576040517f08c379a000000000000000000000000000000000000000000000000000000000815260040161080790612f0f565b60405180910390fd5b438360010181905550600115158173ffffffffffffffffffffffffffffffffffffffff1663a9059cbb33856040518363ffffffff1660e01b8152600401610858929190612d8d565b602060405180830381600087803b15801561087257600080fd5b505af1158015610886573d6000803e3d6000fd5b505050506040513d601f19601f820116820180604052508101906108aa91906125a0565b1515146108ec576040517f08c379a00000000000000000000000000000000000000000000000000000000081526004016108e390612fcf565b60405180910390fd5b8194505050505090565b6000600380549050905090565b60008060009054906101000a900473ffffffffffffffffffffffffffffffffffffffff169050600160009054906101000a900473ffffffffffffffffffffffffffffffffffffffff1673ffffffffffffffffffffffffffffffffffffffff163373ffffffffffffffffffffffffffffffffffffffff16146109b9576040517f08c379a00000000000000000000000000000000000000000000000000000000081526004016109b090612eef565b60405180910390fd5b818173ffffffffffffffffffffffffffffffffffffffff166370a08231306040518263ffffffff1660e01b81526004016109f39190612d3b565b60206040518083038186803b158015610a0b57600080fd5b505afa158015610a1f573d6000803e3d6000fd5b505050506040513d601f19601f82011682018060405250810190610a4391906125f2565b1015610a84576040517f08c379a0000000000000000000000000000000000000000000000000000000008152600401610a7b90612f4f565b60405180910390fd5b600115158173ffffffffffffffffffffffffffffffffffffffff1663a9059cbb33856040518363ffffffff1660e01b8152600401610ac3929190612d8d565b602060405180830381600087803b158015610add57600080fd5b505af1158015610af1573d6000803e3d6000fd5b505050506040513d601f19601f82011682018060405250810190610b1591906125a0565b151514610b57576040517f08c379a0000000000000000000000000000000000000000000000000000000008152600401610b4e90612fcf565b60405180910390fd5b8160026000828254610b6991906132ef565b925050819055505050565b600080600760008473ffffffffffffffffffffffffffffffffffffffff1673ffffffffffffffffffffffffffffffffffffffff1681526020019081526020016000205490506000811415610bcc576000915050610c28565b6003600182610bdb91906132ef565b81548110610c12577f4e487b7100000000000000000000000000000000000000000000000000000000600052603260045260246000fd5b9060005260206000209060050201600201549150505b919050565b600160009054906101000a900473ffffffffffffffffffffffffffffffffffffffff1673ffffffffffffffffffffffffffffffffffffffff163373ffffffffffffffffffffffffffffffffffffffff1614610cbd576040517f08c379a0000000000000000000000000000000000000000000000000000000008152600401610cb490612fef565b60405180910390fd5b80600660006101000a81548160ff02191690831515021790555050565b6000806000600960000154600960010154600960020154925092509250909192565b600080600760008473ffffffffffffffffffffffffffffffffffffffff1673ffffffffffffffffffffffffffffffffffffffff16815260200190815260200160002054905060008111610d84576040517f08c379a0000000000000000000000000000000000000000000000000000000008152600401610d7b90612ecf565b60405180910390fd5b60006003600183610d9591906132ef565b81548110610dcc577f4e487b7100000000000000000000000000000000000000000000000000000000600052603260045260246000fd5b906000526020600020906005020190506000610de73361035f565b90506000610e02836001015443611e3890919063ffffffff16565b90506000811415610e1a576000945050505050610e8e565b6000610e2a826008546002611e82565b9050600060096002015490506001841415610e4c576009600001549050610e5f565b6002841415610e5e5760096001015490505b5b610e856064610e778484611d7390919063ffffffff16565b611dee90919063ffffffff16565b96505050505050505b919050565b60008060009054906101000a900473ffffffffffffffffffffffffffffffffffffffff169050600160009054906101000a900473ffffffffffffffffffffffffffffffffffffffff1673ffffffffffffffffffffffffffffffffffffffff163373ffffffffffffffffffffffffffffffffffffffff1614610f49576040517f08c379a0000000000000000000000000000000000000000000000000000000008152600401610f4090612faf565b60405180910390fd5b818173ffffffffffffffffffffffffffffffffffffffff166370a08231336040518263ffffffff1660e01b8152600401610f839190612d3b565b60206040518083038186803b158015610f9b57600080fd5b505afa158015610faf573d6000803e3d6000fd5b505050506040513d601f19601f82011682018060405250810190610fd391906125f2565b1015611014576040517f08c379a000000000000000000000000000000000000000000000000000000000815260040161100b90612f4f565b60405180910390fd5b600115158173ffffffffffffffffffffffffffffffffffffffff166323b872dd3330866040518463ffffffff1660e01b815260040161105593929190612d56565b602060405180830381600087803b15801561106f57600080fd5b505af1158015611083573d6000803e3d6000fd5b505050506040513d601f19601f820116820180604052508101906110a791906125a0565b1515146110e9576040517f08c379a00000000000000000000000000000000000000000000000000000000081526004016110e090612e0f565b60405180910390fd5b81600260008282546110fb919061309d565b925050819055505050565b6000600254905090565b60011515600660009054906101000a900460ff16151514611166576040517f08c379a000000000000000000000000000000000000000000000000000000000815260040161115d90612e8f565b60405180910390fd5b6000600760003373ffffffffffffffffffffffffffffffffffffffff1673ffffffffffffffffffffffffffffffffffffffff168152602001908152602001600020549050600081116111ed576040517f08c379a00000000000000000000000000000000000000000000000000000000081526004016111e490612ecf565b60405180910390fd5b600060036001836111fe91906132ef565b81548110611235577f4e487b7100000000000000000000000000000000000000000000000000000000600052603260045260246000fd5b9060005260206000209060050201905060008060009054906101000a900473ffffffffffffffffffffffffffffffffffffffff16905060008260020154116112b2576040517f08c379a00000000000000000000000000000000000000000000000000000000081526004016112a990612e2f565b60405180910390fd5b600115158173ffffffffffffffffffffffffffffffffffffffff1663a9059cbb3385600201546040518363ffffffff1660e01b81526004016112f5929190612d8d565b602060405180830381600087803b15801561130f57600080fd5b505af1158015611323573d6000803e3d6000fd5b505050506040513d601f19601f8201168201806040525081019061134791906125a0565b151514611389576040517f08c379a000000000000000000000000000000000000000000000000000000000815260040161138090612fcf565b60405180910390fd5b505050565b6000600760003373ffffffffffffffffffffffffffffffffffffffff1673ffffffffffffffffffffffffffffffffffffffff16815260200190815260200160002054905060008111611415576040517f08c379a000000000000000000000000000000000000000000000000000000000815260040161140c90612ecf565b60405180910390fd5b6000600360018361142691906132ef565b8154811061145d577f4e487b7100000000000000000000000000000000000000000000000000000000600052603260045260246000fd5b9060005260206000209060050201905060008060009054906101000a900473ffffffffffffffffffffffffffffffffffffffff16905060008260020154116114da576040517f08c379a00000000000000000000000000000000000000000000000000000000081526004016114d190612e2f565b60405180910390fd5b600082600201819055506114ec6105f0565b5081600201546005600082825461150391906132ef565b9250508190555081600201548173ffffffffffffffffffffffffffffffffffffffff166370a08231306040518263ffffffff1660e01b81526004016115489190612d3b565b60206040518083038186803b15801561156057600080fd5b505afa158015611574573d6000803e3d6000fd5b505050506040513d601f19601f8201168201806040525081019061159891906125f2565b10156115d9576040517f08c379a00000000000000000000000000000000000000000000000000000000081526004016115d090612f4f565b60405180910390fd5b600115158173ffffffffffffffffffffffffffffffffffffffff1663a9059cbb3385600201546040518363ffffffff1660e01b815260040161161c929190612d8d565b602060405180830381600087803b15801561163657600080fd5b505af115801561164a573d6000803e3d6000fd5b505050506040513d601f19601f8201168201806040525081019061166e91906125a0565b1515146116b0576040517f08c379a00000000000000000000000000000000000000000000000000000000081526004016116a790612fcf565b60405180910390fd5b8160040160009054906101000a900460ff16156116d5576116d082611edf565b6116f3565b60018260040160006101000a81548160ff0219169083151502179055505b505050565b600160009054906101000a900473ffffffffffffffffffffffffffffffffffffffff1673ffffffffffffffffffffffffffffffffffffffff163373ffffffffffffffffffffffffffffffffffffffff1614611788576040517f08c379a000000000000000000000000000000000000000000000000000000000815260040161177f90612f2f565b60405180910390fd5b8060088190555050565b60008060009054906101000a900473ffffffffffffffffffffffffffffffffffffffff169050818173ffffffffffffffffffffffffffffffffffffffff166370a08231336040518263ffffffff1660e01b81526004016117f29190612d3b565b60206040518083038186803b15801561180a57600080fd5b505afa15801561181e573d6000803e3d6000fd5b505050506040513d601f19601f8201168201806040525081019061184291906125f2565b1015611883576040517f08c379a000000000000000000000000000000000000000000000000000000000815260040161187a90612eaf565b60405180910390fd5b600115158173ffffffffffffffffffffffffffffffffffffffff166323b872dd3330866040518463ffffffff1660e01b81526004016118c493929190612d56565b602060405180830381600087803b1580156118de57600080fd5b505af11580156118f2573d6000803e3d6000fd5b505050506040513d601f19601f8201168201806040525081019061191691906125a0565b151514611958576040517f08c379a000000000000000000000000000000000000000000000000000000000815260040161194f90612e0f565b60405180910390fd5b6000600760003373ffffffffffffffffffffffffffffffffffffffff1673ffffffffffffffffffffffffffffffffffffffff16815260200190815260200160002054905082600560008282546119ae919061309d565b925050819055506000811415611b5a5760006040518060a001604052803373ffffffffffffffffffffffffffffffffffffffff1681526020014381526020018581526020016004548152602001600015158152509050600381908060018154018082558091505060019003906000526020600020906005020160009091909190915060008201518160000160006101000a81548173ffffffffffffffffffffffffffffffffffffffff021916908373ffffffffffffffffffffffffffffffffffffffff16021790555060208201518160010155604082015181600201556060820151816003015560808201518160040160006101000a81548160ff0219169083151502179055505050600454600760003373ffffffffffffffffffffffffffffffffffffffff1673ffffffffffffffffffffffffffffffffffffffff168152602001908152602001600020819055507fc47ed82c58c2e577a99ebba100d4a14c287e3b453c8d46113417f41f9f283d11334386604051611b3093929190612db6565b60405180910390a1611b4e60016004546123c090919063ffffffff16565b60048190555050611c33565b60006003600183611b6b91906132ef565b81548110611ba2577f4e487b7100000000000000000000000000000000000000000000000000000000600052603260045260246000fd5b9060005260206000209060050201600201541115611bc457611bc26105f0565b505b826003600183611bd491906132ef565b81548110611c0b577f4e487b7100000000000000000000000000000000000000000000000000000000600052603260045260246000fd5b90600052602060002090600502016002016000828254611c2b919061309d565b925050819055505b505050565b600080600760008473ffffffffffffffffffffffffffffffffffffffff1673ffffffffffffffffffffffffffffffffffffffff16815260200190815260200160002054905060008111611cc0576040517f08c379a0000000000000000000000000000000000000000000000000000000008152600401611cb790612ecf565b60405180910390fd5b60006003600183611cd191906132ef565b81548110611d08577f4e487b7100000000000000000000000000000000000000000000000000000000600052603260045260246000fd5b906000526020600020906005020190506000611d2385610cfc565b9050611d69612710611d5b611d48662386f26fc1000085611dee90919063ffffffff16565b8560020154611d7390919063ffffffff16565b611dee90919063ffffffff16565b9350505050919050565b600080831415611d865760009050611de8565b60008284611d949190613295565b9050828482611da391906130f3565b14611de3576040517f08c379a0000000000000000000000000000000000000000000000000000000008152600401611dda90612f8f565b60405180910390fd5b809150505b92915050565b6000611e3083836040518060400160405280601a81526020017f536166654d6174683a206469766973696f6e206279207a65726f00000000000081525061241e565b905092915050565b6000611e7a83836040518060400160405280601e81526020017f536166654d6174683a207375627472616374696f6e206f766572666c6f770000815250612481565b905092915050565b600080600183611e92919061309d565b600a611e9e9190613177565b85611ea99190613295565b90506000600a60058684611ebd91906130f3565b611ec7919061309d565b611ed191906130f3565b905080925050509392505050565b60006001600760008460000160009054906101000a900473ffffffffffffffffffffffffffffffffffffffff1673ffffffffffffffffffffffffffffffffffffffff1673ffffffffffffffffffffffffffffffffffffffff16815260200190815260200160002054611f5191906132ef565b90506000600760008460000160009054906101000a900473ffffffffffffffffffffffffffffffffffffffff1673ffffffffffffffffffffffffffffffffffffffff1673ffffffffffffffffffffffffffffffffffffffff1681526020019081526020016000208190555060008190505b6001600380549050611fd491906132ef565b8110156122e7576003600182611fea919061309d565b81548110612021577f4e487b7100000000000000000000000000000000000000000000000000000000600052603260045260246000fd5b906000526020600020906005020160038281548110612069577f4e487b7100000000000000000000000000000000000000000000000000000000600052603260045260246000fd5b90600052602060002090600502016000820160009054906101000a900473ffffffffffffffffffffffffffffffffffffffff168160000160006101000a81548173ffffffffffffffffffffffffffffffffffffffff021916908373ffffffffffffffffffffffffffffffffffffffff1602179055506001820154816001015560028201548160020155600382015481600301556004820160009054906101000a900460ff168160040160006101000a81548160ff02191690831515021790555090505061218b60016003838154811061216b577f4e487b7100000000000000000000000000000000000000000000000000000000600052603260045260246000fd5b906000526020600020906005020160030154611e3890919063ffffffff16565b600382815481106121c5577f4e487b7100000000000000000000000000000000000000000000000000000000600052603260045260246000fd5b90600052602060002090600502016003018190555060038181548110612214577f4e487b7100000000000000000000000000000000000000000000000000000000600052603260045260246000fd5b9060005260206000209060050201600301546007600060038481548110612264577f4e487b7100000000000000000000000000000000000000000000000000000000600052603260045260246000fd5b906000526020600020906005020160000160009054906101000a900473ffffffffffffffffffffffffffffffffffffffff1673ffffffffffffffffffffffffffffffffffffffff1673ffffffffffffffffffffffffffffffffffffffff1681526020019081526020016000208190555080806122df9061339e565b915050611fc2565b506003805480612320577f4e487b7100000000000000000000000000000000000000000000000000000000600052603160045260246000fd5b6001900381819060005260206000209060050201600080820160006101000a81549073ffffffffffffffffffffffffffffffffffffffff02191690556001820160009055600282016000905560038201600090556004820160006101000a81549060ff0219169055505090556123a26001600454611e3890919063ffffffff16565b600481905550600060045414156123bc5760016004819055505b5050565b60008082846123cf919061309d565b905083811015612414576040517f08c379a000000000000000000000000000000000000000000000000000000000815260040161240b90612e6f565b60405180910390fd5b8091505092915050565b60008083118290612465576040517f08c379a000000000000000000000000000000000000000000000000000000000815260040161245c9190612ded565b60405180910390fd5b506000838561247491906130f3565b9050809150509392505050565b60008383111582906124c9576040517f08c379a00000000000000000000000000000000000000000000000000000000081526004016124c09190612ded565b60405180910390fd5b50600083856124d891906132ef565b9050809150509392505050565b6000813590506124f481613463565b92915050565b6000813590506125098161347a565b92915050565b60008151905061251e8161347a565b92915050565b60008135905061253381613491565b92915050565b60008151905061254881613491565b92915050565b60006020828403121561256057600080fd5b600061256e848285016124e5565b91505092915050565b60006020828403121561258957600080fd5b6000612597848285016124fa565b91505092915050565b6000602082840312156125b257600080fd5b60006125c08482850161250f565b91505092915050565b6000602082840312156125db57600080fd5b60006125e984828501612524565b91505092915050565b60006020828403121561260457600080fd5b600061261284828501612539565b91505092915050565b60008060006060848603121561263057600080fd5b600061263e86828701612524565b935050602061264f86828701612524565b925050604061266086828701612524565b9150509250925092565b61267381613323565b82525050565b600061268482613081565b61268e818561308c565b935061269e81856020860161336b565b6126a781613445565b840191505092915050565b60006126bf60228361308c565b91507f4572726f72207472616e7366657246726f6d206f6e2074686520636f6e74726160008301527f63740000000000000000000000000000000000000000000000000000000000006020830152604082019050919050565b6000612725602b8361308c565b91507f4e6f742066756e6473206465706f736974656420696e20746865207374616b6960008301527f6e6720636f6e74726163740000000000000000000000000000000000000000006020830152604082019050919050565b600061278b60258361308c565b91507f4f6e6c792074686520476c71204465706c6f7965722063616e2041505920726560008301527f77617264730000000000000000000000000000000000000000000000000000006020830152604082019050919050565b60006127f1601b8361308c565b91507f536166654d6174683a206164646974696f6e206f766572666c6f7700000000006000830152602082019050919050565b6000612831602d8361308c565b91507f54686520656d657267656e63792077697468647261772066656174757265206960008301527f73206e6f7420656e61626c6564000000000000000000000000000000000000006020830152604082019050919050565b600061289760228361308c565b91507f496e73756666696369656e742066756e64732066726f6d207468652073656e6460008301527f65720000000000000000000000000000000000000000000000000000000000006020830152604082019050919050565b60006128fd60158361308c565b91507f496e76616c6964207374616b696e6720696e64657800000000000000000000006000830152602082019050919050565b600061293d60428361308c565b91507f4f6e6c792074686520476c71204465706c6f7965722063616e2072656d6f766560008301527f20696e63656e746976652066726f6d2074686520736d6172742d636f6e74726160208301527f63740000000000000000000000000000000000000000000000000000000000006040830152606082019050919050565b60006129c960388361308c565b91507f4e6f7420656e6f7567682066756e647320696e20746865207374616b696e672060008301527f70726f6772616d20746f20636c61696d207265776172647300000000000000006020830152604082019050919050565b6000612a2f60368361308c565b91507f4f6e6c792074686520476c71204465706c6f7965722063616e206368616e676560008301527f20626c6f636b73207370656e74207065722079656172000000000000000000006020830152604082019050919050565b6000612a95602d8361308c565b91507f496e73756666696369656e742066756e64732066726f6d20746865206465706c60008301527f6f79657220636f6e7472616374000000000000000000000000000000000000006020830152604082019050919050565b6000612afb60148361308c565b91507f4e6f207265776172647320746f20636c61696d2e0000000000000000000000006000830152602082019050919050565b6000612b3b60218361308c565b91507f536166654d6174683a206d756c7469706c69636174696f6e206f766572666c6f60008301527f77000000000000000000000000000000000000000000000000000000000000006020830152604082019050919050565b6000612ba1603f8361308c565b91507f4f6e6c792074686520476c71204465706c6f7965722063616e2061646420696e60008301527f63656e7469766520696e746f2074686520736d6172742d636f6e7472616374006020830152604082019050919050565b6000612c07601e8361308c565b91507f4572726f72207472616e73666572206f6e2074686520636f6e747261637400006000830152602082019050919050565b6000612c4760448361308c565b91507f4f6e6c792074686520476c71204465706c6f7965722063616e206368616e676560008301527f20746865207374617465206f662074686520656d657267656e6379207769746860208301527f64726177000000000000000000000000000000000000000000000000000000006040830152606082019050919050565b6000612cd3603e8361308c565b91507f596f7520646f6e74206861766520616e7920746965722072616e6b206375727260008301527f656e746c7920696e20746865205374616b696e6720636f6e74726163742e00006020830152604082019050919050565b612d3581613361565b82525050565b6000602082019050612d50600083018461266a565b92915050565b6000606082019050612d6b600083018661266a565b612d78602083018561266a565b612d856040830184612d2c565b949350505050565b6000604082019050612da2600083018561266a565b612daf6020830184612d2c565b9392505050565b6000606082019050612dcb600083018661266a565b612dd86020830185612d2c565b612de56040830184612d2c565b949350505050565b60006020820190508181036000830152612e078184612679565b905092915050565b60006020820190508181036000830152612e28816126b2565b9050919050565b60006020820190508181036000830152612e4881612718565b9050919050565b60006020820190508181036000830152612e688161277e565b9050919050565b60006020820190508181036000830152612e88816127e4565b9050919050565b60006020820190508181036000830152612ea881612824565b9050919050565b60006020820190508181036000830152612ec88161288a565b9050919050565b60006020820190508181036000830152612ee8816128f0565b9050919050565b60006020820190508181036000830152612f0881612930565b9050919050565b60006020820190508181036000830152612f28816129bc565b9050919050565b60006020820190508181036000830152612f4881612a22565b9050919050565b60006020820190508181036000830152612f6881612a88565b9050919050565b60006020820190508181036000830152612f8881612aee565b9050919050565b60006020820190508181036000830152612fa881612b2e565b9050919050565b60006020820190508181036000830152612fc881612b94565b9050919050565b60006020820190508181036000830152612fe881612bfa565b9050919050565b6000602082019050818103600083015261300881612c3a565b9050919050565b6000602082019050818103600083015261302881612cc6565b9050919050565b60006020820190506130446000830184612d2c565b92915050565b600060608201905061305f6000830186612d2c565b61306c6020830185612d2c565b6130796040830184612d2c565b949350505050565b600081519050919050565b600082825260208201905092915050565b60006130a882613361565b91506130b383613361565b9250827fffffffffffffffffffffffffffffffffffffffffffffffffffffffffffffffff038211156130e8576130e76133e7565b5b828201905092915050565b60006130fe82613361565b915061310983613361565b92508261311957613118613416565b5b828204905092915050565b6000808291508390505b600185111561316e5780860481111561314a576131496133e7565b5b60018516156131595780820291505b808102905061316785613456565b945061312e565b94509492505050565b600061318282613361565b915061318d83613361565b92506131ba7fffffffffffffffffffffffffffffffffffffffffffffffffffffffffffffffff84846131c2565b905092915050565b6000826131d2576001905061328e565b816131e0576000905061328e565b81600181146131f657600281146132005761322f565b600191505061328e565b60ff841115613212576132116133e7565b5b8360020a915084821115613229576132286133e7565b5b5061328e565b5060208310610133831016604e8410600b84101617156132645782820a90508381111561325f5761325e6133e7565b5b61328e565b6132718484846001613124565b92509050818404811115613288576132876133e7565b5b81810290505b9392505050565b60006132a082613361565b91506132ab83613361565b9250817fffffffffffffffffffffffffffffffffffffffffffffffffffffffffffffffff04831182151516156132e4576132e36133e7565b5b828202905092915050565b60006132fa82613361565b915061330583613361565b925082821015613318576133176133e7565b5b828203905092915050565b600061332e82613341565b9050919050565b60008115159050919050565b600073ffffffffffffffffffffffffffffffffffffffff82169050919050565b6000819050919050565b60005b8381101561338957808201518184015260208101905061336e565b83811115613398576000848401525b50505050565b60006133a982613361565b91507fffffffffffffffffffffffffffffffffffffffffffffffffffffffffffffffff8214156133dc576133db6133e7565b5b600182019050919050565b7f4e487b7100000000000000000000000000000000000000000000000000000000600052601160045260246000fd5b7f4e487b7100000000000000000000000000000000000000000000000000000000600052601260045260246000fd5b6000601f19601f8301169050919050565b60008160011c9050919050565b61346c81613323565b811461347757600080fd5b50565b61348381613335565b811461348e57600080fd5b50565b61349a81613361565b81146134a557600080fd5b5056fea2646970667358221220f80844dfc0916b5ef46bfcf2cf7aef23128e431a03e716da2118bd1e903bb89d64736f6c63430008000033",
  "immutableReferences": {},
  "source": "// SPDX-License-Identifier: MIT\r\n\r\npragma solidity ^0.8.0;\r\n\r\nimport \"./libs/maths/SafeMath.sol\";\r\nimport \"./libs/string.sol\";\r\nimport \"./interfaces/IERC20.sol\";\r\nimport \"./libs/sort.sol\";\r\n\r\nstruct GlqStaker {\r\n    address wallet;\r\n    uint256 block_number;\r\n    uint256 amount;\r\n    uint256 index_at;\r\n    bool already_withdrawn;\r\n}\r\n\r\nstruct GraphLinqApyStruct {\r\n    uint256 tier1Apy;\r\n    uint256 tier2Apy;\r\n    uint256 tier3Apy;      \r\n}\r\n\r\ncontract GlqStakingContract {\r\n\r\n    using SafeMath for uint256;\r\n    using strings for *;\r\n    using QuickSorter for *;\r\n\r\n    event NewStakerRegistered (\r\n        address staker_address,\r\n        uint256 at_block,\r\n        uint256 amount_registered\r\n    );\r\n\r\n    /*\r\n    ** Address of the GLQ token hash: 0x9F9c8ec3534c3cE16F928381372BfbFBFb9F4D24\r\n    */\r\n    address private _glqTokenAddress;\r\n\r\n    /*\r\n    ** Manager of the contract to add/remove APYs bonuses into the staking contract\r\n    */\r\n    address private _glqDeployerManager;\r\n\r\n    /*\r\n    ** Current amount of GLQ available in the pool as rewards\r\n    */\r\n    uint256 private _totalGlqIncentive;\r\n\r\n    GlqStaker[]                     private _stakers;\r\n    uint256                         private _stakersIndex;\r\n    uint256                         private _totalStaked;\r\n    bool                            private _emergencyWithdraw;\r\n\r\n    mapping(address => uint256)     private _indexStaker;\r\n    uint256                         private _blocksPerYear;\r\n    GraphLinqApyStruct              private _apyStruct;\r\n\r\n    constructor(address glqAddr, address manager) {\r\n        _glqTokenAddress = glqAddr;\r\n        _glqDeployerManager = manager;\r\n\r\n        _totalStaked = 0;\r\n        _stakersIndex = 1;\r\n        \r\n        //_blocksPerYear = 2250000;\r\n        _blocksPerYear = 10;\r\n        \r\n        // default t1: 25%, t2: 12.5%, t3: 6.5%\r\n        _apyStruct = GraphLinqApyStruct(25*1e18, 12500000000000000000, 6500000000000000000);\r\n    }\r\n\r\n\r\n    /* Getter ---- Read-Only */\r\n\r\n    /*\r\n    ** Return the sender wallet position from the tier system\r\n    */\r\n    function getWalletCurrentTier(address wallet) public view returns (uint256) {\r\n        uint256 currentTier = 3;\r\n        uint256 index = _indexStaker[wallet];\r\n        require(\r\n            index != 0,\r\n            \"You dont have any tier rank currently in the Staking contract.\"\r\n        );\r\n        uint256 walletAggregatedIndex = (index).mul(1e18);\r\n\r\n        // Total length of stakers\r\n        uint256 totalIndex = _stakers.length.mul(1e18);\r\n        // 15% of hodlers in T1 \r\n        uint256 t1MaxIndex = totalIndex.div(100).mul(15);        \r\n        // 55% of hodlers in T2\r\n        uint256 t2MaxIndex = totalIndex.div(100).mul(55);\r\n\r\n        if (walletAggregatedIndex <= t1MaxIndex) {\r\n            currentTier = 1;\r\n        } else if (walletAggregatedIndex > t1MaxIndex && walletAggregatedIndex <= t2MaxIndex) {\r\n            currentTier = 2;\r\n        }\r\n\r\n        return currentTier;\r\n    }\r\n\r\n    /*\r\n    ** Return rank position of a wallet\r\n    */\r\n    function getPosition(address wallet) public view returns (uint256) {\r\n         uint256 index = _indexStaker[wallet];\r\n         return index;\r\n    }\r\n\r\n    /*\r\n    ** Return the amount of GLQ that a wallet can currently claim from the staking contract\r\n    */\r\n    function getGlqToClaim(address wallet) public view returns(uint256) {\r\n        uint256 index = _indexStaker[wallet];\r\n        require (index > 0, \"Invalid staking index\");\r\n        GlqStaker storage staker = _stakers[index - 1];\r\n\r\n        uint256 calculatedApr = getWaitingPercentAPR(wallet);\r\n        return staker.amount.mul(calculatedApr.div(1e16)).div(10000);\r\n    }\r\n\r\n    /*\r\n    ** Return the current percent winnable for a staker wallet\r\n    */\r\n    function getWaitingPercentAPR(address wallet) public view returns(uint256) {\r\n        uint256 index = _indexStaker[wallet];\r\n        require (index > 0, \"Invalid staking index\");\r\n        GlqStaker storage staker = _stakers[index - 1];\r\n\r\n        uint256 walletTier = getWalletCurrentTier(msg.sender);\r\n        uint256 blocksSpent = block.number.sub(staker.block_number);\r\n        if (blocksSpent == 0) { return 0; }\r\n        uint256 percentYearSpent = percent(blocksSpent, _blocksPerYear, 2);\r\n\r\n        uint256 percentAprGlq = _apyStruct.tier3Apy;\r\n        if (walletTier == 1) {\r\n            percentAprGlq = _apyStruct.tier1Apy;\r\n        } else if (walletTier == 2) { \r\n            percentAprGlq = _apyStruct.tier2Apy;\r\n        }\r\n\r\n        return percentAprGlq.mul(percentYearSpent).div(100);\r\n    }\r\n\r\n    /*\r\n    ** Return the total amount of GLQ as incentive rewards in the contract\r\n    */\r\n    function getTotalIncentive() public view returns (uint256) {\r\n        return _totalGlqIncentive;\r\n    }\r\n\r\n    /*\r\n    ** Return the total amount in staking for an hodler.\r\n    */\r\n    function getDepositedGLQ(address wallet) public view returns (uint256) {\r\n        uint256 index = _indexStaker[wallet];\r\n        if (index == 0) { return 0; }\r\n        return _stakers[index-1].amount;\r\n    }\r\n\r\n    /*\r\n    ** Count the total numbers of stakers in the contract\r\n    */\r\n    function getTotalStakers() public view returns(uint256) {\r\n        return _stakers.length;\r\n    }\r\n\r\n    /*\r\n    ** Return all APY per different Tier\r\n    */\r\n    function getTiersAPY() public view returns(uint256, uint256, uint256) {\r\n        return (_apyStruct.tier1Apy, _apyStruct.tier2Apy, _apyStruct.tier3Apy);\r\n    }\r\n\r\n    /*\r\n    ** Return the Total staked amount\r\n    */\r\n    function getTotalStaked() public view returns(uint256) {\r\n        return _totalStaked;\r\n    }\r\n\r\n    /* Getter ---- Read-Only */\r\n\r\n\r\n    /* Setter - Read & Modifications */\r\n\r\n\r\n    /*\r\n    ** Enable emergency withdraw by GLQ Deployer\r\n    */\r\n    function setEmergencyWithdraw(bool state) public {\r\n        require (\r\n            msg.sender == _glqDeployerManager,\r\n            \"Only the Glq Deployer can change the state of the emergency withdraw\"\r\n        );\r\n        _emergencyWithdraw = state;\r\n    }\r\n\r\n    /*\r\n    ** Set numbers of blocks spent per year to calculate claim rewards\r\n    */\r\n    function setBlocksPerYear(uint256 blocks) public {\r\n        require(\r\n            msg.sender == _glqDeployerManager,\r\n            \"Only the Glq Deployer can change blocks spent per year\");\r\n        _blocksPerYear = blocks;\r\n    }\r\n\r\n    /*\r\n    ** Update the APY rewards for each tier in percent per year\r\n    */\r\n    function setApyPercentRewards(uint256 t1, uint256 t2, uint256 t3) public {\r\n        require(\r\n            msg.sender == _glqDeployerManager,\r\n            \"Only the Glq Deployer can APY rewards\");\r\n        GraphLinqApyStruct memory newApy = GraphLinqApyStruct(t1, t2, t3);\r\n        _apyStruct = newApy;\r\n    }\r\n\r\n    /*\r\n    ** Add GLQ liquidity in the staking contract for stakers rewards \r\n    */\r\n    function addIncentive(uint256 glqAmount) public {\r\n        IERC20 glqToken = IERC20(_glqTokenAddress);\r\n        require(\r\n            msg.sender == _glqDeployerManager,\r\n            \"Only the Glq Deployer can add incentive into the smart-contract\");\r\n        require(\r\n            glqToken.balanceOf(msg.sender) >= glqAmount,\r\n            \"Insufficient funds from the deployer contract\");\r\n        require(\r\n            glqToken.transferFrom(msg.sender, address(this), glqAmount) == true,\r\n            \"Error transferFrom on the contract\"\r\n        );\r\n        _totalGlqIncentive += glqAmount;\r\n    }\r\n\r\n    /*\r\n    ** Remove GLQ liquidity from the staking contract for stakers rewards \r\n    */\r\n    function removeIncentive(uint256 glqAmount) public {\r\n        IERC20 glqToken = IERC20(_glqTokenAddress);\r\n        require(\r\n            msg.sender == _glqDeployerManager,\r\n            \"Only the Glq Deployer can remove incentive from the smart-contract\");\r\n        require(\r\n            glqToken.balanceOf(address(this)) >= glqAmount,\r\n            \"Insufficient funds from the deployer contract\");\r\n        require(\r\n            glqToken.transfer(msg.sender, glqAmount) == true,\r\n            \"Error transfer on the contract\"\r\n        );\r\n\r\n        _totalGlqIncentive -= glqAmount;\r\n    }\r\n\r\n\r\n    /*\r\n    ** Deposit GLQ in the staking contract to stake & earn\r\n    */\r\n    function depositGlq(uint256 glqAmount) public {\r\n        IERC20 glqToken = IERC20(_glqTokenAddress);\r\n        require(\r\n            glqToken.balanceOf(msg.sender) >= glqAmount,\r\n            \"Insufficient funds from the sender\");\r\n        require(\r\n           glqToken.transferFrom(msg.sender, address(this), glqAmount) == true,\r\n           \"Error transferFrom on the contract\"\r\n        );\r\n\r\n        uint256 index = _indexStaker[msg.sender];\r\n        _totalStaked += glqAmount;\r\n\r\n        if (index == 0) {\r\n            GlqStaker memory staker = GlqStaker(msg.sender, block.number, glqAmount, _stakersIndex, false);\r\n            _stakers.push(staker);\r\n            _indexStaker[msg.sender] = _stakersIndex;\r\n\r\n            // emit event of a new staker registered at current block position\r\n            emit NewStakerRegistered(msg.sender, block.number, glqAmount);\r\n            _stakersIndex = _stakersIndex.add(1);\r\n        }\r\n        else {\r\n            // claim rewards before adding new staking amount\r\n            if (_stakers[index-1].amount > 0) {\r\n                claimGlq();\r\n            }\r\n            _stakers[index-1].amount += glqAmount;\r\n        }\r\n    }\r\n\r\n    function removeStaker(GlqStaker storage staker) private {\r\n        uint256 currentIndex = _indexStaker[staker.wallet]-1;\r\n        _indexStaker[staker.wallet] = 0;\r\n        for (uint256 i= currentIndex ; i < _stakers.length-1 ; i++) {\r\n            _stakers[i] = _stakers[i+1];\r\n            _stakers[i].index_at = _stakers[i].index_at.sub(1);\r\n            _indexStaker[_stakers[i].wallet] = _stakers[i].index_at;\r\n        }\r\n        _stakers.pop();\r\n\r\n        // Remove the staker and decrease stakers index\r\n        _stakersIndex = _stakersIndex.sub(1);\r\n        if (_stakersIndex == 0) { _stakersIndex = 1; }\r\n    }\r\n\r\n    /*\r\n    ** Emergency withdraw enabled by GLQ team in an emergency case\r\n    */\r\n    function emergencyWithdraw() public {\r\n        require(\r\n            _emergencyWithdraw == true,\r\n            \"The emergency withdraw feature is not enabled\"\r\n        );\r\n        uint256 index = _indexStaker[msg.sender];\r\n        require (index > 0, \"Invalid staking index\");\r\n        GlqStaker storage staker = _stakers[index - 1];\r\n        IERC20 glqToken = IERC20(_glqTokenAddress);\r\n\r\n        require(\r\n            staker.amount > 0,\r\n         \"Not funds deposited in the staking contract\");\r\n\r\n        require(\r\n            glqToken.transfer(msg.sender, staker.amount) == true,\r\n            \"Error transfer on the contract\"\r\n        );\r\n    }\r\n\r\n    /*\r\n    ** Withdraw Glq from the staking contract (reduce the tier position)\r\n    */\r\n    function withdrawGlq() public {\r\n        uint256 index = _indexStaker[msg.sender];\r\n        require (index > 0, \"Invalid staking index\");\r\n        GlqStaker storage staker = _stakers[index - 1];\r\n        IERC20 glqToken = IERC20(_glqTokenAddress);\r\n        require(\r\n            staker.amount > 0,\r\n         \"Not funds deposited in the staking contract\");\r\n        staker.amount = 0;\r\n    \r\n        //auto claim when withdraw\r\n        claimGlq();\r\n\r\n        _totalStaked -= staker.amount;\r\n        require(\r\n            glqToken.balanceOf(address(this)) >= staker.amount,\r\n            \"Insufficient funds from the deployer contract\");\r\n        require(\r\n            glqToken.transfer(msg.sender, staker.amount) == true,\r\n            \"Error transfer on the contract\"\r\n        );\r\n        \r\n        \r\n        if (staker.already_withdrawn) {\r\n            removeStaker(staker);\r\n        } else {\r\n            staker.already_withdrawn = true;\r\n        }\r\n    }\r\n\r\n    function percent(uint256 numerator, uint256 denominator, uint256 precision) private pure returns(uint256) {\r\n        uint256 _numerator  = numerator * 10 ** (precision+1);\r\n        // with rounding of last digit\r\n        uint256 _quotient =  ((_numerator / denominator) + 5) / 10;\r\n        return ( _quotient);\r\n    }\r\n\r\n    /*\r\n    ** Claim waiting rewards from the staking contract\r\n    */\r\n    function claimGlq() public returns(uint256) {\r\n        uint256 index = _indexStaker[msg.sender];\r\n        require (index > 0, \"Invalid staking index\");\r\n        GlqStaker storage staker = _stakers[index - 1];\r\n        uint256 glqToClaim = getGlqToClaim(msg.sender);\r\n        IERC20 glqToken = IERC20(_glqTokenAddress);\r\n\r\n        require(\r\n            glqToClaim > 0,\r\n            \"No rewards to claim.\"\r\n        );\r\n        require(\r\n            glqToken.balanceOf(address(this)) > glqToClaim,\r\n            \"Not enough funds in the staking program to claim rewards\"\r\n        );\r\n\r\n        staker.block_number = block.number;\r\n\r\n        require(\r\n            glqToken.transfer(msg.sender, glqToClaim) == true,\r\n            \"Error transfer on the contract\"\r\n        );\r\n        return (glqToClaim);\r\n    }\r\n\r\n    /* Setter - Read & Modifications */\r\n\r\n}",
  "sourcePath": "E:/eth/graphlinq/GraphLinq.Engine/GraphLinq.StakingContract/contracts/GlqStakingContract.sol",
  "compiler": {
    "name": "solc",
    "version": "0.8.0+commit.c7dfd78e.Emscripten.clang"
  },
  "schemaVersion": "3.4.0",
  "updatedAt": "2021-05-28T00:46:32.340Z",
  "networkType": "ethereum",
  "devdoc": {
    "kind": "dev",
    "methods": {},
    "version": 1
  },
  "userdoc": {
    "kind": "user",
    "methods": {},
    "version": 1
  }
}