{
  "contractName": "GlqStakingContract",
  "abi": [
    {
      "inputs": [
        {
          "internalType": "address",
          "name": "glqAddr",
          "type": "address"
        },
        {
          "internalType": "address",
          "name": "manager",
          "type": "address"
        }
      ],
      "stateMutability": "nonpayable",
      "type": "constructor"
    },
    {
      "anonymous": false,
      "inputs": [
        {
          "indexed": false,
          "internalType": "address",
          "name": "staker_address",
          "type": "address"
        },
        {
          "indexed": false,
          "internalType": "uint256",
          "name": "at_block",
          "type": "uint256"
        },
        {
          "indexed": false,
          "internalType": "uint256",
          "name": "amount_registered",
          "type": "uint256"
        }
      ],
      "name": "NewStakerRegistered",
      "type": "event"
    },
    {
      "inputs": [
        {
          "internalType": "address",
          "name": "wallet",
          "type": "address"
        }
      ],
      "name": "getWalletCurrentTier",
      "outputs": [
        {
          "internalType": "uint256",
          "name": "",
          "type": "uint256"
        }
      ],
      "stateMutability": "view",
      "type": "function",
      "constant": true
    },
    {
      "inputs": [
        {
          "internalType": "address",
          "name": "wallet",
          "type": "address"
        }
      ],
      "name": "getPosition",
      "outputs": [
        {
          "internalType": "uint256",
          "name": "",
          "type": "uint256"
        }
      ],
      "stateMutability": "view",
      "type": "function",
      "constant": true
    },
    {
      "inputs": [
        {
          "internalType": "address",
          "name": "wallet",
          "type": "address"
        }
      ],
      "name": "getGlqToClaim",
      "outputs": [
        {
          "internalType": "uint256",
          "name": "",
          "type": "uint256"
        }
      ],
      "stateMutability": "view",
      "type": "function",
      "constant": true
    },
    {
      "inputs": [
        {
          "internalType": "address",
          "name": "wallet",
          "type": "address"
        }
      ],
      "name": "getWaitingPercentAPR",
      "outputs": [
        {
          "internalType": "uint256",
          "name": "",
          "type": "uint256"
        }
      ],
      "stateMutability": "view",
      "type": "function",
      "constant": true
    },
    {
      "inputs": [],
      "name": "getTotalIncentive",
      "outputs": [
        {
          "internalType": "uint256",
          "name": "",
          "type": "uint256"
        }
      ],
      "stateMutability": "view",
      "type": "function",
      "constant": true
    },
    {
      "inputs": [
        {
          "internalType": "address",
          "name": "wallet",
          "type": "address"
        }
      ],
      "name": "getDepositedGLQ",
      "outputs": [
        {
          "internalType": "uint256",
          "name": "",
          "type": "uint256"
        }
      ],
      "stateMutability": "view",
      "type": "function",
      "constant": true
    },
    {
      "inputs": [],
      "name": "getTotalStakers",
      "outputs": [
        {
          "internalType": "uint256",
          "name": "",
          "type": "uint256"
        }
      ],
      "stateMutability": "view",
      "type": "function",
      "constant": true
    },
    {
      "inputs": [],
      "name": "getTiersAPY",
      "outputs": [
        {
          "internalType": "uint256",
          "name": "",
          "type": "uint256"
        },
        {
          "internalType": "uint256",
          "name": "",
          "type": "uint256"
        },
        {
          "internalType": "uint256",
          "name": "",
          "type": "uint256"
        }
      ],
      "stateMutability": "view",
      "type": "function",
      "constant": true
    },
    {
      "inputs": [],
      "name": "getTotalStaked",
      "outputs": [
        {
          "internalType": "uint256",
          "name": "",
          "type": "uint256"
        }
      ],
      "stateMutability": "view",
      "type": "function",
      "constant": true
    },
    {
      "inputs": [],
      "name": "getTopStakers",
      "outputs": [
        {
          "internalType": "address[]",
          "name": "",
          "type": "address[]"
        },
        {
          "internalType": "uint256[]",
          "name": "",
          "type": "uint256[]"
        }
      ],
      "stateMutability": "view",
      "type": "function",
      "constant": true
    },
    {
      "inputs": [
        {
          "internalType": "bool",
          "name": "state",
          "type": "bool"
        }
      ],
      "name": "setEmergencyWithdraw",
      "outputs": [],
      "stateMutability": "nonpayable",
      "type": "function"
    },
    {
      "inputs": [
        {
          "internalType": "uint256",
          "name": "blocks",
          "type": "uint256"
        }
      ],
      "name": "setBlocksPerYear",
      "outputs": [],
      "stateMutability": "nonpayable",
      "type": "function"
    },
    {
      "inputs": [
        {
          "internalType": "uint256",
          "name": "t1",
          "type": "uint256"
        },
        {
          "internalType": "uint256",
          "name": "t2",
          "type": "uint256"
        },
        {
          "internalType": "uint256",
          "name": "t3",
          "type": "uint256"
        }
      ],
      "name": "setApyPercentRewards",
      "outputs": [],
      "stateMutability": "nonpayable",
      "type": "function"
    },
    {
      "inputs": [
        {
          "internalType": "uint256",
          "name": "glqAmount",
          "type": "uint256"
        }
      ],
      "name": "addIncentive",
      "outputs": [],
      "stateMutability": "nonpayable",
      "type": "function"
    },
    {
      "inputs": [
        {
          "internalType": "uint256",
          "name": "glqAmount",
          "type": "uint256"
        }
      ],
      "name": "removeIncentive",
      "outputs": [],
      "stateMutability": "nonpayable",
      "type": "function"
    },
    {
      "inputs": [
        {
          "internalType": "uint256",
          "name": "glqAmount",
          "type": "uint256"
        }
      ],
      "name": "depositGlq",
      "outputs": [],
      "stateMutability": "nonpayable",
      "type": "function"
    },
    {
      "inputs": [],
      "name": "emergencyWithdraw",
      "outputs": [],
      "stateMutability": "nonpayable",
      "type": "function"
    },
    {
      "inputs": [],
      "name": "withdrawGlq",
      "outputs": [],
      "stateMutability": "nonpayable",
      "type": "function"
    },
    {
      "inputs": [],
      "name": "claimGlq",
      "outputs": [
        {
          "internalType": "uint256",
          "name": "",
          "type": "uint256"
        }
      ],
      "stateMutability": "nonpayable",
      "type": "function"
    }
  ],
  "bytecode": "0x60806040523480156200001157600080fd5b5060405162003d3238038062003d32833981810160405281019062000037919062000146565b816000806101000a81548173ffffffffffffffffffffffffffffffffffffffff021916908373ffffffffffffffffffffffffffffffffffffffff16021790555080600160006101000a81548173ffffffffffffffffffffffffffffffffffffffff021916908373ffffffffffffffffffffffffffffffffffffffff16021790555060006005819055506001600481905550600a600881905550604051806060016040528068015af1d78b58c40000815260200167ad78ebc5ac6200008152602001675a34a38fc00a000081525060096000820151816000015560208201518160010155604082015181600201559050505050620001d5565b6000815190506200014081620001bb565b92915050565b600080604083850312156200015a57600080fd5b60006200016a858286016200012f565b92505060206200017d858286016200012f565b9150509250929050565b600062000194826200019b565b9050919050565b600073ffffffffffffffffffffffffffffffffffffffff82169050919050565b620001c68162000187565b8114620001d257600080fd5b50565b613b4d80620001e56000396000f3fe608060405234801561001057600080fd5b50600436106101215760003560e01c8063c7dd6f07116100ad578063db2e21bc11610071578063db2e21bc1461030d578063e050b2e214610317578063e5fa2b7014610321578063ea26b02c1461033d578063f2190dce1461035957610121565b8063c7dd6f0714610267578063c88f4a9514610283578063d48e85b4146102a3578063d6ed106f146102d3578063d7ba276b146102ef57610121565b8063220e0726116100f4578063220e0726146101c057806331ed0db4146101de57806370bb9a25146101fc57806379e591701461021b578063b2f183a61461023757610121565b806304e21762146101265780630917e7761461015657806310ae4e991461017457806316c1973914610190575b600080fd5b610140600480360381019061013b9190612a0a565b610389565b60405161014d919061362c565b60405180910390f35b61015e6104e9565b60405161016b919061362c565b60405180910390f35b61018e60048036038101906101899190612ad7565b6104f3565b005b6101aa60048036038101906101a59190612a0a565b6105cc565b6040516101b7919061362c565b60405180910390f35b6101c861061a565b6040516101d5919061362c565b60405180910390f35b6101e6610920565b6040516101f3919061362c565b60405180910390f35b61020461092d565b6040516102129291906133b3565b60405180910390f35b61023560048036038101906102309190612a85565b610dbf565b005b610251600480360381019061024c9190612a0a565b611030565b60405161025e919061362c565b60405180910390f35b610281600480360381019061027c9190612a33565b6110e9565b005b61028b611196565b60405161029a93929190613647565b60405180910390f35b6102bd60048036038101906102b89190612a0a565b6111b8565b6040516102ca919061362c565b60405180910390f35b6102ed60048036038101906102e89190612a85565b61134f565b005b6102f76115c2565b604051610304919061362c565b60405180910390f35b6103156115cc565b005b61031f61184a565b005b61033b60048036038101906103369190612a85565b611bb4565b005b61035760048036038101906103529190612a85565b611c4e565b005b610373600480360381019061036e9190612a0a565b6120f4565b604051610380919061362c565b60405180910390f35b600080600390506000600760008573ffffffffffffffffffffffffffffffffffffffff1673ffffffffffffffffffffffffffffffffffffffff1681526020019081526020016000205490506000811415610418576040517f08c379a000000000000000000000000000000000000000000000000000000000815260040161040f9061360c565b60405180910390fd5b6000610435670de0b6b3a76400008361222f90919063ffffffff16565b90506000610459670de0b6b3a764000060038054905061222f90919063ffffffff16565b90506000610484600f6104766064856122aa90919063ffffffff16565b61222f90919063ffffffff16565b905060006104af60376104a16064866122aa90919063ffffffff16565b61222f90919063ffffffff16565b90508184116104c157600195506104db565b81841180156104d05750808411155b156104da57600295505b5b859650505050505050919050565b6000600554905090565b600160009054906101000a900473ffffffffffffffffffffffffffffffffffffffff1673ffffffffffffffffffffffffffffffffffffffff163373ffffffffffffffffffffffffffffffffffffffff1614610583576040517f08c379a000000000000000000000000000000000000000000000000000000000815260040161057a9061344c565b60405180910390fd5b6000604051806060016040528085815260200184815260200183815250905080600960008201518160000155602082015181600101556040820151816002015590505050505050565b600080600760008473ffffffffffffffffffffffffffffffffffffffff1673ffffffffffffffffffffffffffffffffffffffff16815260200190815260200160002054905080915050919050565b600080600760003373ffffffffffffffffffffffffffffffffffffffff1673ffffffffffffffffffffffffffffffffffffffff168152602001908152602001600020549050600081116106a2576040517f08c379a0000000000000000000000000000000000000000000000000000000008152600401610699906134cc565b60405180910390fd5b600060036001836106b3919061395e565b815481106106ea577f4e487b7100000000000000000000000000000000000000000000000000000000600052603260045260246000fd5b906000526020600020906005020190506000610705336120f4565b905060008060009054906101000a900473ffffffffffffffffffffffffffffffffffffffff16905060008211610770576040517f08c379a00000000000000000000000000000000000000000000000000000000081526004016107679061356c565b60405180910390fd5b818173ffffffffffffffffffffffffffffffffffffffff166370a08231306040518263ffffffff1660e01b81526004016107aa9190613301565b60206040518083038186803b1580156107c257600080fd5b505afa1580156107d6573d6000803e3d6000fd5b505050506040513d601f19601f820116820180604052508101906107fa9190612aae565b1161083a576040517f08c379a00000000000000000000000000000000000000000000000000000000081526004016108319061350c565b60405180910390fd5b438360010181905550600115158173ffffffffffffffffffffffffffffffffffffffff1663a9059cbb33856040518363ffffffff1660e01b8152600401610882929190613353565b602060405180830381600087803b15801561089c57600080fd5b505af11580156108b0573d6000803e3d6000fd5b505050506040513d601f19601f820116820180604052508101906108d49190612a5c565b151514610916576040517f08c379a000000000000000000000000000000000000000000000000000000000815260040161090d906135cc565b60405180910390fd5b8194505050505090565b6000600380549050905090565b6060806000600380549050905060608060018310610aba576003600181548110610980577f4e487b7100000000000000000000000000000000000000000000000000000000600052603260045260246000fd5b906000526020600020906005020160000160009054906101000a900473ffffffffffffffffffffffffffffffffffffffff16826000815181106109ec577f4e487b7100000000000000000000000000000000000000000000000000000000600052603260045260246000fd5b602002602001019073ffffffffffffffffffffffffffffffffffffffff16908173ffffffffffffffffffffffffffffffffffffffff16815250506003600181548110610a61577f4e487b7100000000000000000000000000000000000000000000000000000000600052603260045260246000fd5b90600052602060002090600502016002015481600081518110610aad577f4e487b7100000000000000000000000000000000000000000000000000000000600052603260045260246000fd5b6020026020010181815250505b60028310610c37576003600281548110610afd577f4e487b7100000000000000000000000000000000000000000000000000000000600052603260045260246000fd5b906000526020600020906005020160000160009054906101000a900473ffffffffffffffffffffffffffffffffffffffff1682600181518110610b69577f4e487b7100000000000000000000000000000000000000000000000000000000600052603260045260246000fd5b602002602001019073ffffffffffffffffffffffffffffffffffffffff16908173ffffffffffffffffffffffffffffffffffffffff16815250506003600281548110610bde577f4e487b7100000000000000000000000000000000000000000000000000000000600052603260045260246000fd5b90600052602060002090600502016002015481600181518110610c2a577f4e487b7100000000000000000000000000000000000000000000000000000000600052603260045260246000fd5b6020026020010181815250505b60038310610db25760038081548110610c79577f4e487b7100000000000000000000000000000000000000000000000000000000600052603260045260246000fd5b906000526020600020906005020160000160009054906101000a900473ffffffffffffffffffffffffffffffffffffffff1682600281518110610ce5577f4e487b7100000000000000000000000000000000000000000000000000000000600052603260045260246000fd5b602002602001019073ffffffffffffffffffffffffffffffffffffffff16908173ffffffffffffffffffffffffffffffffffffffff168152505060038081548110610d59577f4e487b7100000000000000000000000000000000000000000000000000000000600052603260045260246000fd5b90600052602060002090600502016002015481600281518110610da5577f4e487b7100000000000000000000000000000000000000000000000000000000600052603260045260246000fd5b6020026020010181815250505b8181945094505050509091565b60008060009054906101000a900473ffffffffffffffffffffffffffffffffffffffff169050600160009054906101000a900473ffffffffffffffffffffffffffffffffffffffff1673ffffffffffffffffffffffffffffffffffffffff163373ffffffffffffffffffffffffffffffffffffffff1614610e75576040517f08c379a0000000000000000000000000000000000000000000000000000000008152600401610e6c906134ec565b60405180910390fd5b818173ffffffffffffffffffffffffffffffffffffffff166370a08231306040518263ffffffff1660e01b8152600401610eaf9190613301565b60206040518083038186803b158015610ec757600080fd5b505afa158015610edb573d6000803e3d6000fd5b505050506040513d601f19601f82011682018060405250810190610eff9190612aae565b1015610f40576040517f08c379a0000000000000000000000000000000000000000000000000000000008152600401610f379061354c565b60405180910390fd5b600115158173ffffffffffffffffffffffffffffffffffffffff1663a9059cbb33856040518363ffffffff1660e01b8152600401610f7f929190613353565b602060405180830381600087803b158015610f9957600080fd5b505af1158015610fad573d6000803e3d6000fd5b505050506040513d601f19601f82011682018060405250810190610fd19190612a5c565b151514611013576040517f08c379a000000000000000000000000000000000000000000000000000000000815260040161100a906135cc565b60405180910390fd5b8160026000828254611025919061395e565b925050819055505050565b600080600760008473ffffffffffffffffffffffffffffffffffffffff1673ffffffffffffffffffffffffffffffffffffffff16815260200190815260200160002054905060008114156110885760009150506110e4565b6003600182611097919061395e565b815481106110ce577f4e487b7100000000000000000000000000000000000000000000000000000000600052603260045260246000fd5b9060005260206000209060050201600201549150505b919050565b600160009054906101000a900473ffffffffffffffffffffffffffffffffffffffff1673ffffffffffffffffffffffffffffffffffffffff163373ffffffffffffffffffffffffffffffffffffffff1614611179576040517f08c379a0000000000000000000000000000000000000000000000000000000008152600401611170906135ec565b60405180910390fd5b80600660006101000a81548160ff02191690831515021790555050565b6000806000600960000154600960010154600960020154925092509250909192565b600080600760008473ffffffffffffffffffffffffffffffffffffffff1673ffffffffffffffffffffffffffffffffffffffff16815260200190815260200160002054905060008111611240576040517f08c379a0000000000000000000000000000000000000000000000000000000008152600401611237906134cc565b60405180910390fd5b60006003600183611251919061395e565b81548110611288577f4e487b7100000000000000000000000000000000000000000000000000000000600052603260045260246000fd5b9060005260206000209060050201905060006112a333610389565b905060006112be8360010154436122f490919063ffffffff16565b905060008114156112d657600094505050505061134a565b60006112e682600854600261233e565b905060006009600201549050600184141561130857600960000154905061131b565b600284141561131a5760096001015490505b5b6113416064611333848461222f90919063ffffffff16565b6122aa90919063ffffffff16565b96505050505050505b919050565b60008060009054906101000a900473ffffffffffffffffffffffffffffffffffffffff169050600160009054906101000a900473ffffffffffffffffffffffffffffffffffffffff1673ffffffffffffffffffffffffffffffffffffffff163373ffffffffffffffffffffffffffffffffffffffff1614611405576040517f08c379a00000000000000000000000000000000000000000000000000000000081526004016113fc906135ac565b60405180910390fd5b818173ffffffffffffffffffffffffffffffffffffffff166370a08231336040518263ffffffff1660e01b815260040161143f9190613301565b60206040518083038186803b15801561145757600080fd5b505afa15801561146b573d6000803e3d6000fd5b505050506040513d601f19601f8201168201806040525081019061148f9190612aae565b10156114d0576040517f08c379a00000000000000000000000000000000000000000000000000000000081526004016114c79061354c565b60405180910390fd5b600115158173ffffffffffffffffffffffffffffffffffffffff166323b872dd3330866040518463ffffffff1660e01b81526004016115119392919061331c565b602060405180830381600087803b15801561152b57600080fd5b505af115801561153f573d6000803e3d6000fd5b505050506040513d601f19601f820116820180604052508101906115639190612a5c565b1515146115a5576040517f08c379a000000000000000000000000000000000000000000000000000000000815260040161159c9061340c565b60405180910390fd5b81600260008282546115b7919061370c565b925050819055505050565b6000600254905090565b60011515600660009054906101000a900460ff16151514611622576040517f08c379a00000000000000000000000000000000000000000000000000000000081526004016116199061348c565b60405180910390fd5b6000600760003373ffffffffffffffffffffffffffffffffffffffff1673ffffffffffffffffffffffffffffffffffffffff168152602001908152602001600020549050600081116116a9576040517f08c379a00000000000000000000000000000000000000000000000000000000081526004016116a0906134cc565b60405180910390fd5b600060036001836116ba919061395e565b815481106116f1577f4e487b7100000000000000000000000000000000000000000000000000000000600052603260045260246000fd5b9060005260206000209060050201905060008060009054906101000a900473ffffffffffffffffffffffffffffffffffffffff169050600082600201541161176e576040517f08c379a00000000000000000000000000000000000000000000000000000000081526004016117659061342c565b60405180910390fd5b600115158173ffffffffffffffffffffffffffffffffffffffff1663a9059cbb3385600201546040518363ffffffff1660e01b81526004016117b1929190613353565b602060405180830381600087803b1580156117cb57600080fd5b505af11580156117df573d6000803e3d6000fd5b505050506040513d601f19601f820116820180604052508101906118039190612a5c565b151514611845576040517f08c379a000000000000000000000000000000000000000000000000000000000815260040161183c906135cc565b60405180910390fd5b505050565b6000600760003373ffffffffffffffffffffffffffffffffffffffff1673ffffffffffffffffffffffffffffffffffffffff168152602001908152602001600020549050600081116118d1576040517f08c379a00000000000000000000000000000000000000000000000000000000081526004016118c8906134cc565b60405180910390fd5b600060036001836118e2919061395e565b81548110611919577f4e487b7100000000000000000000000000000000000000000000000000000000600052603260045260246000fd5b9060005260206000209060050201905060008060009054906101000a900473ffffffffffffffffffffffffffffffffffffffff1690506000826002015411611996576040517f08c379a000000000000000000000000000000000000000000000000000000000815260040161198d9061342c565b60405180910390fd5b600082600201819055506119a861061a565b508160020154600560008282546119bf919061395e565b9250508190555081600201548173ffffffffffffffffffffffffffffffffffffffff166370a08231306040518263ffffffff1660e01b8152600401611a049190613301565b60206040518083038186803b158015611a1c57600080fd5b505afa158015611a30573d6000803e3d6000fd5b505050506040513d601f19601f82011682018060405250810190611a549190612aae565b1015611a95576040517f08c379a0000000000000000000000000000000000000000000000000000000008152600401611a8c9061354c565b60405180910390fd5b600115158173ffffffffffffffffffffffffffffffffffffffff1663a9059cbb3385600201546040518363ffffffff1660e01b8152600401611ad8929190613353565b602060405180830381600087803b158015611af257600080fd5b505af1158015611b06573d6000803e3d6000fd5b505050506040513d601f19601f82011682018060405250810190611b2a9190612a5c565b151514611b6c576040517f08c379a0000000000000000000000000000000000000000000000000000000008152600401611b63906135cc565b60405180910390fd5b8160040160009054906101000a900460ff1615611b9157611b8c8261239b565b611baf565b60018260040160006101000a81548160ff0219169083151502179055505b505050565b600160009054906101000a900473ffffffffffffffffffffffffffffffffffffffff1673ffffffffffffffffffffffffffffffffffffffff163373ffffffffffffffffffffffffffffffffffffffff1614611c44576040517f08c379a0000000000000000000000000000000000000000000000000000000008152600401611c3b9061352c565b60405180910390fd5b8060088190555050565b60008060009054906101000a900473ffffffffffffffffffffffffffffffffffffffff169050818173ffffffffffffffffffffffffffffffffffffffff166370a08231336040518263ffffffff1660e01b8152600401611cae9190613301565b60206040518083038186803b158015611cc657600080fd5b505afa158015611cda573d6000803e3d6000fd5b505050506040513d601f19601f82011682018060405250810190611cfe9190612aae565b1015611d3f576040517f08c379a0000000000000000000000000000000000000000000000000000000008152600401611d36906134ac565b60405180910390fd5b600115158173ffffffffffffffffffffffffffffffffffffffff166323b872dd3330866040518463ffffffff1660e01b8152600401611d809392919061331c565b602060405180830381600087803b158015611d9a57600080fd5b505af1158015611dae573d6000803e3d6000fd5b505050506040513d601f19601f82011682018060405250810190611dd29190612a5c565b151514611e14576040517f08c379a0000000000000000000000000000000000000000000000000000000008152600401611e0b9061340c565b60405180910390fd5b6000600760003373ffffffffffffffffffffffffffffffffffffffff1673ffffffffffffffffffffffffffffffffffffffff1681526020019081526020016000205490508260056000828254611e6a919061370c565b9250508190555060008114156120165760006040518060a001604052803373ffffffffffffffffffffffffffffffffffffffff1681526020014381526020018581526020016004548152602001600015158152509050600381908060018154018082558091505060019003906000526020600020906005020160009091909190915060008201518160000160006101000a81548173ffffffffffffffffffffffffffffffffffffffff021916908373ffffffffffffffffffffffffffffffffffffffff16021790555060208201518160010155604082015181600201556060820151816003015560808201518160040160006101000a81548160ff0219169083151502179055505050600454600760003373ffffffffffffffffffffffffffffffffffffffff1673ffffffffffffffffffffffffffffffffffffffff168152602001908152602001600020819055507fc47ed82c58c2e577a99ebba100d4a14c287e3b453c8d46113417f41f9f283d11334386604051611fec9392919061337c565b60405180910390a161200a600160045461287c90919063ffffffff16565b600481905550506120ef565b60006003600183612027919061395e565b8154811061205e577f4e487b7100000000000000000000000000000000000000000000000000000000600052603260045260246000fd5b90600052602060002090600502016002015411156120805761207e61061a565b505b826003600183612090919061395e565b815481106120c7577f4e487b7100000000000000000000000000000000000000000000000000000000600052603260045260246000fd5b906000526020600020906005020160020160008282546120e7919061370c565b925050819055505b505050565b600080600760008473ffffffffffffffffffffffffffffffffffffffff1673ffffffffffffffffffffffffffffffffffffffff1681526020019081526020016000205490506000811161217c576040517f08c379a0000000000000000000000000000000000000000000000000000000008152600401612173906134cc565b60405180910390fd5b6000600360018361218d919061395e565b815481106121c4577f4e487b7100000000000000000000000000000000000000000000000000000000600052603260045260246000fd5b9060005260206000209060050201905060006121df856111b8565b9050612225612710612217612204662386f26fc10000856122aa90919063ffffffff16565b856002015461222f90919063ffffffff16565b6122aa90919063ffffffff16565b9350505050919050565b60008083141561224257600090506122a4565b600082846122509190613904565b905082848261225f9190613762565b1461229f576040517f08c379a00000000000000000000000000000000000000000000000000000000081526004016122969061358c565b60405180910390fd5b809150505b92915050565b60006122ec83836040518060400160405280601a81526020017f536166654d6174683a206469766973696f6e206279207a65726f0000000000008152506128da565b905092915050565b600061233683836040518060400160405280601e81526020017f536166654d6174683a207375627472616374696f6e206f766572666c6f77000081525061293d565b905092915050565b60008060018361234e919061370c565b600a61235a91906137e6565b856123659190613904565b90506000600a600586846123799190613762565b612383919061370c565b61238d9190613762565b905080925050509392505050565b60006001600760008460000160009054906101000a900473ffffffffffffffffffffffffffffffffffffffff1673ffffffffffffffffffffffffffffffffffffffff1673ffffffffffffffffffffffffffffffffffffffff1681526020019081526020016000205461240d919061395e565b90506000600760008460000160009054906101000a900473ffffffffffffffffffffffffffffffffffffffff1673ffffffffffffffffffffffffffffffffffffffff1673ffffffffffffffffffffffffffffffffffffffff1681526020019081526020016000208190555060008190505b6001600380549050612490919061395e565b8110156127a35760036001826124a6919061370c565b815481106124dd577f4e487b7100000000000000000000000000000000000000000000000000000000600052603260045260246000fd5b906000526020600020906005020160038281548110612525577f4e487b7100000000000000000000000000000000000000000000000000000000600052603260045260246000fd5b90600052602060002090600502016000820160009054906101000a900473ffffffffffffffffffffffffffffffffffffffff168160000160006101000a81548173ffffffffffffffffffffffffffffffffffffffff021916908373ffffffffffffffffffffffffffffffffffffffff1602179055506001820154816001015560028201548160020155600382015481600301556004820160009054906101000a900460ff168160040160006101000a81548160ff021916908315150217905550905050612647600160038381548110612627577f4e487b7100000000000000000000000000000000000000000000000000000000600052603260045260246000fd5b9060005260206000209060050201600301546122f490919063ffffffff16565b60038281548110612681577f4e487b7100000000000000000000000000000000000000000000000000000000600052603260045260246000fd5b906000526020600020906005020160030181905550600381815481106126d0577f4e487b7100000000000000000000000000000000000000000000000000000000600052603260045260246000fd5b9060005260206000209060050201600301546007600060038481548110612720577f4e487b7100000000000000000000000000000000000000000000000000000000600052603260045260246000fd5b906000526020600020906005020160000160009054906101000a900473ffffffffffffffffffffffffffffffffffffffff1673ffffffffffffffffffffffffffffffffffffffff1673ffffffffffffffffffffffffffffffffffffffff16815260200190815260200160002081905550808061279b90613a0d565b91505061247e565b5060038054806127dc577f4e487b7100000000000000000000000000000000000000000000000000000000600052603160045260246000fd5b6001900381819060005260206000209060050201600080820160006101000a81549073ffffffffffffffffffffffffffffffffffffffff02191690556001820160009055600282016000905560038201600090556004820160006101000a81549060ff02191690555050905561285e60016004546122f490919063ffffffff16565b600481905550600060045414156128785760016004819055505b5050565b600080828461288b919061370c565b9050838110156128d0576040517f08c379a00000000000000000000000000000000000000000000000000000000081526004016128c79061346c565b60405180910390fd5b8091505092915050565b60008083118290612921576040517f08c379a000000000000000000000000000000000000000000000000000000000815260040161291891906133ea565b60405180910390fd5b50600083856129309190613762565b9050809150509392505050565b6000838311158290612985576040517f08c379a000000000000000000000000000000000000000000000000000000000815260040161297c91906133ea565b60405180910390fd5b5060008385612994919061395e565b9050809150509392505050565b6000813590506129b081613ad2565b92915050565b6000813590506129c581613ae9565b92915050565b6000815190506129da81613ae9565b92915050565b6000813590506129ef81613b00565b92915050565b600081519050612a0481613b00565b92915050565b600060208284031215612a1c57600080fd5b6000612a2a848285016129a1565b91505092915050565b600060208284031215612a4557600080fd5b6000612a53848285016129b6565b91505092915050565b600060208284031215612a6e57600080fd5b6000612a7c848285016129cb565b91505092915050565b600060208284031215612a9757600080fd5b6000612aa5848285016129e0565b91505092915050565b600060208284031215612ac057600080fd5b6000612ace848285016129f5565b91505092915050565b600080600060608486031215612aec57600080fd5b6000612afa868287016129e0565b9350506020612b0b868287016129e0565b9250506040612b1c868287016129e0565b9150509250925092565b6000612b328383612b56565b60208301905092915050565b6000612b4a83836132e3565b60208301905092915050565b612b5f81613992565b82525050565b612b6e81613992565b82525050565b6000612b7f8261369e565b612b8981856136d9565b9350612b948361367e565b8060005b83811015612bc5578151612bac8882612b26565b9750612bb7836136bf565b925050600181019050612b98565b5085935050505092915050565b6000612bdd826136a9565b612be781856136ea565b9350612bf28361368e565b8060005b83811015612c23578151612c0a8882612b3e565b9750612c15836136cc565b925050600181019050612bf6565b5085935050505092915050565b6000612c3b826136b4565b612c4581856136fb565b9350612c558185602086016139da565b612c5e81613ab4565b840191505092915050565b6000612c766022836136fb565b91507f4572726f72207472616e7366657246726f6d206f6e2074686520636f6e74726160008301527f63740000000000000000000000000000000000000000000000000000000000006020830152604082019050919050565b6000612cdc602b836136fb565b91507f4e6f742066756e6473206465706f736974656420696e20746865207374616b6960008301527f6e6720636f6e74726163740000000000000000000000000000000000000000006020830152604082019050919050565b6000612d426025836136fb565b91507f4f6e6c792074686520476c71204465706c6f7965722063616e2041505920726560008301527f77617264730000000000000000000000000000000000000000000000000000006020830152604082019050919050565b6000612da8601b836136fb565b91507f536166654d6174683a206164646974696f6e206f766572666c6f7700000000006000830152602082019050919050565b6000612de8602d836136fb565b91507f54686520656d657267656e63792077697468647261772066656174757265206960008301527f73206e6f7420656e61626c6564000000000000000000000000000000000000006020830152604082019050919050565b6000612e4e6022836136fb565b91507f496e73756666696369656e742066756e64732066726f6d207468652073656e6460008301527f65720000000000000000000000000000000000000000000000000000000000006020830152604082019050919050565b6000612eb46015836136fb565b91507f496e76616c6964207374616b696e6720696e64657800000000000000000000006000830152602082019050919050565b6000612ef46042836136fb565b91507f4f6e6c792074686520476c71204465706c6f7965722063616e2072656d6f766560008301527f20696e63656e746976652066726f6d2074686520736d6172742d636f6e74726160208301527f63740000000000000000000000000000000000000000000000000000000000006040830152606082019050919050565b6000612f806038836136fb565b91507f4e6f7420656e6f7567682066756e647320696e20746865207374616b696e672060008301527f70726f6772616d20746f20636c61696d207265776172647300000000000000006020830152604082019050919050565b6000612fe66036836136fb565b91507f4f6e6c792074686520476c71204465706c6f7965722063616e206368616e676560008301527f20626c6f636b73207370656e74207065722079656172000000000000000000006020830152604082019050919050565b600061304c602d836136fb565b91507f496e73756666696369656e742066756e64732066726f6d20746865206465706c60008301527f6f79657220636f6e7472616374000000000000000000000000000000000000006020830152604082019050919050565b60006130b26014836136fb565b91507f4e6f207265776172647320746f20636c61696d2e0000000000000000000000006000830152602082019050919050565b60006130f26021836136fb565b91507f536166654d6174683a206d756c7469706c69636174696f6e206f766572666c6f60008301527f77000000000000000000000000000000000000000000000000000000000000006020830152604082019050919050565b6000613158603f836136fb565b91507f4f6e6c792074686520476c71204465706c6f7965722063616e2061646420696e60008301527f63656e7469766520696e746f2074686520736d6172742d636f6e7472616374006020830152604082019050919050565b60006131be601e836136fb565b91507f4572726f72207472616e73666572206f6e2074686520636f6e747261637400006000830152602082019050919050565b60006131fe6044836136fb565b91507f4f6e6c792074686520476c71204465706c6f7965722063616e206368616e676560008301527f20746865207374617465206f662074686520656d657267656e6379207769746860208301527f64726177000000000000000000000000000000000000000000000000000000006040830152606082019050919050565b600061328a603e836136fb565b91507f596f7520646f6e74206861766520616e7920746965722072616e6b206375727260008301527f656e746c7920696e20746865205374616b696e6720636f6e74726163742e00006020830152604082019050919050565b6132ec816139d0565b82525050565b6132fb816139d0565b82525050565b60006020820190506133166000830184612b65565b92915050565b60006060820190506133316000830186612b65565b61333e6020830185612b65565b61334b60408301846132f2565b949350505050565b60006040820190506133686000830185612b65565b61337560208301846132f2565b9392505050565b60006060820190506133916000830186612b65565b61339e60208301856132f2565b6133ab60408301846132f2565b949350505050565b600060408201905081810360008301526133cd8185612b74565b905081810360208301526133e18184612bd2565b90509392505050565b600060208201905081810360008301526134048184612c30565b905092915050565b6000602082019050818103600083015261342581612c69565b9050919050565b6000602082019050818103600083015261344581612ccf565b9050919050565b6000602082019050818103600083015261346581612d35565b9050919050565b6000602082019050818103600083015261348581612d9b565b9050919050565b600060208201905081810360008301526134a581612ddb565b9050919050565b600060208201905081810360008301526134c581612e41565b9050919050565b600060208201905081810360008301526134e581612ea7565b9050919050565b6000602082019050818103600083015261350581612ee7565b9050919050565b6000602082019050818103600083015261352581612f73565b9050919050565b6000602082019050818103600083015261354581612fd9565b9050919050565b600060208201905081810360008301526135658161303f565b9050919050565b60006020820190508181036000830152613585816130a5565b9050919050565b600060208201905081810360008301526135a5816130e5565b9050919050565b600060208201905081810360008301526135c58161314b565b9050919050565b600060208201905081810360008301526135e5816131b1565b9050919050565b60006020820190508181036000830152613605816131f1565b9050919050565b600060208201905081810360008301526136258161327d565b9050919050565b600060208201905061364160008301846132f2565b92915050565b600060608201905061365c60008301866132f2565b61366960208301856132f2565b61367660408301846132f2565b949350505050565b6000819050602082019050919050565b6000819050602082019050919050565b600081519050919050565b600081519050919050565b600081519050919050565b6000602082019050919050565b6000602082019050919050565b600082825260208201905092915050565b600082825260208201905092915050565b600082825260208201905092915050565b6000613717826139d0565b9150613722836139d0565b9250827fffffffffffffffffffffffffffffffffffffffffffffffffffffffffffffffff0382111561375757613756613a56565b5b828201905092915050565b600061376d826139d0565b9150613778836139d0565b92508261378857613787613a85565b5b828204905092915050565b6000808291508390505b60018511156137dd578086048111156137b9576137b8613a56565b5b60018516156137c85780820291505b80810290506137d685613ac5565b945061379d565b94509492505050565b60006137f1826139d0565b91506137fc836139d0565b92506138297fffffffffffffffffffffffffffffffffffffffffffffffffffffffffffffffff8484613831565b905092915050565b60008261384157600190506138fd565b8161384f57600090506138fd565b8160018114613865576002811461386f5761389e565b60019150506138fd565b60ff84111561388157613880613a56565b5b8360020a91508482111561389857613897613a56565b5b506138fd565b5060208310610133831016604e8410600b84101617156138d35782820a9050838111156138ce576138cd613a56565b5b6138fd565b6138e08484846001613793565b925090508184048111156138f7576138f6613a56565b5b81810290505b9392505050565b600061390f826139d0565b915061391a836139d0565b9250817fffffffffffffffffffffffffffffffffffffffffffffffffffffffffffffffff048311821515161561395357613952613a56565b5b828202905092915050565b6000613969826139d0565b9150613974836139d0565b92508282101561398757613986613a56565b5b828203905092915050565b600061399d826139b0565b9050919050565b60008115159050919050565b600073ffffffffffffffffffffffffffffffffffffffff82169050919050565b6000819050919050565b60005b838110156139f85780820151818401526020810190506139dd565b83811115613a07576000848401525b50505050565b6000613a18826139d0565b91507fffffffffffffffffffffffffffffffffffffffffffffffffffffffffffffffff821415613a4b57613a4a613a56565b5b600182019050919050565b7f4e487b7100000000000000000000000000000000000000000000000000000000600052601160045260246000fd5b7f4e487b7100000000000000000000000000000000000000000000000000000000600052601260045260246000fd5b6000601f19601f8301169050919050565b60008160011c9050919050565b613adb81613992565b8114613ae657600080fd5b50565b613af2816139a4565b8114613afd57600080fd5b50565b613b09816139d0565b8114613b1457600080fd5b5056fea26469706673582212208b0a9109655f8a0d86705d1f5a6abc4969f02a087a1d4cc7145b9395296aab9a64736f6c63430008000033",
  "immutableReferences": {},
  "source": "// SPDX-License-Identifier: MIT\r\n\r\npragma solidity ^0.8.0;\r\n\r\nimport \"./libs/maths/SafeMath.sol\";\r\nimport \"./libs/string.sol\";\r\nimport \"./interfaces/IERC20.sol\";\r\nimport \"./libs/sort.sol\";\r\n\r\nstruct GlqStaker {\r\n    address wallet;\r\n    uint256 block_number;\r\n    uint256 amount;\r\n    uint256 index_at;\r\n    bool already_withdrawn;\r\n}\r\n\r\nstruct GraphLinqApyStruct {\r\n    uint256 tier1Apy;\r\n    uint256 tier2Apy;\r\n    uint256 tier3Apy;      \r\n}\r\n\r\ncontract GlqStakingContract {\r\n\r\n    using SafeMath for uint256;\r\n    using strings for *;\r\n    using QuickSorter for *;\r\n\r\n    event NewStakerRegistered (\r\n        address staker_address,\r\n        uint256 at_block,\r\n        uint256 amount_registered\r\n    );\r\n\r\n    /*\r\n    ** Address of the GLQ token hash: 0x9F9c8ec3534c3cE16F928381372BfbFBFb9F4D24\r\n    */\r\n    address private _glqTokenAddress;\r\n\r\n    /*\r\n    ** Manager of the contract to add/remove APYs bonuses into the staking contract\r\n    */\r\n    address private _glqDeployerManager;\r\n\r\n    /*\r\n    ** Current amount of GLQ available in the pool as rewards\r\n    */\r\n    uint256 private _totalGlqIncentive;\r\n\r\n    GlqStaker[]                     private _stakers;\r\n    uint256                         private _stakersIndex;\r\n    uint256                         private _totalStaked;\r\n    bool                            private _emergencyWithdraw;\r\n\r\n    mapping(address => uint256)     private _indexStaker;\r\n    uint256                         private _blocksPerYear;\r\n    GraphLinqApyStruct              private _apyStruct;\r\n\r\n    constructor(address glqAddr, address manager) {\r\n        _glqTokenAddress = glqAddr;\r\n        _glqDeployerManager = manager;\r\n\r\n        _totalStaked = 0;\r\n        _stakersIndex = 1;\r\n        \r\n        //_blocksPerYear = 2250000;\r\n        _blocksPerYear = 10;\r\n        \r\n        // default t1: 25%, t2: 12.5%, t3: 6.5%\r\n        _apyStruct = GraphLinqApyStruct(25*1e18, 12500000000000000000, 6500000000000000000);\r\n    }\r\n\r\n\r\n    /* Getter ---- Read-Only */\r\n\r\n    /*\r\n    ** Return the sender wallet position from the tier system\r\n    */\r\n    function getWalletCurrentTier(address wallet) public view returns (uint256) {\r\n        uint256 currentTier = 3;\r\n        uint256 index = _indexStaker[wallet];\r\n        require(\r\n            index != 0,\r\n            \"You dont have any tier rank currently in the Staking contract.\"\r\n        );\r\n        uint256 walletAggregatedIndex = (index).mul(1e18);\r\n\r\n        // Total length of stakers\r\n        uint256 totalIndex = _stakers.length.mul(1e18);\r\n        // 15% of hodlers in T1 \r\n        uint256 t1MaxIndex = totalIndex.div(100).mul(15);        \r\n        // 55% of hodlers in T2\r\n        uint256 t2MaxIndex = totalIndex.div(100).mul(55);\r\n\r\n        if (walletAggregatedIndex <= t1MaxIndex) {\r\n            currentTier = 1;\r\n        } else if (walletAggregatedIndex > t1MaxIndex && walletAggregatedIndex <= t2MaxIndex) {\r\n            currentTier = 2;\r\n        }\r\n\r\n        return currentTier;\r\n    }\r\n\r\n    /*\r\n    ** Return rank position of a wallet\r\n    */\r\n    function getPosition(address wallet) public view returns (uint256) {\r\n         uint256 index = _indexStaker[wallet];\r\n         return index;\r\n    }\r\n\r\n    /*\r\n    ** Return the amount of GLQ that a wallet can currently claim from the staking contract\r\n    */\r\n    function getGlqToClaim(address wallet) public view returns(uint256) {\r\n        uint256 index = _indexStaker[wallet];\r\n        require (index > 0, \"Invalid staking index\");\r\n        GlqStaker storage staker = _stakers[index - 1];\r\n\r\n        uint256 calculatedApr = getWaitingPercentAPR(wallet);\r\n        return staker.amount.mul(calculatedApr.div(1e16)).div(10000);\r\n    }\r\n\r\n    /*\r\n    ** Return the current percent winnable for a staker wallet\r\n    */\r\n    function getWaitingPercentAPR(address wallet) public view returns(uint256) {\r\n        uint256 index = _indexStaker[wallet];\r\n        require (index > 0, \"Invalid staking index\");\r\n        GlqStaker storage staker = _stakers[index - 1];\r\n\r\n        uint256 walletTier = getWalletCurrentTier(msg.sender);\r\n        uint256 blocksSpent = block.number.sub(staker.block_number);\r\n        if (blocksSpent == 0) { return 0; }\r\n        uint256 percentYearSpent = percent(blocksSpent, _blocksPerYear, 2);\r\n\r\n        uint256 percentAprGlq = _apyStruct.tier3Apy;\r\n        if (walletTier == 1) {\r\n            percentAprGlq = _apyStruct.tier1Apy;\r\n        } else if (walletTier == 2) { \r\n            percentAprGlq = _apyStruct.tier2Apy;\r\n        }\r\n\r\n        return percentAprGlq.mul(percentYearSpent).div(100);\r\n    }\r\n\r\n    /*\r\n    ** Return the total amount of GLQ as incentive rewards in the contract\r\n    */\r\n    function getTotalIncentive() public view returns (uint256) {\r\n        return _totalGlqIncentive;\r\n    }\r\n\r\n    /*\r\n    ** Return the total amount in staking for an hodler.\r\n    */\r\n    function getDepositedGLQ(address wallet) public view returns (uint256) {\r\n        uint256 index = _indexStaker[wallet];\r\n        if (index == 0) { return 0; }\r\n        return _stakers[index-1].amount;\r\n    }\r\n\r\n    /*\r\n    ** Count the total numbers of stakers in the contract\r\n    */\r\n    function getTotalStakers() public view returns(uint256) {\r\n        return _stakers.length;\r\n    }\r\n\r\n    /*\r\n    ** Return all APY per different Tier\r\n    */\r\n    function getTiersAPY() public view returns(uint256, uint256, uint256) {\r\n        return (_apyStruct.tier1Apy, _apyStruct.tier2Apy, _apyStruct.tier3Apy);\r\n    }\r\n\r\n    /*\r\n    ** Return the Total staked amount\r\n    */\r\n    function getTotalStaked() public view returns(uint256) {\r\n        return _totalStaked;\r\n    }\r\n\r\n    /*\r\n    ** Return the top 3 of stakers (by age)\r\n    */\r\n    function getTopStakers() public view returns(address[] memory, uint256[] memory) {\r\n        uint256 len = _stakers.length;\r\n        address[] memory addresses;\r\n        uint256[] memory amounts;\r\n\r\n        // first staker\r\n        if (len >= 1) {\r\n            addresses[0] = _stakers[1].wallet;\r\n            amounts[0] = _stakers[1].amount;\r\n        }\r\n        // second staker\r\n        if (len >= 2) {\r\n            addresses[1] = _stakers[2].wallet;\r\n            amounts[1] = _stakers[2].amount;\r\n        }\r\n        //third staker\r\n        if (len >= 3) {\r\n            addresses[2] = _stakers[3].wallet;\r\n            amounts[2] = _stakers[3].amount;\r\n        }\r\n\r\n        return (addresses, amounts);\r\n    }\r\n\r\n    /* Getter ---- Read-Only */\r\n\r\n\r\n    /* Setter - Read & Modifications */\r\n\r\n\r\n    /*\r\n    ** Enable emergency withdraw by GLQ Deployer\r\n    */\r\n    function setEmergencyWithdraw(bool state) public {\r\n        require (\r\n            msg.sender == _glqDeployerManager,\r\n            \"Only the Glq Deployer can change the state of the emergency withdraw\"\r\n        );\r\n        _emergencyWithdraw = state;\r\n    }\r\n\r\n    /*\r\n    ** Set numbers of blocks spent per year to calculate claim rewards\r\n    */\r\n    function setBlocksPerYear(uint256 blocks) public {\r\n        require(\r\n            msg.sender == _glqDeployerManager,\r\n            \"Only the Glq Deployer can change blocks spent per year\");\r\n        _blocksPerYear = blocks;\r\n    }\r\n\r\n    /*\r\n    ** Update the APY rewards for each tier in percent per year\r\n    */\r\n    function setApyPercentRewards(uint256 t1, uint256 t2, uint256 t3) public {\r\n        require(\r\n            msg.sender == _glqDeployerManager,\r\n            \"Only the Glq Deployer can APY rewards\");\r\n        GraphLinqApyStruct memory newApy = GraphLinqApyStruct(t1, t2, t3);\r\n        _apyStruct = newApy;\r\n    }\r\n\r\n    /*\r\n    ** Add GLQ liquidity in the staking contract for stakers rewards \r\n    */\r\n    function addIncentive(uint256 glqAmount) public {\r\n        IERC20 glqToken = IERC20(_glqTokenAddress);\r\n        require(\r\n            msg.sender == _glqDeployerManager,\r\n            \"Only the Glq Deployer can add incentive into the smart-contract\");\r\n        require(\r\n            glqToken.balanceOf(msg.sender) >= glqAmount,\r\n            \"Insufficient funds from the deployer contract\");\r\n        require(\r\n            glqToken.transferFrom(msg.sender, address(this), glqAmount) == true,\r\n            \"Error transferFrom on the contract\"\r\n        );\r\n        _totalGlqIncentive += glqAmount;\r\n    }\r\n\r\n    /*\r\n    ** Remove GLQ liquidity from the staking contract for stakers rewards \r\n    */\r\n    function removeIncentive(uint256 glqAmount) public {\r\n        IERC20 glqToken = IERC20(_glqTokenAddress);\r\n        require(\r\n            msg.sender == _glqDeployerManager,\r\n            \"Only the Glq Deployer can remove incentive from the smart-contract\");\r\n        require(\r\n            glqToken.balanceOf(address(this)) >= glqAmount,\r\n            \"Insufficient funds from the deployer contract\");\r\n        require(\r\n            glqToken.transfer(msg.sender, glqAmount) == true,\r\n            \"Error transfer on the contract\"\r\n        );\r\n\r\n        _totalGlqIncentive -= glqAmount;\r\n    }\r\n\r\n\r\n    /*\r\n    ** Deposit GLQ in the staking contract to stake & earn\r\n    */\r\n    function depositGlq(uint256 glqAmount) public {\r\n        IERC20 glqToken = IERC20(_glqTokenAddress);\r\n        require(\r\n            glqToken.balanceOf(msg.sender) >= glqAmount,\r\n            \"Insufficient funds from the sender\");\r\n        require(\r\n           glqToken.transferFrom(msg.sender, address(this), glqAmount) == true,\r\n           \"Error transferFrom on the contract\"\r\n        );\r\n\r\n        uint256 index = _indexStaker[msg.sender];\r\n        _totalStaked += glqAmount;\r\n\r\n        if (index == 0) {\r\n            GlqStaker memory staker = GlqStaker(msg.sender, block.number, glqAmount, _stakersIndex, false);\r\n            _stakers.push(staker);\r\n            _indexStaker[msg.sender] = _stakersIndex;\r\n\r\n            // emit event of a new staker registered at current block position\r\n            emit NewStakerRegistered(msg.sender, block.number, glqAmount);\r\n            _stakersIndex = _stakersIndex.add(1);\r\n        }\r\n        else {\r\n            // claim rewards before adding new staking amount\r\n            if (_stakers[index-1].amount > 0) {\r\n                claimGlq();\r\n            }\r\n            _stakers[index-1].amount += glqAmount;\r\n        }\r\n    }\r\n\r\n    function removeStaker(GlqStaker storage staker) private {\r\n        uint256 currentIndex = _indexStaker[staker.wallet]-1;\r\n        _indexStaker[staker.wallet] = 0;\r\n        for (uint256 i= currentIndex ; i < _stakers.length-1 ; i++) {\r\n            _stakers[i] = _stakers[i+1];\r\n            _stakers[i].index_at = _stakers[i].index_at.sub(1);\r\n            _indexStaker[_stakers[i].wallet] = _stakers[i].index_at;\r\n        }\r\n        _stakers.pop();\r\n\r\n        // Remove the staker and decrease stakers index\r\n        _stakersIndex = _stakersIndex.sub(1);\r\n        if (_stakersIndex == 0) { _stakersIndex = 1; }\r\n    }\r\n\r\n    /*\r\n    ** Emergency withdraw enabled by GLQ team in an emergency case\r\n    */\r\n    function emergencyWithdraw() public {\r\n        require(\r\n            _emergencyWithdraw == true,\r\n            \"The emergency withdraw feature is not enabled\"\r\n        );\r\n        uint256 index = _indexStaker[msg.sender];\r\n        require (index > 0, \"Invalid staking index\");\r\n        GlqStaker storage staker = _stakers[index - 1];\r\n        IERC20 glqToken = IERC20(_glqTokenAddress);\r\n\r\n        require(\r\n            staker.amount > 0,\r\n         \"Not funds deposited in the staking contract\");\r\n\r\n        require(\r\n            glqToken.transfer(msg.sender, staker.amount) == true,\r\n            \"Error transfer on the contract\"\r\n        );\r\n    }\r\n\r\n    /*\r\n    ** Withdraw Glq from the staking contract (reduce the tier position)\r\n    */\r\n    function withdrawGlq() public {\r\n        uint256 index = _indexStaker[msg.sender];\r\n        require (index > 0, \"Invalid staking index\");\r\n        GlqStaker storage staker = _stakers[index - 1];\r\n        IERC20 glqToken = IERC20(_glqTokenAddress);\r\n        require(\r\n            staker.amount > 0,\r\n         \"Not funds deposited in the staking contract\");\r\n        staker.amount = 0;\r\n    \r\n        //auto claim when withdraw\r\n        claimGlq();\r\n\r\n        _totalStaked -= staker.amount;\r\n        require(\r\n            glqToken.balanceOf(address(this)) >= staker.amount,\r\n            \"Insufficient funds from the deployer contract\");\r\n        require(\r\n            glqToken.transfer(msg.sender, staker.amount) == true,\r\n            \"Error transfer on the contract\"\r\n        );\r\n        \r\n        \r\n        if (staker.already_withdrawn) {\r\n            removeStaker(staker);\r\n        } else {\r\n            staker.already_withdrawn = true;\r\n        }\r\n    }\r\n\r\n    function percent(uint256 numerator, uint256 denominator, uint256 precision) private pure returns(uint256) {\r\n        uint256 _numerator  = numerator * 10 ** (precision+1);\r\n        // with rounding of last digit\r\n        uint256 _quotient =  ((_numerator / denominator) + 5) / 10;\r\n        return ( _quotient);\r\n    }\r\n\r\n    /*\r\n    ** Claim waiting rewards from the staking contract\r\n    */\r\n    function claimGlq() public returns(uint256) {\r\n        uint256 index = _indexStaker[msg.sender];\r\n        require (index > 0, \"Invalid staking index\");\r\n        GlqStaker storage staker = _stakers[index - 1];\r\n        uint256 glqToClaim = getGlqToClaim(msg.sender);\r\n        IERC20 glqToken = IERC20(_glqTokenAddress);\r\n\r\n        require(\r\n            glqToClaim > 0,\r\n            \"No rewards to claim.\"\r\n        );\r\n        require(\r\n            glqToken.balanceOf(address(this)) > glqToClaim,\r\n            \"Not enough funds in the staking program to claim rewards\"\r\n        );\r\n\r\n        staker.block_number = block.number;\r\n\r\n        require(\r\n            glqToken.transfer(msg.sender, glqToClaim) == true,\r\n            \"Error transfer on the contract\"\r\n        );\r\n        return (glqToClaim);\r\n    }\r\n\r\n    /* Setter - Read & Modifications */\r\n\r\n}",
  "sourcePath": "E:/eth/graphlinq/GraphLinq.Engine/GraphLinq.StakingContract/contracts/GlqStakingContract.sol",
  "compiler": {
    "name": "solc",
    "version": "0.8.0+commit.c7dfd78e.Emscripten.clang"
  },
  "schemaVersion": "3.4.0",
  "updatedAt": "2021-05-28T02:06:41.958Z",
  "networkType": "ethereum",
  "devdoc": {
    "kind": "dev",
    "methods": {},
    "version": 1
  },
  "userdoc": {
    "kind": "user",
    "methods": {},
    "version": 1
  }
}